:100000000C9453000C947B000C947B000C947B00AC
:100010000C947B000C947B000C947B000C947B0074
:100020000C947B000C947B000C947B000C947B0064
:100030000C947B000C947B000C947B000C947B0054
:100040000C94B4060C947B000C947B000C947B0005
:100050000C947B000C947B000C947B000C947B0034
:100060000C947B000C947B00000000002300260011
:10007000290000000000250028002B0004040404CF
:100080000404040402020202020203030303030342
:10009000010204081020408001020408102001021F
:1000A00004081020FE0611241FBECFEFD8E0DEBFEB
:1000B000CDBF11E0A0E0B1E0EAE8F8E102C00590B0
:1000C0000D92AA34B107D9F725E0AAE4B1E001C046
:1000D0001D92A533B207E1F710E0C3E5D0E004C0FC
:1000E0002197FE010E94380CC235D107C9F70E9442
:1000F000EC070C94430C0C940000DC0117962C9137
:10010000179730E0F901E057FF4FE4911696EC9312
:10011000169724583F4FF9018491E82FF0E0EE0F35
:10012000FF1FEE58FF4F8591949113969C938E93E9
:100130001297F9012491E22FF0E0EE0FFF1FE8592A
:10014000FF4F8591949115969C938E9314970895E3
:1001500080E991E008953FB7F89480915101909122
:100160005201A0915301B091540126B5A89B05C03E
:100170002F3F19F00196A11DB11D3FBFBA2FA92F26
:10018000982F8827BC01CD01620F711D811D911D23
:1001900042E0660F771F881F991F4A95D1F708958F
:1001A0002FB7F89460914D0170914E0180914F01ED
:1001B000909150012FBF0895CF92DF92EF92FF925E
:1001C000CF93DF93EC010E94D0006B017C019E0174
:1001D000A8E1B1E00E94030C9B01AC01C701B6018C
:1001E0000E94BD0BDF91CF91FF90EF90DF90CF90F9
:1001F00008952F923F924F925F926F927F928F92CB
:100200009F92AF92BF92CF92DF92EF92FF920F93A5
:100210001F93CF93DF93CDB7DEB729970FB6F8942E
:10022000DEBF0FBECDBF898749835A836B837C8332
:100230000091760110917701BDE78B2E912CA12CB6
:10024000B12C0115110509F46BC0D801ED91FC9199
:100250000084F185E02DC80109951C01D801129692
:10026000ED91FC91C12CD12C7601412C512C320105
:1002700020E030E0A901009791F06081260F311D48
:10028000411D511D6181460E511C611C711C628112
:10029000C60ED11CE11CF11C01973396ECCFA0E5F2
:1002A000B0E00E94190C6D837E838F839887A7E34B
:1002B000B0E0A30192010E94190C2B013C01ABE4B8
:1002C000B0E0A70196010E94190C2D813E814F815B
:1002D0005885C32ED42EE52EFF2445E0429D900183
:1002E000439D300D1124C20ED31EE11CF11C8C0C59
:1002F0009D1CAE1CBF1C452C562C672C7724840CEF
:10030000951CA61CB71C472F582F692F7727840EE2
:10031000951EA61EB71ED80114960D911C9191CF63
:10032000B985CB2ED12CF12CE12CA7019601C5016A
:10033000B4010E94BD0B872E982EA92EBB242981C3
:100340003A814B815C8182169306A406B50668F05B
:10035000A701960169817A818B819C810E94BD0BE6
:10036000A50194010E94E10B2987898529960FB682
:10037000F894DEBF0FBECDBFDF91CF911F910F91DB
:10038000FF90EF90DF90CF90BF90AF909F908F90B5
:100390007F906F905F904F903F902F900895FC0159
:1003A000A281B3819C9186812681982381E092135A
:1003B00080E00895FC0186810280F381E02D908128
:1003C0008095892380830895FC0196810280F381C2
:1003D000E02D8081892B808308950F931F93CF9305
:1003E000DF9320914B012F5F322F377030934B01F9
:1003F00020FF2BC020E831FD2064347009F020621A
:10040000205FFC01EC01239600E011E06485662387
:1004100029F070E0C8010E94CD0B6F5F6187322F19
:10042000369F030E30E0311D1124311110C01682A9
:10043000662311F0615061873196EC17FD0731F7A3
:10044000DF91CF911F910F91089520E0D4CF3150CB
:100450003683EECF4F925F926F927F928F92AF92E0
:10046000BF92CF92DF92EF920F931F93CF93DF93C0
:100470003C01EB010E94AB00F30127853089621B30
:10048000730B6A307105B0F3F894E881F9817BB1A0
:1004900078606BB1677F6BB9CA848F812C2D281B64
:1004A000822F2F83BF844A805B801D850C85DE846C
:1004B0001F5F0F5FD3949E813885A984EB844181AF
:1004C000D20120E0C32F522F322F3181442788944C
:1004D0003111380F08F43FEF8195889410FD430FD8
:1004E0004795889411FD430F4795889412FD430F5B
:1004F0004795889413FD430F4795889414FD430F47
:100500004795889415FD430F4795889416FD430F32
:100510004795889417FD430F47958894232F111111
:10052000242F8C0D422F002C7BB900C047FF6BB9E4
:1005300030812227889400C000C0002C6BB9311193
:10054000390F00C0002C7BB900C046FF6BB908F41E
:100550003FEF9195889400C000C0002C6BB900FD5E
:10056000230F00C0002C7BB900C045FF6BB9279555
:10057000889401FD230F00C000C0002C6BB92795A3
:10058000889400C0002C7BB900C044FF6BB902FD09
:10059000230F2795889400C000C0002C6BB903FD81
:1005A000230F00C0002C7BB900C043FF6BB9279517
:1005B000889404FD230F00C000C0002C6BB9279560
:1005C000889400C0002C7BB900C042FF6BB905FDC8
:1005D000230F2795889400C000C0002C6BB906FD3E
:1005E000230F00C0002C7BB900C041FF6BB92795D9
:1005F000889407FD230F00C000C0002C6BB927951D
:10060000889400C0002C7BB900C040FF6BB9432F19
:100610000111422F9A0D00C000C0002C6BB900C020
:1006200000C0002C7BB900C047FF6BB93281222784
:10063000889400C000C0002C6BB931113C0F00C081
:10064000002C7BB900C046FF6BB908F43FEFEB0DFF
:10065000F11D00C000C0002C6BB9D0FC230F00C0FE
:10066000002C7BB900C045FF6BB927958894D1FC5D
:10067000230F00C000C0002C6BB92795889400C0E0
:10068000002C7BB900C044FF6BB9D2FC230F279527
:10069000889400C000C0002C6BB9D3FC230F00C0AD
:1006A000002C7BB900C043FF6BB927958894D4FC1C
:1006B000230F00C000C0002C6BB92795889400C0A0
:1006C000002C7BB900C042FF6BB9D5FC230F2795E6
:1006D000889400C000C0002C6BB9D6FC230F00C06A
:1006E000002C7BB900C041FF6BB927958894D7FCDB
:1006F000230F00C000C0002C6BB92795889400C060
:10070000002C7BB900C040FF6BB9432FD110422FA2
:10071000C19500C000C0002C6BB9CE0D00C000C058
:100720007BB900C047FF6BB931812227889400C094
:1007300000C0002C6BB93111380F00C0002C7BB900
:1007400000C046FF6BB908F43FEF8195889400C064
:1007500000C0002C6BB910FD230F00C0002C7BB92A
:1007600000C045FF6BB92795889411FD230F00C089
:1007700000C0002C6BB92795889400C0002C7BB971
:1007800000C044FF6BB912FD230F2795889400C069
:1007900000C0002C6BB913FD230F00C0002C7BB9E7
:1007A00000C043FF6BB92795889414FD230F00C048
:1007B00000C0002C6BB92795889400C0002C7BB931
:1007C00000C042FF6BB915FD230F2795889400C028
:1007D00000C0002C6BB916FD230F00C0002C7BB9A4
:1007E00000C041FF6BB92795889417FD230F00C007
:1007F00000C0002C6BB92795889400C0002C7BB9F1
:1008000000C040FF6BB9432F1111422F8C0D00C067
:1008100000C0002C6BB9119709F086CE20EE31E0B4
:10082000D2010E94120CDC01CB01F4E0B695A79531
:1008300097958795FA95D1F730E020E0B901EAE97C
:100840004E9E040C611D5E9E600D711D1124650D90
:10085000711D860F971FA11DB11D893E43E09407AE
:10086000A105B10508F434C0885E9340A109B1091F
:1008700042E0B695A795979587954A95D1F747E0B9
:10088000849F080E211D949F200D311D1124290FD6
:10089000311D60914A0170E0860F971F820F931FF0
:1008A00040914D0150914E0160914F017091500166
:1008B000292F3327420F531F611D711D40934D0196
:1008C00050934E0160934F017093500180934A0101
:1008D00078940E94AB00F301708B6787DF91CF9112
:1008E0001F910F91EF90DF90CF90BF90AF908F90BE
:1008F0007F906F905F904F900895539A08950F9353
:100900001F93CF93DF93CDB7DEB762970FB6F894FE
:10091000DEBF0FBECDBF8C01F901DC011C968C91AE
:100920007A8369835C834B835E834D8390819D874B
:1009300091819E8792819F878130F1F4CE0101964B
:100940000E94ED0183E0888B1A8A198AD801ED9103
:10095000FC910484F585E02DBE016F5F7F4FC801D7
:10096000099562960FB6F894DEBF0FBECDBFDF913A
:10097000CF911F910F9108951C861B861A861986A8
:1009800018861F82DFCF0F931F93CF93DF93CDB7CE
:10099000DEB762970FB6F894DEBF0FBECDBF8C01F5
:1009A000F901DC011C968C917A8369835C834B830B
:1009B0005E834D8390819D8791819E8792819F87E1
:1009C0008130E9F4CE0101960E94ED01188A1A8A5D
:1009D000198AD801ED91FC910484F585E02DBE01C2
:1009E0006F5F7F4FC801099562960FB6F894DEBF1E
:1009F0000FBECDBFDF91CF911F910F9108951C863F
:100A00001B861A86198618861F82E0CF90E080E048
:100A10000895FC01858596850895CF93DF9300D0D6
:100A200000D000D0CDB7DEB7AB011C821D821E8284
:100A3000DC01ED91FC910190F081E02D19821A8288
:100A40001B829E012F5F3F4FBE016C5F7F4F099558
:100A500026960FB6F894DEBF0FBECDBFDF91CF91C3
:100A60000895FC01DB013C912081230F08F42FEF56
:100A7000208311963C9111972181230F08F42FEFC9
:100A8000218312963C912281230F08F42FEF2283B9
:100A90000895282F86FD2095E22FEF732F7086FD95
:100AA0002F5FE695E695E695E670F0E0E15EFE4F95
:100AB0009181929F902D212D112492959F702295C6
:100AC000207F922B2081920F87FD919580E8890FDE
:100AD0000895CF93DF93982FD62FC42F80E00E94E4
:100AE000DC00892F0E9449052C2F2D1B382F329FA7
:100AF000030E30E0311D1124832F8D0FDF91CF9134
:100B00000895BC019C0183E0369527958A95E1F70D
:100B1000377076FF06C08FEF97E0AC01421B530B96
:100B20009A01E32FEE0FEE0FF0E0E050FF4F40810F
:100B3000518126958281FA01289FE00DF11D112433
:100B4000CF0177FF03C091958195910908959C018C
:100B5000AB01869FB001359FC001E0E0349F700D6E
:100B6000811D9E1F259F700D811D9E1F1124620FE8
:100B7000731F8E1F9E1F08950F931F93CF93DF93B4
:100B80008B01EA010E94DC000E948105BE01601B0E
:100B9000710B90580E94A705800F911FDF91CF9194
:100BA0001F910F9108950F931F93CF93DF93982F69
:100BB0008B01EA0180E00E94DC000E948105BE01F9
:100BC000601B710B90580E94A705800F911FDF9149
:100BD000CF911F910F9108954F925F926F927F92E4
:100BE0008F929F92AF92BF92CF92DF92EF92FF923D
:100BF0000F931F93CF93DF9300D01F92CDB7DEB733
:100C00004C015B01522E569547957A0124E1E20E84
:100C1000F11C9CE7C92E91E0D92E380136E0731AF9
:100C200044244394450C06501F4FC8010E9481057F
:100C3000B70190580E94A7058E0D9F1DA80EB91EE2
:100C4000C5010E94810560EF70E090580E94A705E1
:100C5000382F32953F70282F2F70F401A32FAA0F41
:100C6000A30FA80DB92DB11D4C9111968C91119720
:100C700012969C911297222309F42CC03F3011F058
:100C8000FD0133962295207F522F5095342F359FAA
:100C9000030E30E0311D4081429F040E40E0411DB3
:100CA000430F382F359F030E30E0311D832F3181E4
:100CB000329F030E30E0311D830F392F359F030E15
:100CC00030E0311D932F3281329F030E30E0311D11
:100CD000930F11242FEF5216E9F0552009F43EC06E
:100CE000442329F0342D439F040E40E0411D882306
:100CF00039F0382F242D329F030E30E0311D832F21
:100D0000992339F0392F242D329F030E30E0311D05
:100D1000932F112449838A839B83BE016F5F7F4F8A
:100D2000C6010E94310533E0C30ED11C061517051C
:100D300009F079CF0F900F900F90DF91CF911F9115
:100D40000F91FF90EF90DF90CF90BF90AF909F906A
:100D50008F907F906F905F904F90089590E080E02B
:100D600040E0D8CF0E943E0C1F920F920FB60F9218
:100D700011242F933F938F939F93AF93BF938091B1
:100D80004D0190914E01A0914F01B09150013091D1
:100D90004C0123E0230F2D3758F50196A11DB11DFD
:100DA00020934C0180934D0190934E01A0934F01ED
:100DB000B09350018091510190915201A091530143
:100DC000B09154010196A11DB11D809351019093E2
:100DD0005201A0935301B0935401BF91AF919F91E1
:100DE0008F913F912F910F900FBE0F901F901895EC
:100DF00026E8230F0296A11DB11DD2CF9F92AF927C
:100E0000BF92CF92DF92EF92FF920F931F93CF93F7
:100E1000DF93E8E9F4E0CFEFC083128211821486F9
:100E200013868FEF9FEFDC0187839087A187B287BE
:100E3000E5E0F5E01082A5E0A18387E0982E92829C
:100E4000138294E0A92EA48279E07583168293E040
:100E500097836BE06087118692872DE0B22EB38670
:100E6000148622E0258730E136871786208B42E101
:100E7000C42EC18A128A41E0438B84E1848B158A97
:100E8000468B57E1D52ED78A108E118EB9E1B28FDD
:100E9000138E148E5CE1558F168E178ED6E2ED2ED2
:100EA000E0A211A212A211E3F12EF3A214A215A244
:100EB0000BE306A317A210A616E411A782A7D5E597
:100EC000D3A7DBE4D4A7D8E2D5A7DAEAD6A7D0E542
:100ED000D7A7E5EDF4E01082A18392821382A48269
:100EE000758316829783608711869287B3861486EE
:100EF000258736871786208BC18A128A438B848B7D
:100F0000158A468BD78A108E118EB28F138E148E4F
:100F1000558F168E178EE0A211A212A2F3A214A270
:100F200015A206A317A210A611A74CE042A71FE521
:100F300013A702E504A7B5A7BEEBB6A717A7E5EA76
:100F4000F4E010822183B8E0B283138294832EE010
:100F500025831682A7838087118696E092879AE17F
:100F600093871486B58790E296871786708B77E211
:100F7000718B128A638B6DE2648B158A468B43E317
:100F8000478B108E218F29E3228F138E348F20E41C
:100F9000258F168E878FD0A311A288E182A380E6C9
:100FA00083A314A255A340E746A317A290A740E845
:100FB00041A732A723A72FEB24A795A786A7C7A7EA
:100FC000DF91CF911F910F91FF90EF90DF90CF9025
:100FD000BF90AF909F900895CF93DF9300D01F9262
:100FE000CDB7DEB7789484B5826084BD84B5816066
:100FF00084BD85B5826085BD85B5816085BD8091E4
:101000006E00816080936E0010928100809181005B
:101010008260809381008091810081608093810053
:10102000809180008160809380008091B100846015
:101030008093B1008091B00081608093B000809176
:101040007A00846080937A0080917A008260809335
:101050007A0080917A00816080937A0080917A0092
:10106000806880937A001092C1000E94AB004B010F
:101070005C0188EBC82E8BE0D82EE12CF12C0E946D
:10108000AB00681979098A099B09683E734081059C
:101090009105A8F321E0C21AD108E108F10838EE61
:1010A000830E33E0931EA11CB11CC114D104E104D2
:1010B000F10429F780916801811145C010925A010D
:1010C000109259018FEF80935D0180935E018093B0
:1010D0005F0180936001809361018093620181E0F0
:1010E00080936301109265011092640110925C017B
:1010F00010925B018091760190917701892B31F4F8
:1011000087E591E09093770180937601E091550116
:10111000F0915601309721F087E591E09583848323
:1011200087E591E0909356018093550110926701F5
:10113000109266018BE391E09093580180935701E0
:1011400081E080936801539A8CE791E090935A0173
:101150008093590180E091E0909365018093640150
:1011600080919B0490919C04A0919D04B0919E0459
:10117000843CE9E09E07A105B10520F484EC99E0E8
:10118000A0E0B0E080939B0490939C04A0939D0406
:10119000B0939E048FEF80935D0180EB80935E019E
:1011A00080EF80935F0189EF90E09093A404809397
:1011B000A30484EC99E0A0E0B0E080939F049093B6
:1011C000A004A093A104B093A20480919004811183
:1011D00019C00E94D00060938804709389048093A2
:1011E0008A0490938B0484E190E0A0E0B0E08093C7
:1011F0008C0490938D04A0938E04B0938F0481E0AF
:10120000809390040E94D00000918804109189047A
:1012100020918A0430918B04601B710B820B930B1D
:1012200000918C0410918D0420918E0430918F04D4
:10123000601771078207930708F497C20E94D000D5
:10124000609388047093890480938A0490938B043C
:101250000E94D0004B015C01809184049091850430
:10126000A0918604B091870424013501481A590AD7
:101270006A0A7B0A4DE051E063EB70E083E090E0A6
:101280000E94D3058C014DE051E063EB70E084E0F7
:1012900090E00E94D305FC01D801A30192010E94B5
:1012A000190CC72ED82EE92EFF24DF010E94190C3D
:1012B000472E582E692E77248092840490928504BC
:1012C000A0928604B09287044DE050E06AE070E09E
:1012D00083EF93E00E94BC05DC01A70196010E9408
:1012E000190C8090820490908304860E971E909231
:1012F0008304809282044BE050E068E070E089E073
:1013000093E00E94BC05A7019601240D351D461DE2
:10131000571D5695479537952795DC010E94190C66
:101320002090800430908104261A370A309281047C
:101330002092800447E050E065E070E085EF91E0A6
:101340000E94BC05DC01A70196010E94190CA09027
:101350007E04B0907F04A61AB70AB0927F04A092D0
:101360007E0446E050E064E070E081E091E00E949D
:10137000BC05DC01A30192010E94190C60907C0461
:1013800070907D04661A770A70927D0460927C04E6
:101390000CE7E02E01E0F02E670196E08AE0E2E043
:1013A000D601EC9311969C93119712968C93F3E0CF
:1013B000CF0ED11C2CE734E02C153D0581F78DE2D2
:1013C00091E00E94DC008C0142E866E48AE090E053
:1013D0000E946905582E40E05EE060E07BE083E01B
:1013E00090E00E94D305119501951109252DAC01BE
:1013F000B40185E095E00E94EC0581E991E00E944E
:10140000DC008C0140E568E281E190E00E94690522
:10141000982E40E059E060E076E084E090E00E94A1
:10142000D305292DAC01B10185ED94E00E94EC05B6
:1014300087EF91E00E94DC008C0146E26AE089E0DF
:1014400090E00E946905119501951109282F40E04F
:1014500056E0B50185EA94E00E94EC0589E592E04A
:101460000E94DC008C014CE16AE088E090E00E9480
:101470006905282F40E055E0B30185EA94E00E9419
:10148000EC0541E467E389E090E00E946905982E4D
:1014900080E097E00E94DC00B92E0CE711E084E1C7
:1014A000882E95E5A92E8B2D0E944905382F582DA1
:1014B000359F030E30E0311D1124832F890D97E0F5
:1014C000B90ED8012C913A2D239F020E20E0211D48
:1014D00011964C91439F040E40E0411DF80132816A
:1014E0005A2D359F030E30E0311D240F230F112498
:1014F000821790F4281B322F320F08F43FEF432F4E
:10150000430F08F44FEF29833A834B83BE016F5F8B
:101510007F4FC8010E9431050D5F1F4F0C151D053F
:1015200009F0C1CF31E948ECD70112962C911297FE
:10153000239F020E20E0211D1124F7012283218127
:10154000249F020E20E0211D112411962C93119747
:101550008C91823010F4E2E0EC93D70111968C91DB
:101560001197853018F4E5E01196EC93D7011296A7
:101570008C911297873018F4E7E01296EC93F3E021
:10158000EF0EF11CE016F10679F6F09098048091C8
:101590009B0490919C04A0919D04B0919E04892B82
:1015A0008A2B8B2BD9F00E94AB000091780110910F
:1015B000790120917A0130917B01601B710B820BC4
:1015C000930B00919B0410919C0420919D043091F9
:1015D0009E046017710782079307C8F20E94AB0050
:1015E000609378017093790180937A0190937B01E5
:1015F000E091A304F091A404309759F040919F0426
:101600005091A0046091A1047091A2048F2D0995BE
:10161000F82E00917601109177018F2C912CB12C2E
:10162000A12C0115110509F45DC0D8011C96EC90A0
:101630001C978091990490919A048436910510F436
:101640001C961C92D801ED91FC9142805380198226
:101650001A821B82FF2099F16801B6E0CB0ED11CE3
:10166000F0E0E0E0D6012D916D01222321F11296E8
:101670007C90772001F130E050E040E02F5F3F4F59
:101680004F4F5F4FC501B4010E94BD0B9B01AC01E0
:10169000872D90E0B0E0A0E0BC01CD016F5F7F4FEF
:1016A0008F4F9F4F0E94BD0BA1E0B0E0AC0FBD1F5C
:1016B000AE0FBF1F8C933196E330F10599F6F80118
:1016C00045855685628173819E012F5F3F4FC8011A
:1016D000F2010995D8011C96EC921C9714960D9175
:1016E0001C919FCF80917401909175018C010F5FC7
:1016F0001F4F10937501009374014997B4F10E9434
:10170000D000C0907001D0907101E0907201F09013
:1017100073019B01AC012C193D094E095F0921F4AD
:1017200021E030E040E050E0E8EEF3E00E9FB00151
:101730000F9F700D1E9F700D1124072E000C880B3B
:10174000990B0E94E10B30939A0420939904109214
:101750007501109274010E94D00060937001709323
:101760007101809372019093730120E030E0232B8C
:1017700009F42BCD0E94000028CDDB018F939F93AD
:101780000E94190CBF91AF91A29F800D911DA39F44
:10179000900DB29F900D1124089597FB072E16F41B
:1017A000009407D077FD09D00E94240C07FC05D0D7
:1017B0003EF4909581959F4F0895709561957F4F68
:1017C0000895A1E21A2EAA1BBB1BFD010DC0AA1F82
:1017D000BB1FEE1FFF1FA217B307E407F50720F09A
:1017E000A21BB30BE40BF50B661F771F881F991F15
:1017F0001A9469F760957095809590959B01AC015E
:10180000BD01CF010895A29FB001B39FC001A39F66
:10181000700D811D1124911DB29F700D811D112429
:10182000911D08950E94030CB7FF0895821B930B2E
:1018300008950E94030CA59F900DB49F900DA49F46
:10184000800D911D11240895AA1BBB1B51E107C0F7
:10185000AA1FBB1FA617B70710F0A61BB70B881F40
:10186000991F5A95A9F780959095BC01CD010895CF
:10187000EE0FFF1F0590F491E02D099481E090E0B8
:0A188000F8940C94430CF894FFCF89
:10188A0000003100F9183000FB302C001C472600FC
:10189A00825A1F006D6A170041760E00897D040086
:1018AA003131295A1B750A00000000B206B206B28D
:1018BA00060D050905060500000000C3047F047D26
:0A18CA00040D050905A8002A02001C
:00000001FF
