:100000000C9449050C9471050C9471050C947105C0
:100010000C9471050C9471050C9471050C94710588
:100020000C9471050C9471050C9471050C94710578
:100030000C9471050C9471050C9471050C94710568
:100040000C94A9180C9471050C9477180C94511801
:100050000C9471050C9471050C9471050C94710548
:100060000C94F3180C94710500000000003E5B4FE7
:100070005B3E3E6B4F6B3E1C3E7C3E1C183C7E3C08
:10008000181C577D571C1C5E7F5E1C00183C180016
:10009000FFE7C3E7FF0018241800FFE7DBE7FF30A6
:1000A000483A060E2629792926407F050507407F14
:1000B00005253F5A3CE73C5A7F3E1C1C08081C1C87
:1000C0003E7F14227F22145F5F005F5F06097F017D
:1000D0007F006689956A606060606094A2FFA29468
:1000E00008047E040810207E201008082A1C080836
:1000F0001C2A08081E101010100C1E0C1E0C303884
:100100003E3830060E3E0E06000000000000005F84
:1001100000000007000700147F147F14242A7F2AA0
:100120001223130864623649562050000807030062
:10013000001C2241000041221C002A1C7F1C2A08AE
:10014000083E080800807030000808080808000011
:1001500060600020100804023E5149453E00427F85
:10016000400072494949462141494D331814127FD4
:100170001027454545393C4A494931412111090774
:100180003649494936464949291E000014000000F5
:1001900040340000000814224114141414140041C7
:1001A00022140802015909063E415D594E7C121184
:1001B000127C7F494949363E414141227F414141BC
:1001C0003E7F494949417F090909013E4141517337
:1001D0007F0808087F00417F41002040413F017FA8
:1001E000081422417F404040407F021C027F7F0470
:1001F00008107F3E4141413E7F090909063E4151B9
:10020000215E7F09192946264949493203017F01A8
:10021000033F4040403F1F2040201F3F4038403FA9
:10022000631408146303047804036159494D4300BF
:100230007F4141410204081020004141417F0402F6
:10024000010204404040404000030708002054548D
:1002500078407F284444383844444428384444286B
:100260007F385454541800087E090218A4A49C78BE
:100270007F0804047800447D40002040403D007F1A
:100280001028440000417F40007C047804787C08FA
:100290000404783844444438FC18242418182424CE
:1002A00018FC7C08040408485454542404043F44B3
:1002B000243C4040207C1C2040201C3C4030403CE2
:1002C00044281028444C9090907C4464544C440042
:1002D00008364100000077000000413608000201A6
:1002E0000204023C2623263C1EA1A161123A404092
:1002F000207A38545455592155557941225454780F
:1003000042215554784020545579400C1E527212A7
:100310003955555559395454545939555454580030
:1003200000457C410002457D420001457C407D1234
:1003300011127DF0282528F07C5455450020545496
:100340007C547C0A097F4932494949323A44444441
:100350003A324A4848303A4141217A3A424020787C
:10036000009DA0A07D3D4242423D3D4040403D3C7D
:1003700024FF2424487E4943662B2FFC2F2BFF09A2
:1003800029F620C0887E0903205454794100004496
:100390007D413048484A32384040227A007A0A0A81
:1003A000727D0D19317D2629292F282629292926F4
:1003B00030484D4020380808080808080808382F39
:1003C00010C8ACBA2F102834FA00007B00000814C3
:1003D0002A142222142A14085500550055AA55AA99
:1003E00055AAFF55FF55FF000000FF00101010FF39
:1003F00000141414FF001010FF00FF1010F010F094
:10040000141414FC001414F700FF0000FF00FF1484
:1004100014F404FC141417101F10101F101F1414D0
:10042000141F00101010F0000000001F101010101A
:100430001F10101010F010000000FF10101010100E
:1004400010101010FF10000000FF140000FF00FF4C
:1004500000001F10170000FC04F4141417101714E8
:1004600014F404F40000FF00F7141414141414140A
:10047000F700F7141414171410101F101F1414147D
:10048000F4141010F010F000001F101F0000001FE7
:1004900014000000FC140000F010F01010FF10FF1A
:1004A000141414FF141010101F00000000F010FFAF
:1004B000FFFFFFFFF0F0F0F0F0FFFFFF0000000093
:1004C00000FFFF0F0F0F0F0F3844443844FC4A4A17
:1004D0004A347E02020606027E027E0263554941CC
:1004E000633844443C04407E201E2006027E020203
:1004F00099A5E7A5991C2A492A1C4C7201724C3017
:100500004A4D4D303048784830BC625A463D3E49ED
:100510004949007E0101017E2A2A2A2A2A44445F91
:10052000444440514A444040444A51400000FF0185
:1005300003E080FF000008086B6B08361236243693
:10054000060F090F060000181800000010100030F8
:1005500040FF0101001F01011E00191D1712003C80
:100560003C3C3C0000000000000103070F1F3F7FE0
:100570000080C0E0F0F8FCFE00000000240027002E
:100580002A00000000080002010000030407000028
:10059000000000000000DB40A4A62EAF2000A1C890
:1005A000D300408DAED580A8010204081020408001
:1005B00001020408102001020408102000000000BD
:1005C000250028002B00040404040404040402028F
:1005D00002020202030303030303000060000000A1
:1005E0000000000000000000000000E0000000002B
:1005F00000000000000000000001E000000000001A
:10060000000000000000000001F0000000000000F9
:100610000000000000000003F000000000000000E7
:1006200000000000000007F00000000000000000D3
:10063000000000000007F8000000000000000000BB
:10064000000000000FF800000003C0007E00000161
:10065000E0007F0FF800000003C000FE000001E092
:1006600000FFEFF800000003C000FE000001E00002
:10067000FFFFF800000003C000F00000000F007F43
:10068000FE7FC0000003C000F00000000F003FFE2E
:100690007FF83FF1FBCFFCFEF3BC3DEFE01FFE7F98
:1006A000FF7FFBFFDFFEFEFFBC3DEFE01FC6FFFF4D
:1006B0007FFBFFDFFEFEFFBC3DEFE00FE3C7FE78F0
:1006C0007BC3DE1EF0FFBC3DEF0007FF87FC787B9D
:1006D000C3DE1EF0F83C3DEF0001FFFFF0007BC3DE
:1006E000C01EF0F03C3DEF0001F37FE03FFBC3CFC5
:1006F000FEF0F03C3DEF0003E33F807FFBC3DFFEF5
:10070000F0F03C3DEF0007E73C00787BC3DE1EF0D5
:10071000F03C3DEF0007FFBE00787BC3DE1EF0F02B
:100720003C3DEF0007FFFE00787BC3DE1EF0F03C8F
:100730003DEF000FFFFE007FFBFFDFFEF0F03FFD0F
:10074000EFE00FFFFF007FFBFFDFFEF0F03FFDEF6C
:10075000E00FF9FF003E79F9CF9EF0F01F3DE7E092
:100760001FF1FF0000000000000000000000001F5B
:1007700080FF007FFFFFFFFFFFFFFFFFFFE01C0088
:100780007F007FFFFFFFFEB46D888D18E000001F23
:10079000007FFFFFFFFE95AD7DB577E000000F0005
:1007A0007FFFFFFFFEA5AD9D8D19E0000006007FD5
:1007B000FFFFFFFEB5ADEDB57EE0000000000001DB
:1007C0008000000000000000000003800000000026
:1007D000000000000007C000000000000000000052
:1007E00007C00000000000000000000FC000000073
:1007F0000000000000001FE00000000000000000FA
:10080000001FE00000000000000000003FE00000CA
:10081000000000000000003FF000000000000000A9
:1008200000007FF0000000000000001FF87FF000D3
:100830000000000000003FFE7FF00000000000000C
:10084000003FFF7FF0000000000000001FFFFBE002
:10085000000000000000000FFFF9FFC000000000D2
:1008600000000FFFF9FFF800000000000007FFF193
:10087000FFFF00000000000003FC73FFFF8000008A
:1008800000000001FE3FFFFF80000000000000FFAD
:100890001E0FFF000000000000007FFE1FFC000094
:1008A00000000000003FFFFFF80000000000000013
:1008B0000FDFFFE0000000000000001F19FFC00074
:1008C0000000000000003F3CFF00000000000000AE
:1008D000007E7CF800000000000000007FFE7C002D
:1008E00000000000000000FFFFFC0000000000000E
:1008F0000000FFFFFE0000000000000000FFFFFE00
:100900000000000000000001FFEFFE0000000000FA
:10091000000001FFCFFE0000000000000003FF0701
:10092000FE0000000000000003FC07FE00000000C5
:1009300000000003F003FE00000000000000018042
:1009400000FE000000000000000000007E0000002B
:10095000000000000000003E000000000000000059
:1009600000000C000000000000078000FC000003F5
:10097000C0000000078001FC000003C00000000769
:100980008001FC000003C0000000078001E00000BF
:10099000001E000000078001E00000001E007FE351
:1009A000F79FF9FDE7787BDFC0FFF7FFBFFDFDFF95
:1009B000787BDFC0FFF7FFBFFDFDFF787BDFC0F076
:1009C000F787BC3DE1FF787BDE00F0F787BC3DE1B7
:1009D000F0787BDE0000F787803DE1E0787BDE0089
:1009E0007FF7879FFDE1E0787BDE00FFF787BFFDA3
:1009F000E1E0787BDE00F0F787BC3DE1E0787BDE6C
:100A000000F0F787BC3DE1E0787BDE00F0F787BCC3
:100A10003DE1E0787BDE00FFF7FFBFFDE1E07FFB1B
:100A2000DFC0FFF7FFBFFDE1E07FFBDFC07CF3F33A
:100A30009F3DE1E03E7BCFC00000000000000000D1
:100A4000000000FFFFFFFFFFFFFFFFFFFFC0FFFFF2
:100A5000FFFFFD68DB111A31C0FFFFFFFFFD2B5ABE
:100A6000FB6AEFC0FFFFFFFFFD4B5B3B1A33C0FF8C
:100A7000FFFFFFFD6B5BDB6AFDC048656C6C6F2C94
:100A800020576F6B776921002200FF210000121AA6
:100A9000452011241FBECFEFD8E0DEBFCDBF11E04F
:100AA000A0E0B1E0E6E2F4E402C005900D92A838BF
:100AB000B107D9F724E0A8E8B1E001C01D92AB3638
:100AC000B207E1F715E0C8E4D5E004C02197FE01C4
:100AD0000E94C020C734D107C9F70E94A71A0C94FE
:100AE00006220C94000008950895089580E991E08D
:100AF0000895AF92BF92CF92DF92EF92FF920F9341
:100B00001F93CF93DF936C017B018B01040F151FA3
:100B1000EB015E01AE18BF08C017D10759F069910B
:100B2000D601ED91FC910190F081E02DC60109956F
:100B3000892B79F7C501DF91CF911F910F91FF901C
:100B4000EF90DF90CF90BF90AF900895FC01538D50
:100B5000448D252F30E0842F90E0821B930B541797
:100B600010F0CF96089501970895FC01918D828D24
:100B7000981761F0A28DAE0FBF2FB11D5D968C91BD
:100B8000928D9F5F9F73928F90E008958FEF9FEFFC
:100B90000895FC01918D828D981731F0828DE80FB8
:100BA000F11D858D90E008958FEF9FEF0895FC0172
:100BB000918D228D892F90E0805C9F4F821B91093F
:100BC0008F739927089581E793E00E94D70521E06C
:100BD000892B09F420E0822F089580E090E0892B92
:100BE00029F00E94E30581110C9400000895FC0196
:100BF000A48DA80FB92FB11DA35ABF4F2C91848D7E
:100C000090E001968F739927848FA689B7892C93DA
:100C1000A089B1898C91837080648C93938D848D2D
:100C2000981306C00288F389E02D80818F7D808330
:100C30000895EF92FF920F931F93CF93DF93EC01F0
:100C400081E0888F9B8D8C8D98131AC0E889F98973
:100C5000808185FF15C09FB7F894EE89FF89608376
:100C6000E889F98980818370806480839FBF81E0F7
:100C700090E0DF91CF911F910F91FF90EF90089539
:100C8000F62E0B8D10E00F5F1F4F0F731127E02E14
:100C90008C8D8E110CC00FB607FCFACFE889F9894C
:100CA000808185FFF5CFCE010E94F705F1CFEB8D56
:100CB000EC0FFD2FF11DE35AFF4FF0829FB7F89420
:100CC0000B8FEA89FB8980818062CFCFCF93DF933E
:100CD000EC01888D8823B9F0AA89BB89E889F98954
:100CE0008C9185FD03C0808186FD0DC00FB607FC89
:100CF000F7CF8C9185FFF2CF808185FFEDCFCE01BC
:100D00000E94F705E9CFDF91CF91089590E0FC01B3
:100D1000EE57FA4F2491FC01E855FA4F3491FC014B
:100D2000EA53FA4FE491EE23C9F0222339F023303D
:100D300001F1A8F4213019F1223029F1F0E0EE0F91
:100D4000FF1FE454FA4FA591B4918FB7F894EC913A
:100D5000611126C030953E233C938FBF0895273004
:100D6000A9F02830C9F0243049F7809180008F7DA8
:100D700003C0809180008F7780938000DFCF84B59F
:100D80008F7784BDDBCF84B58F7DFBCF8091B000A2
:100D90008F778093B000D2CF8091B0008F7DF9CF54
:100DA0003E2BDACFCF93DF9390E0FC01E855FA4F6A
:100DB00024918A539A4FFC0184918823D1F090E0CA
:100DC000880F991FFC01E858FA4FA591B491FC01D6
:100DD000E454FA4FC591D49161110EC09FB7F894B5
:100DE0008C91E22FE0958E238C932881E223E88377
:100DF0009FBFDF91CF9108958FB7F894EC91E22BCC
:100E0000EC938FBFF6CF3FB7F8948091400290915A
:100E10004102A0914202B091430226B5A89B05C0B1
:100E20002F3F19F00196A11DB11D3FBFBA2FA92F69
:100E3000982F8827BC01CD01620F711D811D911D66
:100E400042E0660F771F881F991F4A95D1F70895D2
:100E50008F929F92AF92BF92CF92DF92EF92FF92CA
:100E60004B015C010E9403076B017C010E94030798
:100E70006C197D098E099F09683E734081059105B3
:100E8000A8F321E0821A9108A108B10888EEC80EE3
:100E900083E0D81EE11CF11C81149104A104B1046B
:100EA00029F7FF90EF90DF90CF90BF90AF909F9089
:100EB0008F9008952FB7F89460913C0270913D0295
:100EC00080913E0290913F022FBF0895EF92FF92D2
:100ED0000F931F93CF93DF93EC01EC80FD806E1591
:100EE0007F050CF070C057FF04C0240F351F50E081
:100EF00040E08E819F81FA01E20FF31F8E179F075A
:100F00001CF49C01241B350B121613060CF05BC05D
:100F1000922F842F8695869586958E9DD0018F9DE4
:100F2000B00D11246A0F7B1FAF8DB8A1A60FB71F9C
:100F3000477049F188E0841B482F682F70E0FB015F
:100F4000E059FA4FE491281708F063C0621B710959
:100F50002FEF30E002C0359527956A95E2F7E2233E
:100F60000130110539F0B0F10230110561F58C91B5
:100F7000E82702C08C91E82BEC93941720F12C8188
:100F80003D81A20FB31FE92FE41BE83078F0023057
:100F9000110521F58E2F9C9190959C932C813D817C
:100FA000A20FB31F88508830B0F7E770EE2359F0D6
:100FB000F0E0E859FA4FE49101301105F9F010F131
:100FC0000230110519F1DF91CF911F910F91FF9020
:100FD000EF900895E0958C91E823CECF81E0011544
:100FE000110509F480E081959E2F8C932C813D8121
:100FF000A20FB31F98509830C0F7D7CF8C91E82B31
:10100000EC93E1CFE0958C91E823FACF8C91E8271F
:10101000F7CF0130110509F4ADCFE0F20230110530
:1010200009F4A5CFAE0DBF1DAECF0F931F93CF9385
:10103000DF9377FF04C0260F371F70E060E0DC010C
:101040001496CD91DC91FB01E20FF31FCE17DF0761
:101050001CF49E01261B370B121613064CF5FA01E1
:1010600057FD3796A3E0F595E795AA95E1F7EC9F34
:10107000D001ED9FB00DFC9FB00D11246A0F7B1FB6
:10108000DC015F96ED91FC91E60FF71F4770552745
:1010900081E090E001C0880F4A95EAF7482F0130BF
:1010A000110559F0A8F02E0F3F1F02301105E1F095
:1010B000DF91CF911F910F9108952E0F3F1FE217DF
:1010C000F307B1F38191DF011197842B8C93F7CF54
:1010D00080952E0F3F1FE217F30751F39191DF0127
:1010E000119798239C93F7CFE217F30709F38191A7
:1010F000DF01119784278C93F7CF0F931F93FA0189
:10110000DC0156964C9156974230E9F04330A1F1FC
:10111000413061F514964D915C91DA01AE1BBF0B25
:10112000FD01E21BF30B77FD0BC0DC0116964D9120
:101130005C916417750724F4AB01BF010E94150888
:101140001F910F91089514964D915C91DA01A61BA1
:10115000B70BBD0161507109DC0116964D915C9190
:10116000DA01AE1BBF0BFD01E21BF30B77FDE8CFED
:10117000AF010E946607E4CF16964D915C91DA01AB
:10118000A61BB70BBD0161507109CDCF0F931F9303
:10119000FA01DC0156964C9156974230A9F0433043
:1011A00091F1413019F514964D915C91DA01AE1B25
:1011B000BF0BFD013197F7FD04C0AB01BF010E94D9
:1011C00066071F910F91089514964D915C91DA0175
:1011D000A61BB70BBD01DC0116964D915C91DA019F
:1011E000AE1BBF0BFD013197621B730BF7FDE9CFFF
:1011F000DC0116964D915C91E417F50714F7AF01E9
:101200000E941508DECF16964D915C91DA01A61B5F
:10121000B70BBD01621B730BCECFFC0177FD64C021
:1012200080859185681779070CF05EC057FD5CC01A
:1012300082859385481759070CF056C086898230FD
:10124000B1F0833029F1813041F484819581841B90
:10125000950BAB01BC01615071092130310509F1D9
:1012600008F443C02230310509F463C00895848135
:101270009581DC01A61BB70BBD0161507109868108
:101280009781DC01A41BB50BAD0141505109E5CF9D
:1012900086819781861B970BBA01AC014150510999
:1012A000DCCFCA0157FD0796A3E095958795AA95CF
:1012B000E1F7A481B5818A9F90018B9F300D9A9FA1
:1012C000300D1124620F731F078CF0A1E02DE60F83
:1012D000F71F4770552721E030E001C0220F4A95E3
:1012E000EAF78081822B80830895CA0157FD079613
:1012F00033E0959587953A95E1F7A481B5818A9F6A
:1013000090018B9F300D9A9F300D1124620F731F37
:10131000078CF0A1E02DE60FF71F4770552781E0FD
:1013200090E001C0880F4A95EAF780959081892363
:10133000DACFCA0157FD079623E0959587952A9540
:10134000E1F7A481B5818A9F90018B9F300D9A9F10
:10135000300D1124620F731F078CF0A1E02DE60FF2
:10136000F71F4770552721E030E001C0220F4A9552
:10137000EAF780818227B7CF08958CBD9DBD08957F
:101380000895FC016370668B848195812681378185
:10139000613039F0633029F0918780873387228765
:1013A0000895318720879387828708952F923F92EF
:1013B0004F925F926F927F928F929F92AF92BF9265
:1013C000CF92DF92EF92FF920F931F93CF93DF9311
:1013D000CDB7DEB76A970FB6F894DEBF0FBECDBFAC
:1013E0009A8F898F7A8369834A01D22E18870F8357
:1013F0003701BC2CDC0159962D913C915A9721154F
:10140000310509F015C118968D919C9119976817AF
:1014100079070CF0D7C11A968D919C9148175907FE
:101420000CF0D0C14C2C512CB6E0CB9E600D711D40
:1014300011247C876B87161617060CF0C3C1EA2DA2
:10144000F0E0FA87E98793E0EE0FFF1F9A95E1F746
:10145000F88BEF87CF01840F951F181619060CF033
:10146000B1C1A98DBA8D58968C91811104C0BFEA83
:10147000BD1508F4D394A98DBA8DED91FC91119707
:101480000284F385E02DCD010995B5E0DB9EC00116
:101490001124E981FA81FC83EB83312C212C9C01FE
:1014A00028593F4F388F2F8B4A2D50E05E8B4D8B44
:1014B000EF89F88DE20DF31D44919E828D82D12C2F
:1014C000C12C69817A81620D731D7A8B698B842F9F
:1014D00090E09C8B8B8BE98DFA8DA081B18140FFD0
:1014E00082C0F1E0BF126FC0AF126DC01C96ED91CB
:1014F000FC912F813885A4014C0D5D1D69897A8985
:10150000898D9A8D0995EB89FC89F595E7954E2F84
:101510005FEFC51AD50A6D817E818D899E89680F1E
:10152000791F7E836D8398E0C916D10481F6AFEFF1
:101530002A1A3A0AEB81FC81E40DF51DFC83EB834A
:10154000F5E02F16310409F0B3CF2F813885261529
:101550003705B9F0A98DBA8DED91FC91B1E0BB12C0
:1015600057C0AB1255C069817A816B5F7F4F00888D
:10157000F189E02D830128E030E0A401898D9A8D66
:101580000995A98DBA8DED91FC9111970688F7897F
:10159000E02DCD016A960FB6F894DEBF0FBECDBF29
:1015A000DF91CF911F910F91FF90EF90DF90CF903F
:1015B000BF90AF909F908F907F906F905F904F9073
:1015C0003F902F9009941E96ED91FC91EF80F88446
:1015D00009851A8592014D815E816B817C81898D9F
:1015E0009A8D099590CF2F8138852615370509F4F6
:1015F0008ACF31E0B31207C0A31205C01C96ED914B
:10160000FC91930178CF1E96ED91FC917301E0CF90
:101610006B857C85641975090684F785E02D730157
:101620000F8518899201A401898D9A8D0995A9CFFA
:10163000F90134969491329745915491D91AB7E0B3
:10164000DB9E400D511D1124F901259134913C8BF5
:101650002B8BFA0125903490FA01329674903196D2
:101660003491398B329664903196449041E04C1518
:1016700018F04A1508F07FC0662D062C000C770B79
:101680007C836B83842D042C000C990B9E838D83AB
:10169000A98DBA8DED91FC9111970284F385E02D0F
:1016A000CD010995512CD12CC12CEA2DF0E0FA87FF
:1016B000E9872B2D30E03C872B87A401440D511D79
:1016C00047FC5A95588F4F8B69817A81660D711D41
:1016D00067FC7A957E876D877989C71608F051CFA8
:1016E0002C2D30E04D815E81420F531FA985BA85B4
:1016F0004A9FC0014B9F900D5A9F900D1124FC01F1
:10170000E80DF91DF88BEF87852D612C4F89588DD9
:10171000420F531F5E8B4D8B671408F050C044245A
:101720004394480E877041F4C1010196EB89FC890E
:10173000E20DF31DD4901C01D7FE19C0A98DBA8DFE
:10174000ED91FC91662D70E0B1E0BB1219C0AB12B7
:1017500017C02D853E85620F731F0484F585E02D2B
:101760002F8138854D895E89898D9A8D0995DD0C8B
:101770006394842DD1CF1E821D821C821B8288CF50
:101780004B815C81640F751FAB85BC856A9FC0016E
:101790006B9F900D7A9F900D112469817A81680F5B
:1017A000791F0684F785E02DEF80F88409851A8576
:1017B0009D014F855889898D9A8D0995D8CF570CF1
:1017C000C3948ACF6A960FB6F894DEBF0FBECDBF22
:1017D000DF91CF911F910F91FF90EF90DF90CF900D
:1017E000BF90AF909F908F907F906F905F904F9041
:1017F0003F902F9008958F929F92AF92CF92EF9249
:10180000FF920F931F93CF93DF93EC01262F898DC7
:101810009A8D009709F051C06A30D1F41D861C865C
:101820008D8948E0849F900111248E859F85820FC9
:10183000931F9F878E8781E090E0DF91CF911F916A
:101840000F91FF90EF90CF90AF909F908F90089561
:101850006D3089F3CC88AD888F898823C1F08C8561
:101860009D8536E0C39E800D911D112448855985C4
:101870004817590764F44E855F851D861C8638E03D
:10188000A39EC0011124840F951F9F878E87EA882D
:10189000FB88088919894E855F856C857D85CE0119
:1018A0000E94D6092C898C859D8546E0249F800D59
:1018B000911D11249D878C87BECF6A3069F41D86E7
:1018C0001C86FC013896E4912D898E859F85E29FC8
:1018D000800D911D1124ADCF6D3009F4ACCFFC010A
:1018E00034963491631708F4A6CF3296E491E61744
:1018F00008F4A1CFFC01329685909490462F431BAB
:10190000342F47E0349F800C911C1124F40132964F
:1019100034913196E4913323A9F1EE2399F1CC88E7
:10192000F4013596E491AD884F89442301F10E2EE0
:10193000000CFF0BE30FF11DCE9EA001CF9E500DBA
:1019400011246C857D85460F571F6885798564173E
:1019500075076CF44E855F851D861C86FC013896E4
:10196000E491AE9E400D511D11245F874E87EA8899
:10197000FB88088919894E855F856C857D85CE0138
:101980000E94D609F4013496E4912C898C859D85BA
:10199000E29F800D911D11248DCF6F927F928F92C7
:1019A0009F92AF92BF92CF92DF92EF92FF920F93EE
:1019B0001F93CF93DF93EC016B015A01390148016A
:1019C000E881F9810284F385E02D0995E881F981A8
:1019D0000288F389E02D87019301A501B601CE01AC
:1019E0000995A501480D591D41505109E881F9811A
:1019F0000288F389E02D9301B601CE010995E881B3
:101A0000F9810088F189E02D9401A501B601CE018C
:101A10000995C60CD71CB60161507109E881F9819E
:101A20000088F189E02D9401A501CE010995E88196
:101A3000F9810688F789E02DCE01DF91CF911F91C2
:101A40000F91FF90EF90DF90CF90BF90AF909F905D
:101A50008F907F906F9009946F927F928F929F9258
:101A6000AF92BF92CF92DF92EF92FF920F931F93AC
:101A7000CF93DF935C01EB016A01490138018701D3
:101A8000DC01ED91FC916217730719F56416750678
:101A90002CF0962D872D3A01C92ED82E96012619A5
:101AA00037092F5F3F4F048CF58DE02DA301BE0158
:101AB000C5010995DF91CF911F910F91FF90EF9094
:101AC000DF90CF90BF90AF909F908F907F906F905E
:101AD00008954615570591F42617370724F0892DE8
:101AE0004B01C22FD82F9E01281939092F5F3F4F74
:101AF000068CF78DE02DA601B401DACF0284F385C0
:101B0000E02D0995D501ED91FC910488F589E02D32
:101B100083019401A601BE01C5010995D501ED918E
:101B2000FC910688F789E02DC501DF91CF911F91C7
:101B30000F91FF90EF90DF90CF90BF90AF909F906C
:101B40008F907F906F900994EF92FF920F931F9365
:101B5000DC011A960D911C911B9718962D913C91C2
:101B60001997ED91FC9100A0F1A1E02D7B0150E0CF
:101B700040E070E060E009951F910F91FF90EF90B9
:101B800008954F925F926F927F928F929F92AF9241
:101B9000BF92CF92DF92EF92FF920F931F93CF935A
:101BA000DF936C012B015A0139014801DC01ED91F1
:101BB000FC910284F385E02D0995E201640C751C0B
:101BC000D601ED91FC91C615D7055CF40088F1892A
:101BD000E02D87019401A501BE01C601099521965A
:101BE000EFCF0688F789E02DC601DF91CF911F91D5
:101BF0000F91FF90EF90DF90CF90BF90AF909F90AC
:101C00008F907F906F905F904F9009948F929F92EA
:101C1000AF92BF92CF92DF92EF92FF920F931F93FA
:101C2000CF93DF93EC015B014A016901E881F981FF
:101C30000284F385E02D099595012C0D3D1D215061
:101C40003109E881F9810488F589E02D7801840162
:101C5000A401B501CE010995E881F9810688F789CB
:101C6000E02DCE01DF91CF911F910F91FF90EF906A
:101C7000DF90CF90BF90AF909F908F9009948F92FC
:101C80009F92AF92BF92CF92DF92EF92FF920F930B
:101C90001F93CF93DF93EC015B014A016901780147
:101CA000E881F9810284F385E02D0995C80CD91CDF
:101CB000860101501109E881F9810488F589E02D38
:101CC0009501A401B501CE010995E881F981068845
:101CD000F789E02DCE01DF91CF911F910F91FF90F9
:101CE000EF90DF90CF90BF90AF909F908F9009942E
:101CF000EF92FF920F931F93DC01ED91FC9100A0F6
:101D0000F1A1E02D09951F910F91FF90EF9008959B
:101D10000F931F93DC01ED91FC91068CF78DE02D64
:101D200009951F910F9108950F931F93DC01ED9179
:101D3000FC91048CF58DE02D09951F910F9108956C
:101D4000DC01ED91FC910084F185E02D09943F9236
:101D50004F925F926F927F928F929F92AF92BF92BB
:101D6000CF92DF92EF92FF920F931F93CF93DF9367
:101D70005C017B014A016901390187E0680E711C31
:101D800093E0759467949A95E1F72B01400E511EEC
:101D900010E000E0312CD0E0C0E0CE018770992740
:101DA000330C892B59F4FE0183E0F595E7958A956C
:101DB000E1F7E00FF11FE80DF91D349037FE0AC07E
:101DC00021E030E0A701B5016C0F7D1F87E294E0B0
:101DD0000E94A00E2196CC16DD06F9F68FEFE81AC8
:101DE000F80A060D171DE414F504A9F6DF91CF914A
:101DF0001F910F91FF90EF90DF90CF90BF90AF9029
:101E00009F908F907F906F905F904F903F9008953C
:101E10002F923F924F925F926F927F928F929F92FA
:101E2000AF92BF92CF92DF92EF92FF920F931F93E8
:101E3000CF93DF9300D000D000D0CDB7DEB73C0108
:101E40006A013E832D83FC82EB825801A41AB50AF5
:101E5000B7FE03C0B194A194B1088D809E80861A0C
:101E6000970A97FE03C09194819491088A149B0469
:101E70005CF0902F812F0D811E819D838E839C2D80
:101E80008D2D6B01692F782F0C151D055CF09D8140
:101E90008E817E836D83692F782F902F812F86010D
:101EA000C92ED82E1601201A310A2B012D813E8110
:101EB000421A530A57FE03C05194419451087101CC
:101EC00037FE03C03FEFE31AF30AF594E7948D81E0
:101ED0009E81861797075CF5A1E0B0E0BA83A983DD
:101EE000C016D1064CF1D301ED91FC910484F58527
:101EF000E02D2B813C81A8016D817E818A149B0499
:101F00001CF04D815E81B801C3010995E418F50804
:101F1000F7FE0AC02D813E8189819A81280F391FE1
:101F20003E832D83E20CF31C0F5F1F4FD9CF2FEFA1
:101F30003FEF3A832983D4CF26960FB6F894DEBFBD
:101F40000FBECDBFDF91CF911F910F91FF90EF900A
:101F5000DF90CF90BF90AF909F908F907F906F90C9
:101F60005F904F903F902F90089508952091F10138
:101F7000260F3327331F21323105ECF4209115024F
:101F8000FC0190E080E0243069F082E00895A091A7
:101F9000F1012191AC014F525E4FA40FB52FB11D3D
:101FA0002C930196861798F38091F101680F609346
:101FB000F10180E0089581E008951092150281E01A
:101FC000809317021092160261E082E10E94860659
:101FD00061E083E10E948606E9EBF0E080818E7F7C
:101FE000808380818D7F808388E48093B80085E43E
:101FF0008093BC000895CF93DF9391E09093D0013C
:102000008823B9F0C091B800D091BA008091BC008B
:102010008A7B8093BC0060E082E10E94860660E0DB
:1020200083E10E9486060E94DD0FD093BA00C09320
:10203000B800DF91CF910895E0916402809163022E
:10204000E81730F4F0E0E555FE4F808190E0089508
:102050008FEF9FEF089590916402809163022FEFBC
:102060003FEF981748F4E92FF0E0E555FE4F208147
:1020700030E09F5F90936402C901089580916302EC
:1020800090916402891B990B0895CF92DF92EF9291
:10209000FF920F931F93CF93DF937C01CB018A01B3
:1020A00020917003222389F0EB016B01C40ED51E31
:1020B000CC15DD0569F06991D701ED91FC91019096
:1020C000F081E02DC7010995F3CF642F0E94B60F70
:1020D000C801DF91CF911F910F91FF90EF90DF909A
:1020E000CF900895CF93DF931F92CDB7DEB769836A
:1020F000209170032223F9F020916D03203258F0D3
:1021000021E030E0FC013383228390E080E00F90F7
:10211000DF91CF91089580916E03E82FF0E0E557AD
:10212000FE4F998190838F5F80936E0380936D0340
:1021300081E090E0ECCF61E0CE0101960E94B60F05
:10214000F7CFCF92DF92EF92FF920F931F93CF932F
:10215000DF93D0916D0381E0D13208F09CC0C09133
:102160006F030E9403076B017C01809115028111AE
:102170006CC082E08093150281E0809317028FEF9C
:102180008093140210923902D0933802ABE8B1E088
:10219000E8E1F2E080E0D8138DC010923A0280911D
:1021A0003A02CC0FC82BC0933A02809116028130BC
:1021B00009F084C0109216020E9403076B017C0193
:1021C00080913A028093BB008091CC019091CD0127
:1021D000A091CE01B091CF01892B8A2B8B2BA1F03E
:1021E0000E9403070091CC011091CD012091CE01F6
:1021F0003091CF016C197D098E099F0906171707C9
:102200002807390708F442C08091BC0083FDD8CF6D
:1022100085EC8093BC000E9403076B017C018091D8
:102220001502823009F44CC0809114028F3F09F4EA
:1022300069C080911402803209F466C08091140252
:10224000803309F463C084E026C08091CC01909172
:10225000CD01A091CE01B091CF01892B8A2B8B2B80
:1022600009F483CF0E9403070091CC011091CD01A6
:102270002091CE013091CF016C197D098E099F0903
:10228000061717072807390708F06FCF8091CB0191
:102290000E94FB0F85E010926E0310926D03109266
:1022A0007003DF91CF911F910F91FF90EF90DF901E
:1022B000CF9008959D9191938F5F6DCF85EEA9CFBB
:1022C0008091CC019091CD01A091CE01B091CF0130
:1022D000892B8A2B8B2B09F4A2CF0E940307009134
:1022E000CC011091CD012091CE013091CF016C191C
:1022F0007D098E099F09061717072807390708F077
:102300008ECFC4CF80E0C7CF82E0C5CF83E0C3CFFC
:1023100090E080E00895CF93CFB7F89480918A0140
:10232000811127C0E0EDF5E08491E2EBF5E09491B6
:10233000E82FF0E0EE0FFF1FE858FA4FA591B49197
:10234000EC91E92321F461E08AE00E94860661E0D5
:102350008AE00E94D2068CB580618CBD8CB5806409
:102360008CBD61E08DE00E94D20661E08BE00E94AE
:10237000D20680918A018F5F80938A01CFBFCF916F
:1023800008950F931F93CF93DF93209189012F5FBF
:10239000322F37703093890120FF2BC020E831FDA8
:1023A0002064347009F02062205FFC01EC01239668
:1023B00000E011E06485662329F070E0C8010E9406
:1023C00078206F5F6187322F369F030E30E0311D1A
:1023D0001124311110C01682662311F061506187FB
:1023E0003196EC17FD0731F7DF91CF911F910F91D7
:1023F000089520E0D4CF31503683EECF4F925F92D4
:102400006F927F928F92AF92BF92CF92DF92EF92B4
:102410000F931F93CF93DF933C01EB010E940307BF
:10242000F30127853089621B730B6A307105B0F3A5
:10243000F894E881F9817BB178606BB1677F6BB903
:10244000CA848F812C2D281B822F2F83BF844A8022
:102450005B801D850C85DE841F5F0F5FD3949E819A
:102460003885A984EB844181D20120E0C32F522F0B
:10247000322F3181442788943111380F08F43FEF0F
:102480008195889410FD430F4795889411FD430F63
:102490004795889412FD430F4795889413FD430F89
:1024A0004795889414FD430F4795889415FD430F75
:1024B0004795889416FD430F4795889417FD430F61
:1024C00047958894232F1111242F8C0D422F002C17
:1024D0007BB900C047FF6BB930812227889400C0C8
:1024E00000C0002C6BB93111390F00C0002C7BB932
:1024F00000C046FF6BB908F43FEF9195889400C087
:1025000000C0002C6BB900FD230F00C0002C7BB96C
:1025100000C045FF6BB92795889401FD230F00C0CB
:1025200000C0002C6BB92795889400C0002C7BB9A3
:1025300000C044FF6BB902FD230F2795889400C0AB
:1025400000C0002C6BB903FD230F00C0002C7BB929
:1025500000C043FF6BB92795889404FD230F00C08A
:1025600000C0002C6BB92795889400C0002C7BB963
:1025700000C042FF6BB905FD230F2795889400C06A
:1025800000C0002C6BB906FD230F00C0002C7BB9E6
:1025900000C041FF6BB92795889407FD230F00C049
:1025A00000C0002C6BB92795889400C0002C7BB923
:1025B00000C040FF6BB9432F0111422F9A0D00C09C
:1025C00000C0002C6BB900C000C0002C7BB900C05B
:1025D00047FF6BB932812227889400C000C0002CCD
:1025E0006BB931113C0F00C0002C7BB900C046FF15
:1025F0006BB908F43FEFEB0DF11D00C000C0002CDB
:102600006BB9D0FC230F00C0002C7BB900C045FF84
:102610006BB927958894D1FC230F00C000C0002C13
:102620006BB92795889400C0002C7BB900C044FF8B
:102630006BB9D2FC230F2795889400C000C0002CF2
:102640006BB9D3FC230F00C0002C7BB900C043FF43
:102650006BB927958894D4FC230F00C000C0002CD0
:102660006BB92795889400C0002C7BB900C042FF4D
:102670006BB9D5FC230F2795889400C000C0002CAF
:102680006BB9D6FC230F00C0002C7BB900C041FF02
:102690006BB927958894D7FC230F00C000C0002C8D
:1026A0006BB92795889400C0002C7BB900C040FF0F
:1026B0006BB9432FD110422FC19500C000C0002C30
:1026C0006BB9CE0D00C000C07BB900C047FF6BB92D
:1026D00031812227889400C000C0002C6BB93111D1
:1026E000380F00C0002C7BB900C046FF6BB908F45E
:1026F0003FEF8195889400C000C0002C6BB910FD9D
:10270000230F00C0002C7BB900C045FF6BB9279593
:10271000889411FD230F00C000C0002C6BB92795D1
:10272000889400C0002C7BB900C044FF6BB912FD37
:10273000230F2795889400C000C0002C6BB913FDAF
:10274000230F00C0002C7BB900C043FF6BB9279555
:10275000889414FD230F00C000C0002C6BB927958E
:10276000889400C0002C7BB900C042FF6BB915FDF6
:10277000230F2795889400C000C0002C6BB916FD6C
:10278000230F00C0002C7BB900C041FF6BB9279517
:10279000889417FD230F00C000C0002C6BB927954B
:1027A000889400C0002C7BB900C040FF6BB9432F58
:1027B0001111422F8C0D00C000C0002C6BB9119775
:1027C00009F086CE20EE31E0D2010E94AE20DC017D
:1027D000CB01F4E0B695A79597958795FA95D1F733
:1027E00030E020E0B901EAE94E9E040C611D5E9ED6
:1027F000600D711D1124650D711D860F971FA11DA0
:10280000B11D893E43E09407A105B10508F434C029
:10281000885E9340A109B10942E0B695A7959795C6
:1028200087954A95D1F747E0849F080E211D949F14
:10283000200D311D1124290F311D6091880170E098
:10284000860F971F820F931F40913C0250913D02CB
:1028500060913E0270913F02292F3327420F531F90
:10286000611D711D40933C0250933D0260933E02F6
:1028700070933F028093880178940E940307F301CC
:10288000708B6787DF91CF911F910F91EF90DF9051
:10289000CF90BF90AF908F907F906F905F904F9050
:1028A0000895539A08950F931F93CF93DF93CDB755
:1028B000DEB762970FB6F894DEBF0FBECDBF8C01B6
:1028C000F901DC011C968C917A8369835C834B83CC
:1028D0005E834D8390819D8791819E8792819F87A2
:1028E0008130F1F4CE0101960E94C11183E0888B02
:1028F0001A8A198AD801ED91FC910484F585E02D9E
:10290000BE016F5F7F4FC801099562960FB6F894BC
:10291000DEBF0FBECDBFDF91CF911F910F91089504
:102920001C861B861A86198618861F82DFCF0F9396
:102930001F93CF93DF93CDB7DEB762970FB6F894AE
:10294000DEBF0FBECDBF8C01F901DC011C968C915E
:102950007A8369835C834B835E834D8390819D87FB
:1029600091819E8792819F878130E9F4CE01019603
:102970000E94C111188A1A8A198AD801ED91FC9116
:102980000484F585E02DBE016F5F7F4FC801099576
:1029900062960FB6F894DEBF0FBECDBFDF91CF9128
:1029A0001F910F9108951C861B861A86198618861A
:1029B0001F82E0CF90E080E00895FC018585968538
:1029C0000895CF93DF9300D000D000D0CDB7DEB70D
:1029D000AB011C821D821E82DC01ED91FC910190F5
:1029E000F081E02D19821A821B829E012F5F3F4FDA
:1029F000BE016C5F7F4F099526960FB6F894DEBF37
:102A00000FBECDBFDF91CF9108958EBD00000DB4F4
:102A100007FEFDCF8EB50895FF920F931F93CF93BE
:102A2000DF93F82ED92FC62F80914404909145044E
:102A3000009709F452C02091480431E030937003AC
:102A400020936F0310926E0310926D03DC01ED91E1
:102A5000FC910190F081E02D60E009950F2D1D2F74
:102A6000D1E0FF24F394C150809144049091450437
:102A7000CF3F61F1D032C8F00E94A1108091440490
:102A80009091450420914804F092700320936F03C5
:102A900010926E0310926D03DC01ED91FC91019098
:102AA000F081E02D60E00995D1E08091440490919F
:102AB0004504F8016491DC01ED91FC910190F081F5
:102AC000E02D0995DF5F0F5F1F4FCDCFDF91CF91D5
:102AD0001F910F91FF900C94A110E0915404F0917C
:102AE0005504908180915A048095892380830F2D0D
:102AF0001D2FC15008F438C0F80184912091420480
:102B000030914304232B29F00E9405150F5F1F4FBE
:102B1000F0CF28E030E040E8E0915004F09151041B
:102B200090915804582F5423D9F05081952B9083BD
:102B3000E0915204F0915304908150915904952BE7
:102B40009083E0915204F091530450819091590484
:102B5000909595239083469521503109E9F6D6CF7B
:102B6000508190959523E3CFDF91CF911F910F91E5
:102B7000FF9008951F93CF93DF93EC018D8D9E8D71
:102B8000009721F1162F29A131E030937003209393
:102B90006F0310926E0310926D03DC01ED91FC91B6
:102BA0000190F081E02D60E009958D8D9E8DDC0116
:102BB000ED91FC910190F081E02D612F09958D8DB3
:102BC0009E8DDF91CF911F910C94A110ADA5BEA554
:102BD0009C918BA9809589238C938B8D9C8D892BBF
:102BE00031F0862FDF91CF911F910C94051528E0CD
:102BF00030E080E8A9A5BAA599A9462F4823C1F0DD
:102C00004C91942B9C93ABA5BCA59C914AA9942B69
:102C10009C93ABA5BCA54C919AA9909594239C93A9
:102C200086952150310931F7DF91CF911F91089599
:102C30004C9190959423E6CFEF92FF920F931F93C0
:102C4000CF93DF938091440490914504892B09F43C
:102C500093C020915C0430915D0440915E045091DA
:102C60005F0460E074E284EF90E00E948C202051C9
:102C70003109410951095695479537952795209374
:102C8000B80065E088E89AE00E940C1560912B047A
:102C9000615087E294E00E94BA1520912D04309192
:102CA0002E04C901079697FD079623E09595879511
:102CB0002A95E1F720912B0430912C04829F80010A
:102CC000839F100D929F100D1124C0914604D09146
:102CD000470480914404909145040C0F1D1F0097F8
:102CE00009F489C02091480431E0309370032093A7
:102CF0006F0310926E0310926D03DC01ED91FC9155
:102D00000190F081E02D60E40995FF24F394EE2416
:102D1000E39480914404909145040C171D0709F435
:102D200042C0BFE1BF15D0F40E94A11080914404BD
:102D30009091450420914804E092700320936F0322
:102D400010926E0310926D03DC01ED91FC910190E5
:102D5000F081E02D60E40995FF24F3948091440410
:102D6000909145046991DC01ED91FC910190F08115
:102D7000E02D0995F394CDCF8091420490914304C6
:102D8000892B31F080916504909166040E94BD0901
:102D9000E0915604F0915704908180915B048095F6
:102DA000892380836ECF0E94A1108091440490916A
:102DB0004504892B09F460C02091600430916104BE
:102DC000409162045091630460E074E284EF90E00B
:102DD0000E948C202051310941095109569547958F
:102DE000379527952093B800DF91CF911F910F91D0
:102DF000FF90EF900895E0915404F0915504808184
:102E000090915A04892B80830C171D0771F28991C8
:102E10002091420430914304232B19F00E940515A0
:102E2000F3CF28E030E040E8E0915004F091510405
:102E300090915804582F5423D9F05081952B9083AA
:102E4000E0915204F0915304908150915904952BD4
:102E50009083E0915204F091530450819091590471
:102E6000909595239083469521503109E9F6CCCF72
:102E7000508190959523E3CFE0915604F09157044B
:102E8000808190915B04892B8083AECF1F93CF9379
:102E9000DF93EC01162F8D8D9E8D892BB1F12DA91D
:102EA0003EA94FA958AD60E074E284EF90E00E9423
:102EB0008C20205131094109510956954795379584
:102EC00027952093B80066EA111167EACE010E94A7
:102ED000BA158D8D9E8D892B41F129AD3AAD4BAD43
:102EE0005CAD60E074E284EF90E00E948C202051A1
:102EF00031094109510956954795379527952093F2
:102F0000B800DF91CF911F9108958B8D9C8D892BF7
:102F100021F08EAD9FAD0E94BD09EFA5F8A990816B
:102F20008CA9809589238083CECFEFA5F8A98081D5
:102F30009CA9892B8083E5CF20912D0430912E040C
:102F4000C901079697FD079623E0959587952A95E1
:102F5000E1F720912B0430912C04829FA001839FE4
:102F6000500D929F500D112470E060E08091460456
:102F7000909147040C94FF210E94FA21FB010190DB
:102F80000020E9F73197AF01461B570BDC01ED91AB
:102F9000FC910280F381E02D09948F929F92AF9271
:102FA000BF92EF92FF920F931F93CF93DF93CDB712
:102FB000DEB7A1970FB6F894DEBF0FBECDBF7C0180
:102FC000FA01CB0119A2223008F42AE08E010F5D2C
:102FD0001F4F822E912CB12CA12CBF01A501940171
:102FE0000E948C20F901CA016A300CF5605DD8019D
:102FF0006E938D01232B242B252B79F790E080E015
:10300000109721F0BD01C7010E94BE17A1960FB60F
:10301000F894DEBF0FBECDBFDF91CF911F910F910E
:10302000FF90EF90BF90AF909F908F900895695C54
:10303000DECF85ED8093BC008091CC019091CD01D5
:10304000A091CE01B091CF010796A11DB11D23E043
:10305000B695A795979587952A95D1F72091BC00AD
:1030600024FD03C01092150208954091CC015091A7
:10307000CD016091CE017091CF01452B462B472B9E
:1030800069F30097A105B10541F025E32A95F1F711
:1030900000000197A109B109E1CF8091CB010C9407
:1030A000FB0F1F920F920FB60F9211242F933F9395
:1030B0004F935F936F937F938F939F93AF93BF9340
:1030C000EF93FF9381E793E00E94F705FF91EF9163
:1030D000BF91AF919F918F917F916F915F914F9130
:1030E0003F912F910F900FBE0F901F9018951F9238
:1030F0000F920FB60F9211242F938F939F93EF93FC
:10310000FF93E0918103F09182038081E091870336
:10311000F091880382FD1BC0908180918A038F5FAC
:103120008F7320918B03821741F0E0918A03F0E0C6
:10313000EF58FC4F958F80938A03FF91EF919F91F9
:103140008F912F910F900FBE0F901F901895808137
:10315000F4CF1F920F920FB60F9211242F933F932B
:103160008F939F93AF93BF9380913C0290913D02C8
:10317000A0913E02B0913F0230913B0223E0230F29
:103180002D3758F50196A11DB11D20933B02809368
:103190003C0290933D02A0933E02B0933F02809187
:1031A000400290914102A0914202B09143020196E7
:1031B000A11DB11D8093400290934102A093420251
:1031C000B0934302BF91AF919F918F913F912F9107
:1031D0000F900FBE0F901F90189526E8230F0296B0
:1031E000A11DB11DD2CF1F920F920FB60F921124C5
:1031F0002F933F934F935F936F937F938F939F93FF
:10320000AF93BF93EF93FF938091B900887F80368F
:1032100009F44AC0F0F5883209F4A7C018F58031E6
:1032200009F49BC0B8F4882309F4F9C0883009F484
:1032300094C0FF91EF91BF91AF919F918F917F913A
:103240006F915F914F913F912F910F900FBE0F9013
:103250001F901895883109F488C0803251F7809307
:10326000140214C0803409F49DC040F48033B9F3D3
:103270008833F9F68093140285ECB0C0803509F4E8
:1032800085C0883509F496C0883499F60E941918CB
:10329000D0CF883909F48CC038F5883729F050F43C
:1032A000883611F0803729F683E08093150210925A
:1032B000130257C0883809F47BC0803919F0803870
:1032C00009F0B7CF80911302803208F071C0E0910D
:1032D000130281E08E0F809313028091BB00F0E017
:1032E000ED50FE4F80833DC0803B39F0E0F4803AE2
:1032F00009F479C0883A09F09CCF84E080931502E4
:103300001092F2011092F101E0916102F0916202DB
:1033100009958091F10181110FC081E08093F10145
:103320001092D10109C0803C09F4A6CF883C09F471
:10333000A3CF883B09F07DCFE091F20181E08E0FB1
:103340008093F201F0E0EF52FE4F80818093BB004A
:103350009091F2018091F10129C080913A0280930D
:10336000BB0085EC8093BC0064CF909139028091C2
:103370003802981758F5E091390281E08E0F80935A
:103380003902F0E0E85EFD4F8081E9CFE09139023B
:1033900081E08E0F809339028091BB00F0E0E85EFF
:1033A000FD4F808390913902809138029817C8F2BE
:1033B00085E8D8CFE091390281E08E0F8093390201
:1033C0008091BB00F0E0E85EFD4F808380911702A2
:1033D00081115CCF81E08093160284EA8093BC0067
:1033E0001092150226CF85EC8093BC001092150236
:1033F00080911302803230F4E0911302F0E0ED503E
:10340000FE4F10826091130270E0E0915F02F09134
:10341000600283EF91E00995109213020ACF109297
:10342000140234CF0F931F93E1E7F3E0138212826B
:1034300048EE53E060E070E0448355836683778311
:1034400083E391E09183808385EC90E09587848786
:1034500084EC90E09787868780EC90E0918B808B5E
:1034600081EC90E0938B828B82EC90E0958B848B47
:1034700086EC90E0978B868B118E128E138E148EB5
:10348000EEE0F4E08FEF80831282118214861386BF
:103490000FEF1FEF98010783108721873287ABE179
:1034A000B4E013961C921E92129714964D935D935E
:1034B0006D937C93179725E431E011963C932E93FE
:1034C000E7E2F4E01382128240E850E0558344833F
:1034D00020E430E037832683518740873387228773
:1034E000168A158614861786168691E0958B948B1E
:1034F0002FEF3FEF338B228B318B208B978B108EEE
:10350000128E118E27E531E031832083148E138EC5
:10351000B68FA58F10A2178E84A385A386A387A339
:1035200080A780E89AE1A6E0B0E085AB96ABA7ABB8
:10353000B0AF80EA96E8A1E0B0E081AF92AFA3AF70
:10354000B4AF80E586AF17AE1F910F910895CF936A
:10355000DF9300D01F92CDB7DEB7789484B5826038
:1035600084BD84B5816084BD85B5826085BD85B527
:10357000816085BD80916E00816080936E001092A5
:103580008100809181008260809381008091810020
:1035900081608093810080918000816080938000B1
:1035A0008091B10084608093B1008091B00081600F
:1035B0008093B00080917A00846080937A0080913B
:1035C0007A00826080937A0080917A008160809393
:1035D0007A0080917A00806880937A001092C1000E
:1035E000E0918103F091820382E08083E0917D038A
:1035F000F0917E031082E0917F03F091800380E1DF
:10360000808310928903E0918503F091860386E020
:103610008083E0918303F0918403808180618083C3
:10362000E0918303F0918403808188608083E0913E
:103630008303F0918403808180688083E091830319
:10364000F091840380818F7D80830E948B1161E0E3
:1036500086E00E94D20660E082E00E94D20660E02E
:1036600083E00E94D20660E084E00E94D20660E01F
:1036700085E00E94D20609E211E061E0D8018D9157
:103680008D010E94D206B1E00F321B07B1F7809185
:103690005702811145C010924902109248028FEFE3
:1036A00080934C0280934D0280934E0280934F0290
:1036B000809350028093510281E0809352021092D5
:1036C00054021092530210924B0210924A028091BF
:1036D0006E0290916F02892B31F486E492E0909310
:1036E0006F0280936E02E0914402F09145023097A0
:1036F00021F086E492E09583848386E492E09093BF
:1037000045028093440210925602109255028BE1BA
:1037100091E0909347028093460281E080935702A4
:10372000539A84E792E0909349028093480281E59E
:1037300090E09093540280935302809111049091F1
:103740001204A0911304B0911404843CE9E09E0794
:10375000A105B10520F484EC99E0A0E0B0E08093ED
:10376000110490931204A0931304B093140484EBF7
:1037700080930E048091460490914704892B11F1A7
:103780000E949C1720912D0430912E0480912B04CF
:1037900090912C04213231050CF0CEC0B901605259
:1037A000710977FF02C06F5F7F4F759567958357EB
:1037B000910997FD019600E210E023E730E04AED21
:1037C00055E0CDC020912D0430912E04C9010796FB
:1037D00097FD0796B3E095958795BA95E1F7209107
:1037E0002B0430912C04AC01429FC001439F900DEB
:1037F000529F900D11240E94D520909347048093EE
:103800004604892B09F0BCCF0E941C1668EE73E0B9
:1038100080E090E00E942807B12C9BEAE92E0E94EC
:103820005A072091660230916702621B730B81096F
:1038300091096B3F71058105910508F43FC00E9415
:103840005A0770936702609366026FE771E081E741
:1038500093E00E94BE17E0916502F0E0E75DFE4F45
:10386000408150E070E060E02AE081E793E00E9450
:10387000CD1765E871E081E793E00E94BE17D09014
:1038800065028D2D0E940515F09000010D2D10E0B0
:10389000F801E75DFE4F6F2D80810E94860655E09E
:1038A000D51204C081E0F826F0920001C80101960B
:1038B00066E070E00E9464208093650204E712E0F5
:1038C00067EF7FEF85E5D82EAA27BB27A61BB70B8E
:1038D0001A161B060CF0DB01F80149E050E0CA01A2
:1038E0001416150624F088279927841B950B8A0F38
:1038F0009B1F880F880F30916703A32EA80ECA2C38
:10390000CC0CCC0CCC0C2C2D3D2D239F020E20E09A
:10391000211D1124822F2A2D20749A2D9072F92EA8
:10392000A7FC4DC2211139C29111CAC1982F90959F
:10393000382F892F90E0C8C1B9016054710977FF11
:1039400002C06F5F7F4F759567958255910997FD0E
:10395000019600E410E022E530E04AEB57E095954F
:1039600087950E94A70E82E08093490480914404C9
:1039700090914504892B09F4DFC08DE380934804BE
:10398000109264021092630210926E0310926D0303
:103990000E94DD0F84E795E09093620280936102BC
:1039A00085E795E09093600280935F0280914F04D9
:1039B00087FD1EC061E00E94D20661E080914F0445
:1039C0000E94860661E070E080E090E00E94280797
:1039D00060E080914F040E9486066AE070E080E01B
:1039E00090E00E94280761E080914F040E948606C3
:1039F0008091440490914504892B09F42AC12091B7
:103A00005C0430915D0440915E0450915F0460E07D
:103A100074E284EF90E00E948C202051310941092A
:103A2000510956954795379527952093B80064E03E
:103A300084EA95E00E940C1560912D04615087E2A4
:103A400094E00E94BA1564E080EA95E00E940C15AB
:103A50008091490460E1813009F064E187E294E0FB
:103A60000E94BA1564E08CE995E00E940C158FE87D
:103A70008093640480912B0490912C0480389105EC
:103A800009F000C180912D0490912E04803491059D
:103A900009F008C180914904813009F0F1C08FE933
:103AA0008093640412E16AED87E294E00E94BA1503
:103AB000612F87E294E00E94BA1561E887E294E002
:103AC0000E94BA156091640487E294E00E94BA15DE
:103AD00069ED87E294E00E94BA158091490462E2A0
:103AE000813009F061EF87E294E00E94BA1566E048
:103AF00086E995E00E940C1580914404909145045C
:103B0000892B09F4D3C02091600430916104409165
:103B100062045091630460E074E284EF90E00E94DC
:103B20008C20205131094109510956954795379507
:103B300027952093B80068CE61E080914D040E94E3
:103B4000D20661E080914E040E94D20680914D041D
:103B5000082E000C990BFC01EA53FA4FE491F0E0B7
:103B6000EE0FFF1FE454FA4F259134913093550422
:103B700020935404FC01E855FA4FE491E0935A0471
:103B800080914E04082E000C990BFC01EA53FA4F69
:103B9000E491F0E0EE0FFF1FE454FA4FA591B491C9
:103BA000B0935704A0935604FC01E855FA4FE491F2
:103BB000E0935B048C91E82BEC938091420490910C
:103BC0004304892B19F00E948B11F0CE61E08091A3
:103BD0004B040E94D20661E080914C040E94D20600
:103BE00080914B04082E000C990BFC01EA53FA4F0C
:103BF000E491F0E0EE0FFF1FE454FA4F2591349169
:103C00003093510420935004FC01E855FA4FE4919D
:103C1000E093580480914C04082E000C990BFC0191
:103C2000EA53FA4FE491F0E0EE0FFF1FE454FA4F2D
:103C3000A591B491B0935304A0935204FC01E855AC
:103C4000FA4FE491E09359048C91E095E823EC93CA
:103C5000ADCE8091420490914304892B31F0809144
:103C60006504909166040E94BD09E0915604F091AC
:103C70005704908180915B04809589238083D7CEFF
:103C80008FEC0ECF8036910569F480912D049091D0
:103C90002E04409739F480914904813029F480E161
:103CA0008093640412E0FFCE8FEAFACFE0915604CD
:103CB000F0915704808190915B04892B8083A4CD7F
:103CC00035E5380F90E08BEA808331839283425050
:103CD00051093396473F8FEF580709F000CE6E5FCA
:103CE0007F4F055E1F4F6930710509F0EDCDF090F3
:103CF0000E048091110490911204A0911304B091CC
:103D00001404892B8A2B8B2B09F079C00E9403079E
:103D100060937002709371028093720290937302A9
:103D2000E0911904F0911A04309709F085C00091D0
:103D30006E0210916F024F2C512C712C612C0115C9
:103D4000110509F4B7C0D8011C96AC901C9780915E
:103D50000F04909110048436910510F41C961C9267
:103D6000D801ED91FC918280938019821A821B8286
:103D7000F1106EC0F80145855685628173819E0100
:103D80002F5F3F4FC801F4010995D8011C96AC92F2
:103D90001C9714960D911C91D2CF91110BC02C2D14
:103DA0003AEA239F020E20E0211D11249E2D921B32
:103DB000380FBFCD382F3095982F80E085CF211157
:103DC00012C091110CC02C2D3AEA239F020E20E064
:103DD000211D11243E2D321B95E5920FEECF982F19
:103DE000909530E071CF911106C025E5280F9E2DEA
:103DF000981B822FF6CF2AEA280F9D2DF9CF0E941B
:103E000003070091700210917102209172023091AB
:103E10007302601B710B820B930B009111041091C4
:103E20001204209113043091140460177107820763
:103E3000930708F45ECF6ACF4091150450911604A1
:103E400060911704709118048F2D0995F82E6FCF8B
:103E5000F8013696D12CC12C2191222319F1328000
:103E6000332001F130E050E040E02F5F3F4F4F4FF3
:103E70005F4FC301B2010E9454209B01AC01832D0E
:103E800090E0B0E0A0E0BC01CD016F5F7F4F8F4FAD
:103E90009F4F0E945420A1E0B0E0AC0FBD1FAC0DBD
:103EA000BD1D8C93BFEFCB1ADB0A23E0C216D104F1
:103EB00099F660CF80916C0290916D028C010F5F3A
:103EC0001F4F10936D0200936C024997B4F10E944A
:103ED0005A07409068025090690260906A027090A0
:103EE0006B029B01AC01241935094609570921F4DD
:103EF00021E030E040E050E088EE93E0089FB00120
:103F0000099F700D189F700D1124072E000C880B4F
:103F1000990B0E948C203093100420930F04109270
:103F20006D0210926C020E945A07609368027093AF
:103F3000690280936A0290936B0263E070E080E014
:103F400090E00E9428078091670390916803019692
:103F500090936803809367030E945A0720916B0334
:103F600030916C03621B730B81099109693E7340A8
:103F70008105910508F46DC00E945A0770936C0387
:103F800060936B030E949C1781E080933B048093B5
:103F90003C0481E090E090933A048093390490933C
:103FA00038048093370484E090E090933404809345
:103FB000330490933604809335040AE71AE0F8013D
:103FC0006491611158C065E871E087E294E00E9455
:103FD000BE1782E080933B0480933C0486E390E02C
:103FE000909334048093330488E190E090933604F6
:103FF000809335044090690350906A03052C000CAF
:10400000660877082AE0B301A20177FE0DC06DE2D1
:1040100087E294E00E94FB0B44275527BA0144191C
:104020005509660977092AE087E294E00E94CD17D6
:1040300065E871E087E294E00E94BE170E941C16BA
:104040008091690390916A03019690936A0380932B
:1040500069036091000186E00E94860680E090E09E
:10406000892B09F4DCCB0E94E305882309F4D7CB24
:104070000E940000D4CB87E294E00E94FB0B0F5F0C
:104080001F4F892B09F09BCF9ECF87E591E090933E
:104090002804809327048091460490914704009758
:1040A00011F00C9471210895DB018F939F930E946E
:1040B000B520BF91AF91A29F800D911DA39F900D40
:1040C000B29F900D11240895AA1BBB1B51E107C09C
:1040D000AA1FBB1FA617B70710F0A61BB70B881F98
:1040E000991F5A95A9F780959095BC01CD01089527
:1040F00097FB072E16F4009407D077FD09D00E9495
:10410000642007FC05D03EF4909581959F4F08955B
:10411000709561957F4F0895A1E21A2EAA1BBB1BD3
:10412000FD010DC0AA1FBB1FEE1FFF1FA217B30783
:10413000E407F50720F0A21BB30BE40BF50B661F99
:10414000771F881F991F1A9469F76095709580955D
:1041500090959B01AC01BD01CF0108950E94C6203E
:10416000B7FF0895821B930B08950E94C620A59F58
:10417000900DB49F900DA49F800D911D1124089562
:10418000EE0FFF1F0590F491E02D0994A29FB0015E
:10419000B39FC001A39F700D811D1124911DB29F7B
:1041A000700D811D1124911D08950F931F93CF93BE
:1041B000DF938230910510F482E090E0E091690491
:1041C000F0916A0430E020E0B0E0A0E0309799F48C
:1041D0002115310509F44AC0281B390B243031055B
:1041E000D8F58A819B816115710589F1FB01938363
:1041F0008283FE0111C040815181028113814817E1
:104200005907E0F04817590799F4109761F0129692
:104210000C93129713961C933296CF01DF91CF9196
:104220001F910F9108950093690410936A04F4CFCD
:104230002115310551F04217530738F0A901DB0170
:104240009A01BD01DF01F801C1CFEF01F9CF9093D1
:104250006A0480936904CDCFFE01E20FF31F8193BE
:1042600091932250310939832883D7CF2091670455
:1042700030916804232B41F4209103013091040113
:10428000309368042093670420910101309102016A
:104290002115310541F42DB73EB7409105015091EC
:1042A0000601241B350BE0916704F0916804E217C6
:1042B000F307A0F42E1B3F0B2817390778F0AC0149
:1042C0004E5F5F4F2417350748F04E0F5F1F509326
:1042D000680440936704819391939FCFF0E0E0E0FE
:1042E0009CCFCF93DF930097E9F0FC0132971382C4
:1042F0001282A0916904B0916A04ED0130E020E0DF
:104300001097A1F420813181820F931F20916704BF
:10431000309168042817390709F061C0F0936804E8
:10432000E0936704DF91CF910895EA01CE17DF078C
:10433000E8F54A815B819E0141155105B1F7E9011C
:10434000FB83EA8349915991C40FD51FEC17FD07F0
:1043500061F4808191810296840F951FE901998310
:104360008883828193819B838A83F0E0E0E01296C8
:104370008D919C9113970097B9F52D913C911197D0
:10438000CD010296820F931F20916704309168043B
:104390002817390739F6309751F510926A041092B0
:1043A0006904B0936804A0936704BCCFD383C2832D
:1043B00040815181840F951FC817D90761F44E5F62
:1043C0005F4F88819981480F591F518340838A81AB
:1043D0009B81938382832115310509F0B0CFF0933F
:1043E0006A04E09369049ECFFD01DC01C0CF138213
:1043F0001282D7CF81E090E0F8940C940622DC0181
:1044000001C06D9341505040E0F7089515E0C8E4B5
:10441000D5E004C0FE010E94C0202196C934D10716
:06442000C9F7F894FFCF7C
:104426000100006B04800000000000BC17BC17BC34
:1044360017E114DD14DA1400000000971453145128
:1044460014E114DD147605FE110D0C0B0A090800A3
:1044560000000019067905A6056606D705B505C943
:10446600050000000072104510881173053E102BE0
:10447600101C1000000000FB0B79058811B50F0D0C
:10448600097305A00E780E940E880E080F7305C1E9
:104496000946177D08C608C10DA40D2C0DCD0C4C80
:0844A60045443A20000D0A0014
:00000001FF
