:100000000C945D000C9485000C9485000C94850084
:100010000C9485000C9485000C9485000C9485004C
:100020000C9485000C9485000C9485000C9485003C
:100030000C9485000C9485000C9485000C9485002C
:100040000C94F9010C9485000C94C7010C94A10147
:100050000C9485000C9485000C9485000C9485000C
:100060000C9485000C9485000000000024002700FB
:100070002A0000000000250028002B0004040404CE
:100080000404040402020202020203030303030342
:10009000010204081020408001020408102001021F
:1000A00004081020000000080002010000030407FB
:1000B0000000000000000000BD0311241FBECFEFB0
:1000C000D8E0DEBFCDBF11E0A0E0B1E0E0E5F8E0B0
:1000D00002C005900D92A232B107D9F721E0A2E249
:1000E000B1E001C01D92AB3CB207E1F710E0CDE5F5
:1000F000D0E004C02197FE010E942004CC35D10736
:10010000C9F70E9443020C9426040C940000AF929D
:10011000BF92CF92DF92EF92FF920F931F93CF93F4
:10012000DF936C017B018B01040F151FEB015E0156
:10013000AE18BF08C017D10759F06991D601ED91EB
:10014000FC910190F081E02DC6010995892B79F78A
:10015000C501DF91CF911F910F91FF90EF90DF903C
:10016000CF90BF90AF900895FC01538D448D252F03
:1001700030E0842F90E0821B930B541710F0CF9641
:10018000089501970895FC01918D828D981761F073
:10019000A28DAE0FBF2FB11D5D968C91928D9F5F8A
:1001A0009F73928F90E008958FEF9FEF0895FC0169
:1001B000918D828D981731F0828DE80FF11D858D1C
:1001C00090E008958FEF9FEF0895FC01918D228DAF
:1001D000892F90E0805C9F4F821B91098F73992734
:1001E00008958EE291E00E94E50021E0892B09F458
:1001F00020E0822F089580E090E0892B29F00E9472
:10020000F10081110C9400000895FC01A48DA80F49
:10021000B92FB11DA35ABF4F2C91848D90E0019648
:100220008F739927848FA689B7892C93A089B18968
:100230008C91837080648C93938D848D981306C009
:100240000288F389E02D80818F7D80830895EF926D
:10025000FF920F931F93CF93DF93EC0181E0888F80
:100260009B8D8C8D98131AC0E889F989808185FF50
:1002700015C09FB7F894EE89FF896083E889F989F2
:1002800080818370806480839FBF81E090E0DF91F4
:10029000CF911F910F91FF90EF900895F62E0B8D47
:1002A00010E00F5F1F4F0F731127E02E8C8D8E1102
:1002B0000CC00FB607FCFACFE889F989808185FF69
:1002C000F5CFCE010E940501F1CFEB8DEC0FFD2F94
:1002D000F11DE35AFF4FF0829FB7F8940B8FEA8924
:1002E000FB8980818062CFCFCF93DF93EC01888D33
:1002F0008823B9F0AA89BB89E889F9898C9185FDA1
:1003000003C0808186FD0DC00FB607FCF7CF8C912E
:1003100085FFF2CF808185FFEDCFCE010E940501E0
:10032000E9CFDF91CF910895FC0101900020E9F71A
:100330003197AF01481B590BBC018EE291E00C9440
:1003400087001F920F920FB60F9211242F933F93A5
:100350004F935F936F937F938F939F93AF93BF93CD
:10036000EF93FF938EE291E00E940501FF91EF91E0
:10037000BF91AF919F918F917F916F915F914F91BD
:100380003F912F910F900FBE0F901F9018951F92C5
:100390000F920FB60F9211242F938F939F93EF9389
:1003A000FF93E0913E01F0913F018081E091440193
:1003B000F091450182FD1BC09081809147018F5FC4
:1003C0008F7320914801821741F0E0914701F0E0DE
:1003D000E25DFE4F958F80934701FF91EF919F91D2
:1003E0008F912F910F900FBE0F901F9018958081C5
:1003F000F4CF1F920F920FB60F9211242F933F93B9
:100400008F939F93AF93BF93809127019091280181
:10041000A0912901B0912A013091260123E0230FF8
:100420002D3758F50196A11DB11D2093260180930B
:10043000270190932801A0932901B0932A0180916C
:10044000220190912301A0912401B09125010196F0
:10045000A11DB11D8093220190932301A09324013B
:10046000B0932501BF91AF919F918F913F912F91B3
:100470000F900FBE0F901F90189526E8230F02963D
:10048000A11DB11DD2CFCF93DF93CDB7DEB7A1971A
:100490000FB6F894DEBF0FBECDBF789484B58260EE
:1004A00084BD84B5816084BD85B5826085BD85B518
:1004B000816085BD80916E00816080936E00109296
:1004C0008100809181008260809381008091810011
:1004D00081608093810080918000816080938000A2
:1004E0008091B10084608093B1008091B000816000
:1004F0008093B00080917A00846080937A0080912C
:100500007A00826080937A0080917A008160809383
:100510007A0080917A00806880937A001092C100FE
:10052000E0913E01F0913F0182E08083E0913A0149
:10053000F0913B011082E0913C01F0913D0180E19E
:10054000808310924601E0914201F091430186E0E0
:100550008083E0914001F09141018081806180833E
:10056000E0914001F0914101808188608083E091B9
:100570004001F0914101808180688083E0914001D9
:10058000F091410180818F7D8083A3E1B1E029E179
:1005900031E08D9190E0FC01E057FF4F6491845869
:1005A0009F4FFC0184918823A1F090E0880F991F50
:1005B000FC01E859FF4F45915491FC01EE58FF4F63
:1005C000859194918FB7F894FA019081962B90833E
:1005D0008FBF2A173B07E9F69AE0892E912CA12CB0
:1005E000B12C26E0C22ED12C7724739430E0E32E78
:1005F00030E0F32E2FB7F8948091270190912801D5
:10060000A0912901B0912A012FBF20912C01309196
:100610002D01821B930BA109B1098B3F9105A10507
:10062000B10508F47BC02FB7F89480912701909111
:100630002801A0912901B0912A012FBF90932D018B
:1006400080932C0189E191E00E949401E0912B01BB
:10065000F0E0ED5EFE4F208130E050E040E019A276
:100660008E010F5D1F4FCA01B901A50194010E94BF
:10067000FE03605DF80162938F012115310541058C
:10068000510589F7309719F0CF010E9494018FE14D
:1006900091E00E949401E0912B01F0E0ED5EFE4FAD
:1006A000808190E0FC01EC55FF4F3491FC01E05754
:1006B000FF4F2491FC01E458FF4FE491EE23F1F049
:1006C00090910001332351F0333009F43DC090F58F
:1006D000313009F43FC0323009F440C0F0E0EE0F91
:1006E000FF1FEE58FF4FA591B4918FB7F894EC918E
:1006F000911141C020952E232C938FBF80912B0107
:10070000853029F49091000197259093000190E0A5
:100710000196B6010E94EA0380932B01E114F104D3
:1007200009F468CF0E94F100882309F463CF0E9486
:10073000000060CF3730A9F03830C9F0343071F69E
:10074000809180008F7D03C0809180008F7780939F
:100750008000C4CF84B58F7784BDC0CF84B58F7D32
:10076000FBCF8091B0008F778093B000B7CF80919E
:10077000B0008F7DF9CF2E2BBFCFEEE2F1E01382D8
:10078000128288EE93E0A0E0B0E084839583A68394
:10079000B78385E091E09183808385EC90E0958735
:1007A000848784EC90E09787868780EC90E0918B3B
:1007B000808B81EC90E0938B828B82EC90E0958B28
:1007C000848B86EC90E0978B868B118E128E138E25
:1007D000148E0895AA1BBB1B51E107C0AA1FBB1FA3
:1007E000A617B70710F0A61BB70B881F991F5A95BD
:1007F000A9F780959095BC01CD010895A1E21A2E2C
:10080000AA1BBB1BFD010DC0AA1FBB1FEE1FFF1FB4
:10081000A217B307E407F50720F0A21BB30BE40B04
:10082000F50B661F771F881F991F1A9469F760954B
:100830007095809590959B01AC01BD01CF01089505
:10084000EE0FFF1F0590F491E02D0994F894FFCF6F
:10085000010000000027018700B4007401E500C317
:1008600000D7000D0C0B0A09084C45443A20000D36
:020870000A007C
:00000001FF
