:100000000C94BE000C94E6000C94E6000C94E60000
:100010000C94E6000C94E6000C94E6000C94E600C8
:100020000C94E6000C94E6000C94E6000C94E600B8
:100030000C94E6000C94E6000C94E6000C94E600A8
:100040000C9405050C94E6000C94E6000C94E60074
:100050000C94E6000C94E6000C94E6000C94E60088
:100060000C94E6000C94E60097A0895B5A0F830D70
:10007000C95F6035C2E907E18C24671E458E0863BD
:1000800025F0150A17BE0694F778EA4B001AC53E0C
:100090005EFCDBCB75230B2039B12158ED95385729
:1000A000AE147D88ABA844AF4AA547868B301BA60B
:1000B0004D929EE7536FE57A3CD385E6DC695C2977
:1000C000372EF528F4668F3641193FA101D85049E3
:1000D000D14C84BBD05912A9C8C4878274BC9F5626
:1000E000A4646DC6ADBA034034D9E2FA7C7B05CA7C
:1000F0002693767EFF5255D4CFCE3BE32F103A1194
:10010000B6BD1C2ADFB7AAD577F898022C9AA34669
:10011000DD99659BA72BAC09811627FD13626C6ED8
:100120004F71E0E8B2B97068DAF661E4FB22F2C11F
:10013000EED2900CBFB3A2F1513391EBF90EEF6BFD
:1001400031C0D61FB5C76A9DB854CCB07379322D73
:100150007F0496FE8AECCD5DDE72431D1848F38D58
:1001600080C34E42D73D9CB4970000000020FF00A2
:1001700000BEFFFF00FFFFFFFF004F0511241FBE61
:10018000CFEFD8E0DEBFCDBF11E0A0E0B1E0E8E303
:10019000F4E102C005900D92A432B107D9F728E02E
:1001A000A4E2B1E001C01D92A43AB207E1F710E069
:1001B000CEEBD0E004C02197FE010E94000ACD3BA7
:1001C000D107C9F70E94EB050C941A0A0C940000A1
:1001D0004F925F926F927F928F929F92AF92BF9257
:1001E000CF92DF92EF92FF920F931F93CF93DF9303
:1001F000FC017A01D90148175907D0F42C911196C6
:100200009C91119712968C911297EB0149813A813A
:1002100058815C9311964C93119712963C931297C8
:10022000288399838A839E2F8F2FF701E92EF82E3A
:10023000EB01088110E08C9190E0801B910B96956A
:10024000982F8827979587954980512C1196CC90A7
:100250001197D12CC418D508D694DC2CCC24D79473
:10026000C7946A80712C12962C9130E026193709B8
:100270003695322F2227379527955701AE1ABF0A98
:1002800019F4AA24A394B12CB5010E94A4094B012E
:10029000C601B5010E94A4096B01C901B5010E9404
:1002A000A409880C991CCC0CDD1C660F771F102F3D
:1002B0000027D42DCC27762C6624DF01AA0FBB1F84
:1002C000AE0FBF1FAC58B74FEE16FF0680F01C9361
:1002D0001196DC93119712967C921297080D191DB6
:1002E000CC0DDD1D660E771E31961396EDCFDF9196
:1002F000CF911F910F91FF90EF90DF90CF90BF9023
:10030000AF909F908F907F906F905F904F900895E7
:1003100080E991E008953FB7F8948091270190918A
:100320002801A0912901B0912A0126B5A89B05C0FA
:100330002F3F19F00196A11DB11D3FBFBA2FA92F64
:10034000982F8827BC01CD01620F711D811D911D61
:1003500042E0660F771F881F991F4A95D1F70895CD
:10036000282F382F37FD2095229F020E20E0211DD7
:10037000000C221F37FD20951124822F08950F9322
:100380001F93CF93DF93209125012F5F322F37707A
:100390003093250120FF2BC020E831FD206434700C
:1003A00009F02062205FFC01EC01239600E011E0DF
:1003B0006485662329F070E0C8010E94A4096F5F7C
:1003C0006187322F369F030E30E0311D1124311129
:1003D00010C01682662311F0615061873196EC17C8
:1003E000FD0731F7DF91CF911F910F91089520E024
:1003F000D4CF31503683EECF4F925F926F927F927F
:100400008F92AF92BF92CF92DF92EF920F931F9392
:10041000CF93DF933C01EB010E948B01F301278511
:100420003089621B730B6A307105B0F3F894E88170
:10043000F9817BB178606BB1677F6BB9CA848F81BA
:100440002C2D281B822F2F83BF844A805B801D8523
:100450000C85DE841F5F0F5FD3949E813885A9844D
:10046000EB844181D20120E0C32F522F322F318102
:10047000442788943111380F08F43FEF8195889410
:1004800010FD430F4795889411FD430F47958894BD
:1004900012FD430F4795889413FD430F47958894A9
:1004A00014FD430F4795889415FD430F4795889495
:1004B00016FD430F4795889417FD430F4795889481
:1004C000232F1111242F8C0D422F002C7BB900C03B
:1004D00047FF6BB930812227889400C000C0002CF0
:1004E0006BB93111390F00C0002C7BB900C046FF39
:1004F0006BB908F43FEF9195889400C000C0002CC0
:100500006BB900FD230F00C0002C7BB900C045FF74
:100510006BB92795889401FD230F00C000C0002C03
:100520006BB92795889400C0002C7BB900C044FFAC
:100530006BB902FD230F2795889400C000C0002CE2
:100540006BB903FD230F00C0002C7BB900C043FF33
:100550006BB92795889404FD230F00C000C0002CC0
:100560006BB92795889400C0002C7BB900C042FF6E
:100570006BB905FD230F2795889400C000C0002C9F
:100580006BB906FD230F00C0002C7BB900C041FFF2
:100590006BB92795889407FD230F00C000C0002C7D
:1005A0006BB92795889400C0002C7BB900C040FF30
:1005B0006BB9432F0111422F9A0D00C000C0002CCF
:1005C0006BB900C000C0002C7BB900C047FF6BB9FD
:1005D00032812227889400C000C0002C6BB93111F1
:1005E0003C0F00C0002C7BB900C046FF6BB908F47B
:1005F0003FEFEB0DF11D00C000C0002C6BB9D0FC2B
:10060000230F00C0002C7BB900C045FF6BB92795B4
:100610008894D1FC230F00C000C0002C6BB9279533
:10062000889400C0002C7BB900C044FF6BB9D2FC99
:10063000230F2795889400C000C0002C6BB9D3FC11
:10064000230F00C0002C7BB900C043FF6BB9279576
:100650008894D4FC230F00C000C0002C6BB92795F0
:10066000889400C0002C7BB900C042FF6BB9D5FC58
:10067000230F2795889400C000C0002C6BB9D6FCCE
:10068000230F00C0002C7BB900C041FF6BB9279538
:100690008894D7FC230F00C000C0002C6BB92795AD
:1006A000889400C0002C7BB900C040FF6BB9432F79
:1006B000D110422FC19500C000C0002C6BB9CE0DE7
:1006C00000C000C07BB900C047FF6BB93181222751
:1006D000889400C000C0002C6BB93111380F00C0E5
:1006E000002C7BB900C046FF6BB908F43FEF819541
:1006F000889400C000C0002C6BB910FD230F00C00F
:10070000002C7BB900C045FF6BB92795889411FD7B
:10071000230F00C000C0002C6BB92795889400C03F
:10072000002C7BB900C044FF6BB912FD230F279545
:10073000889400C000C0002C6BB913FD230F00C0CB
:10074000002C7BB900C043FF6BB92795889414FD3A
:10075000230F00C000C0002C6BB92795889400C0FF
:10076000002C7BB900C042FF6BB915FD230F279504
:10077000889400C000C0002C6BB916FD230F00C088
:10078000002C7BB900C041FF6BB92795889417FDF9
:10079000230F00C000C0002C6BB92795889400C0BF
:1007A000002C7BB900C040FF6BB9432F1111422FC1
:1007B0008C0D00C000C0002C6BB9119709F086CEDB
:1007C00020EE31E0D2010E94DA09DC01CB01F4E035
:1007D000B695A79597958795FA95D1F730E020E0E3
:1007E000B901EAE94E9E040C611D5E9E600D711D0B
:1007F0001124650D711D860F971FA11DB11D893E26
:1008000043E09407A105B10508F434C0885E934025
:10081000A109B10942E0B695A795979587954A95A4
:10082000D1F747E0849F080E211D949F200D311DB4
:100830001124290F311D6091240170E0860F971F4C
:10084000820F931F409152015091530160915401C6
:1008500070915501292F3327420F531F611D711DC0
:10086000409352015093530160935401709355018A
:100870008093240178940E948B01F301708B678729
:10088000DF91CF911F910F91EF90DF90CF90BF90AC
:10089000AF908F907F906F905F904F900895539A94
:1008A00008950F931F93CF93DF93CDB7DEB7629771
:1008B0000FB6F894DEBF0FBECDBF8C01F901DC018D
:1008C0001C968C917A8369835C834B835E834D8312
:1008D00090819D8791819E8792819F878130F1F4DD
:1008E000CE0101960E94BF0183E0888B1A8A198A83
:1008F000D801ED91FC910484F585E02DBE016F5F78
:100900007F4FC801099562960FB6F894DEBF0FBEFF
:10091000CDBFDF91CF911F910F9108951C861B864B
:100920001A86198618861F82DFCF0F931F93CF93E5
:10093000DF93CDB7DEB762970FB6F894DEBF0FBE78
:10094000CDBF8C01F901DC011C968C917A836983FF
:100950005C834B835E834D8390819D8791819E87CD
:1009600092819F878130E9F4CE0101960E94BF01F8
:10097000188A1A8A198AD801ED91FC910484F585A8
:10098000E02DBE016F5F7F4FC801099562960FB6DB
:10099000F894DEBF0FBECDBFDF91CF911F910F91B5
:1009A00008951C861B861A86198618861F82E0CF3A
:1009B00090E080E00895FC01858596850895CF93A9
:1009C000DF9300D000D000D0CDB7DEB7AB011C82E2
:1009D0001D821E82DC01ED91FC910190F081E02DE1
:1009E00019821A821B829E012F5F3F4FBE016C5FEE
:1009F0007F4F099526960FB6F894DEBF0FBECDBF88
:100A0000DF91CF9108950E94150A1F920F920FB6A1
:100A10000F9211242F933F938F939F93AF93BF9384
:100A20008091520190915301A0915401B0915501D0
:100A30003091260123E0230F2D3758F50196A11D93
:100A4000B11D209326018093520190935301A093EE
:100A50005401B09355018091270190912801A091F4
:100A60002901B0912A010196A11DB11D8093270192
:100A700090932801A0932901B0932A01BF91AF91CF
:100A80009F918F913F912F910F900FBE0F901F90CC
:100A9000189526E8230F0296A11DB11DD2CF5F92B3
:100AA0006F927F928F929F92AF92BF92CF92DF927E
:100AB000EF92FF920F931F93CF93DF9300D000D05C
:100AC00000D0CDB7DEB78FEF80936708109269082A
:100AD0001092680810927308109272088FEF9FEFBF
:100AE000DC0180936E0890936F08A0937008B09318
:100AF000710889E691E010E000E0FC014591559114
:100B0000659174910F5F1F4F04964F3FB1F7E9E66F
:100B1000F1E085919591A591B4915B2F5A2E7724A0
:100B20007A9429E6A22E21E0B22E912C812C24E089
:100B3000A20EB11CF501C590D590E590F4906C2CF7
:100B4000940184E0359527958A95E1F7822F8C2CC6
:100B5000912C4C2D42954F700031110580F4672D7A
:100B6000072C000C770B6217730744F02FE0721606
:100B700029F081E0870D481708F4482F742EDC8295
:100B8000ED82FE8299835A825B8350E09E012C5F46
:100B90003F4FBE016F5F7F4F90E00E94E8009D2DA8
:100BA0005E2C5F2D8FEF6812C2CF26960FB6F89499
:100BB000DEBF0FBECDBFDF91CF911F910F91FF9090
:100BC000EF90DF90CF90BF90AF909F908F907F90ED
:100BD0006F905F900895CF93DF93CDB7DEB72A97DC
:100BE0000FB6F894DEBF0FBECDBF789484B5826097
:100BF00084BD84B5816084BD85B5826085BD85B5C1
:100C0000816085BD80916E00816080936E0010923E
:100C100081008091810082608093810080918100B9
:100C2000816080938100809180008160809380004A
:100C30008091B10084608093B1008091B0008160A8
:100C40008093B00080917A00846080937A008091D4
:100C50007A00826080937A0080917A00816080932C
:100C60007A0080917A00806880937A001092C100A7
:100C700080913E01811145C01092300110922F01E8
:100C80008FEF8093330180933401809335018093FB
:100C90003601809337018093380181E080933901D8
:100CA00010923B0110923A011092320110923101E0
:100CB00080914C0190914D01892B31F48DE291E0AE
:100CC00090934D0180934C01E0912B01F0912C0108
:100CD000309721F08DE291E0958384838DE291E05D
:100CE00090932C0180932B0110923D0110923C01B6
:100CF00086E191E090932E0180932D0181E0809315
:100D00003E01539A86E591E09093300180932F0144
:100D100080E091E090933B0180933A0180916A08D2
:100D200090916B08A0916C08B0916D08843C09E02B
:100D30009007A105B10520F484EC99E0A0E0B0E0B3
:100D400080936A0890936B08A0936C08B0936D0829
:100D50008FEF8093670836E5832E34E0932ED12CF5
:100D6000C12C8D2D99278C0108591F4F1F830E838D
:100D70009C0127593F4F59014C2C0C2D069520E81A
:100D8000522E500E3401F12CE12CEE81FF81849122
:100D90008F0D90E0FC01E859FF4F14911887FC017A
:100DA000E759FF4F14911987F50184918F0D90E059
:100DB000FC01E859FF4F2490FC01E759FF4F1491C3
:100DC0001A871E2D1695312E842D0E94B0018C831A
:100DD0008E2D0E94B001E22DF0E0E859FF4FE49122
:100DE000252D312FE2FD02C0212F352DE0FD31955B
:100DF000E1FD219525953595321F2885E22FF0E0FC
:100E0000E859FF4FE491202FE2FF02C0212F302E3E
:100E1000E0FD2195E1FD3194432D45952595241F55
:100E200023170CF0BAC1321B4C81349F030E30E003
:100E3000311D1124922F930F1058AA85EA2FF0E04C
:100E4000E859FF4FE491252D312FE2FD02C0212FFB
:100E5000352DE0FD3195E1FD219525953595321F24
:100E6000B985EB2FF0E0E859FF4FE491202FE2FF26
:100E700002C0212F102FE0FD2195E1FD1195159560
:100E80002595211F23170CF094C1321B1C81319F23
:100E9000030E30E0311D1124230F92170CF094C182
:100EA000291B382F239F020E20E0211D1124290F1A
:100EB000205C220F08F42FEFD3012C93BCE3EB0E40
:100EC000F11CE0E16E0E711CE114FFE0FF0609F079
:100ED0005CCF0CE3C00ED11C1FEF811A910A20ECED
:100EE000C21623E0D20609F03CCFE6E5F8E091EF28
:100EF00021E1892F87FD8195829F802D1124819387
:100F00009F5F9130B1F766E571E030E020E0FB01D2
:100F100086E5A82E88E0B82E50E040E0A091660853
:100F20008A010A0F111DE0900001F0900101A5E077
:100F3000B8E0EA9EC001EB9E900DFA9E900D112440
:100F4000875E994C9093010180930001D501FD903B
:100F50005D01890F90E0880F991F892F9927D8018B
:100F6000A80FB91FAF73BB2714E0AA0FBB1F1A95B8
:100F7000E1F7AA5ABB4FA20FB31F8C91082F1F2D68
:100F8000011B08F400E0802FD02ED2940FE0D02275
:100F90008F70AD2DAA0FAD0DB0E0AC58B74FEC90EF
:100FA0001196FC90119712969C911297882309F440
:100FB0003CC01FE0C12E1396DC1002C0A4E7B8E0CD
:100FC0008295807FC82EC0940E2D1C2D019F000E8F
:100FD00000E0011DE02EDC900D2D182F019F000E6A
:100FE00000E0011DE00E0F2D1C2D019F000E00E002
:100FF000011DF02E1196DC9011970D2D182F019FD9
:10100000000E00E0011DF00E092F1C2D019F000EA7
:1010100000E0011D902F1296AC910A2F182F019F0E
:10102000000E00E0011D900F1124E082F1829283F6
:101030004F5F5F4FF0964031510509F06FCF2F5F42
:101040003F4F6D5F7F4F2031310509F060CF8FB783
:10105000F8948090520190905301A0905401B09068
:1010600055018FBF0E948B016B017C010E948B0197
:101070006C197D098E099F09683E734081059105B1
:10108000A8F3F090670880916A0890916B08A0918E
:101090006C08B0916D08892B8A2B8B2B09F0A0C0AE
:1010A0000E948B0160934E0170934F018093500119
:1010B00090935101E0917208F0917308309709F014
:1010C000ACC000914C0110914D014F2C512C712C52
:1010D000612C0115110509F4ACC0D8011C96EC90E7
:1010E0001C9780916808909169088436910510F4E6
:1010F0001C961C92D801ED91FC91C280D380DD82B8
:10110000CC8219821A821B82FF2099F1680126E0A5
:10111000C20ED11CF0E0E0E0D6012D916D0122233A
:1011200021F112963C90332001F130E050E040E094
:101130002F5F3F4F4F4F5F4FC301B2010E94940991
:101140009B01AC01832D90E0B0E0A0E0BC01CD019B
:101150006F5F7F4F8F4F9F4F0E949409A1E0B0E0D7
:10116000AC0FBD1FAE0FBF1F8C933196E330F1055E
:1011700099F6F80145855685628173819E012F5F3E
:101180003F4FC801EC81FD810995D8011C96EC9276
:101190001C9714960D911C919CCF922F931B392F65
:1011A0004C81349F030E30E0311D1124922F931B8C
:1011B00043CE422F431B342F1C81319F030E30E05E
:1011C000311D1124231B69CE492F421B242F182FB8
:1011D000219F020E20E0211D1124921B292F68CE91
:1011E0000E948B0100914E0110914F0120915001FE
:1011F00030915101601B710B820B930B00916A08B7
:1012000010916B0820916C0830916D086017710780
:101210008207930708F437CF43CF40916E0850916F
:101220006F0860917008709171088F2D0995F82EE4
:1012300048CF80914A0190914B019C012F5F3F4F15
:1012400030934B0120934A0149970CF44AC08FB761
:10125000F8942091520130915301409154015091E2
:1012600055018FBF8091460190914701A09148019F
:10127000B0914901281B390B4A0B5B0B21F421E08B
:1012800030E040E050E080914A0190914B01E8EE5F
:10129000F3E08E9FB0018F9F700D9E9F700D112403
:1012A000072E000C880B990B0E94B809309369082F
:1012B0002093680810924B0110924A012FB7F894BE
:1012C0008091520190915301A0915401B091550128
:1012D0002FBF8093460190934701A0934801B0939C
:1012E00049012FB7F8948091520190915301A09138
:1012F0005401B09155012FBF88199909AA09BB095A
:101300004497A105B10508F4ADCE809166088F5FC2
:101310008093660880E0C82E80E0D82ECD2809F49E
:10132000F2CD0E940000EFCDDB018F939F930E94CE
:10133000E109BF91AF91A29F800D911DA39F900DD8
:10134000B29F900D1124089597FB072E16F4009478
:1013500007D077FD09D00E94EC0907FC05D03EF4C8
:10136000909581959F4F0895709561957F4F089551
:10137000A1E21A2EAA1BBB1BFD010DC0AA1FBB1F99
:10138000EE1FFF1FA217B307E407F50720F0A21B0B
:10139000B30BE40BF50B661F771F881F991F1A9478
:1013A00069F760957095809590959B01AC01BD01A2
:1013B000CF0108950E94060AB7FF0895821B930B80
:1013C00008950E94060AA59F900DB49F900DA49FBA
:1013D000800D911D11240895AA1BBB1B51E107C06C
:1013E000AA1FBB1FA617B70710F0A61BB70B881FB5
:1013F000991F5A95A9F780959095BC01CD01089544
:10140000EE0FFF1F0590F491E02D0994A29FB0010B
:10141000B39FC001A39F700D811D1124911DB29F28
:10142000700D811D1124911D089581E090E0F894C4
:081430000C941A0AF894FFCF96
:10143800390500000000030503050305DF04DB048C
:10144800D80400000000950451044F04DF04DB04B5
:041458008801FC010A
:00000001FF
