:100000000C9435000C945D000C945D000C945D0024
:100010000C945D000C945D000C945D000C945D00EC
:100020000C945D000C945D000C945D000C945D00DC
:100030000C945D000C945D000C945D000C945D00CC
:100040000C94F3030C945D000C945D000C945D0023
:100050000C945D000C945D000C945D000C945D00AC
:100060000C945D000C945D00F00611241FBECFEFD0
:10007000D8E0DEBFCDBF11E0A0E0B1E0EEE4FFE0EC
:1000800002C005900D92A234B107D9F724E0A2E492
:10009000B1E001C01D92A438B207E1F710E0C5E35A
:1000A000D0E004C02197FE010E948B07C433D10722
:1000B000C9F70E943D040C94A5070C94000080E948
:1000C00091E008953FB7F8948091450190914601E1
:1000D000A0914701B091480126B5A89B05C02F3FCC
:1000E00019F00196A11DB11D3FBFBA2FA92F982F5E
:1000F0008827BC01CD01620F711D811D911D42E059
:10010000660F771F881F991F4A95D1F708950F939F
:100110001F93CF93DF93209143012F5F322F3770CE
:100120003093430120FF2BC020E831FD2064347060
:1001300009F02062205FFC01EC01239600E011E051
:100140006485662329F070E0C8010E9410076F5F84
:100150006187322F369F030E30E0311D112431119B
:1001600010C01682662311F0615061873196EC173A
:10017000FD0731F7DF91CF911F910F91089520E096
:10018000D4CF31503683EECF4F925F926F927F92F1
:100190008F92AF92BF92CF92DF92EF920F931F9305
:1001A000CF93DF933C01EB010E946200F3012785AE
:1001B0003089621B730B6A307105B0F3F894E881E3
:1001C000F9817BB178606BB1677F6BB9CA848F812D
:1001D0002C2D281B822F2F83BF844A805B801D8596
:1001E0000C85DE841F5F0F5FD3949E813885A984C0
:1001F000EB844181D20120E0C32F522F322F318175
:10020000442788943111380F08F43FEF8195889482
:1002100010FD430F4795889411FD430F479588942F
:1002200012FD430F4795889413FD430F479588941B
:1002300014FD430F4795889415FD430F4795889407
:1002400016FD430F4795889417FD430F47958894F3
:10025000232F1111242F8C0D422F002C7BB900C0AD
:1002600000C047FF6BB930812227889400C0002C62
:100270006BB93111390F00C0002C7BB900C000C030
:1002800046FF6BB908F43FEF9195889400C0002CAD
:100290006BB900FD230F00C0002C7BB900C000C06B
:1002A00045FF6BB92795889401FD230F00C0002CF2
:1002B0006BB92795889400C0002C7BB900C000C0A2
:1002C00044FF6BB902FD230F2795889400C0002CD2
:1002D0006BB903FD230F00C0002C7BB900C000C028
:1002E00043FF6BB92795889404FD230F00C0002CB1
:1002F0006BB92795889400C0002C7BB900C000C062
:1003000042FF6BB905FD230F2795889400C0002C90
:100310006BB906FD230F00C0002C7BB900C000C0E4
:1003200041FF6BB92795889407FD230F00C0002C6F
:100330006BB92795889400C0002C7BB900C000C021
:1003400040FF6BB9432F0111422F9A0D00C0002CC2
:100350006BB900C000C0002C7BB900C000C047FFD3
:100360006BB932812227889400C0002C6BB93111FF
:100370003C0F00C0002C7BB900C000C046FF6BB929
:1003800008F43FEFEB0DF11D00C0002C6BB9D0FC61
:10039000230F00C0002C7BB900C000C045FF6BB923
:1003A00027958894D1FC230F00C0002C6BB92795AA
:1003B000889400C0002C7BB900C000C044FF6BB91A
:1003C000D2FC230F2795889400C0002C6BB9D3FC76
:1003D000230F00C0002C7BB900C000C043FF6BB9E5
:1003E00027958894D4FC230F00C0002C6BB9279567
:1003F000889400C0002C7BB900C000C042FF6BB9DC
:10040000D5FC230F2795889400C0002C6BB9D6FC2F
:10041000230F00C0002C7BB900C000C041FF6BB9A6
:1004200027958894D7FC230F00C0002C6BB9279523
:10043000889400C0002C7BB900C000C040FF6BB99D
:10044000432FD110422FC19500C0002C6BB9CE0DA7
:1004500000C000C07BB900C000C047FF6BB931814C
:100460002227889400C0002C6BB93111380F00C0CE
:10047000002C7BB900C000C046FF6BB908F43FEF09
:100480008195889400C0002C6BB910FD230F00C02B
:10049000002C7BB900C000C045FF6BB9279588943C
:1004A00011FD230F00C0002C6BB92795889400C064
:1004B000002C7BB900C000C044FF6BB912FD230FB4
:1004C0002795889400C0002C6BB913FD230F00C042
:1004D000002C7BB900C000C043FF6BB927958894FE
:1004E00014FD230F00C0002C6BB92795889400C021
:1004F000002C7BB900C000C042FF6BB915FD230F73
:100500002795889400C0002C6BB916FD230F00C0FE
:10051000002C7BB900C000C041FF6BB927958894BF
:1005200017FD230F00C0002C6BB92795889400C0DD
:10053000002C7BB900C000C040FF6BB9432F1111E4
:10054000422F8C0D00C0002C6BB9119709F086CE9C
:1005500020EE31E0D2010E946507DC01CB01F4E01E
:10056000B695A79597958795FA95D1F730E020E055
:10057000B901EAE94E9E040C611D5E9E600D711D7D
:100580001124650D711D860F971FA11DB11D893E98
:1005900043E09407A105B10508F434C0885E934098
:1005A000A109B10942E0B695A795979587954A9517
:1005B000D1F747E0849F080E211D949F200D311D27
:1005C0001124290F311D6091420170E0860F971FA1
:1005D000820F931F409167045091680460916904F1
:1005E00070916A04292F3327420F531F611D711D1B
:1005F00040936704509368046093690470936A049D
:100600008093420178940E946200F301708B6787A7
:10061000DF91CF911F910F91EF90DF90CF90BF901E
:10062000AF908F907F906F905F904F900895539A06
:1006300008950F931F93CF93DF93CDB7DEB76297E3
:100640000FB6F894DEBF0FBECDBF8C01F901DC01FF
:100650001C968C917A8369835C834B835E834D8384
:1006600090819D8791819E8792819F878130F1F44F
:10067000CE0101960E94870083E0888B1A8A198A2E
:10068000D801ED91FC910484F585E02DBE016F5FEA
:100690007F4FC801099562960FB6F894DEBF0FBE72
:1006A000CDBFDF91CF911F910F9108951C861B86BE
:1006B0001A86198618861F82DFCF0F931F93CF9358
:1006C000DF93CDB7DEB762970FB6F894DEBF0FBEEB
:1006D000CDBF8C01F901DC011C968C917A83698372
:1006E0005C834B835E834D8390819D8791819E8740
:1006F00092819F878130E9F4CE0101960E948700A4
:10070000188A1A8A198AD801ED91FC910484F5851A
:10071000E02DBE016F5F7F4FC801099562960FB64D
:10072000F894DEBF0FBECDBFDF91CF911F910F9127
:1007300008951C861B861A86198618861F82E0CFAC
:1007400090E080E00895FC01858596850895CF931B
:10075000DF9300D000D000D0CDB7DEB7AB011C8254
:100760001D821E82DC01ED91FC910190F081E02D53
:1007700019821A821B829E012F5F3F4FBE016C5F60
:100780007F4F099526960FB6F894DEBF0FBECDBFFA
:10079000DF91CF910895BC019C0183E036952795A8
:1007A0008A95E1F7377076FF06C08FEF97E0AC01CE
:1007B000421B530B9A01E32FEE0FEE0FF0E0E050D7
:1007C000FF4F4081518126958281FA01289FE00DDB
:1007D000F11D1124CF0177FF03C0919581959109F7
:1007E00008950E94A0071F920F920FB60F92112436
:1007F0002F933F938F939F93AF93BF938091670401
:1008000090916804A0916904B0916A043091440108
:1008100023E0230F2D3758F50196A11DB11D20931C
:1008200044018093670490936804A0936904B09393
:100830006A048091450190914601A0914701B091D1
:1008400048010196A11DB11D809345019093460179
:10085000A0934701B0934801BF91AF919F918F91B1
:100860003F912F910F900FBE0F901F90189526E883
:10087000230F0296A11DB11DD2CFCF93DF9300D0DD
:100880001F92CDB7DEB7789484B5826084BD84B5FD
:10089000816084BD85B5826085BD85B5816085BD7B
:1008A00080916E00816080936E0010928100809133
:1008B00081008260809381008091810081608093BB
:1008C0008100809180008160809380008091B100E0
:1008D00084608093B1008091B00081608093B0000B
:1008E00080917A00846080937A0080917A0082609F
:1008F00080937A0080917A00816080937A00809161
:100900007A00806880937A001092C10080915C0127
:10091000811145C010924E0110924D018FEF8093CE
:10092000510180935201809353018093540180932D
:1009300055018093560181E080935701109259012F
:10094000109258011092500110924F018091710441
:1009500090917204892B31F48BE491E090937204AE
:1009600080937104E0914901F0914A01309721F0A0
:100970008BE491E0958384838BE491E090934A012A
:100980008093490110925B0110925A0183E391E038
:1009900090934C0180934B0181E080935C01539ACA
:1009A00087E691E090934E0180934D0180E091E0C5
:1009B000909359018093580180917A0490917B041F
:1009C000A0917C04B0917D04843C29E09207A105AC
:1009D000B10520F484EC99E0A0E0B0E080937A04C3
:1009E00090937B04A0937C04B0937D048FEF80935D
:1009F000510180EB8093520180EF8093530188EC8A
:100A0000809377040FE0202E312C1BEAE12E8FB764
:100A1000F8948090670490906804A0906904B09066
:100A20006A048FBF2BE1289DC001299D900D1124E0
:100A3000905C0E94CB038C0127E2289DC001299D78
:100A4000900D1124905C0E94CB0323E130E0DC0187
:100A50000E94650720E030E840E050E00E94460731
:100A6000D22E25E130E0D8010E94650720E030E871
:100A700040E050E00E944607F22EFA2D50E040E0A0
:100A8000E0E015E50AEAFF0D2F2FB0E15B2E30E024
:100A90008E2F8170482E2D0D442041F1822D831B15
:100AA000840F952F911D0196BC01660F771F860F4D
:100AB000971F8C599E4F722F770F770F770F672FE5
:100AC000619F060E60E0611D1124A22FA074B22F59
:100AD000B0727B2E27FD01C1A111ECC0B1110AC07B
:100AE000762F7095C62E672F70E009C0CA01830F5C
:100AF000911DD9CF75E5C72EC60E70E06BEADC01FB
:100B00006C931196CC92119712967C933F5F5A94F6
:100B10005110C1CFEF5F405F5F4F4115B1E05B0700
:100B200009F0B1CFE8E88E16E3E19E06A104B10416
:100B300008F0F2C09A2D892D782D662728E833E138
:100B400040E050E00E94240738EC329F030E30E072
:100B5000311D112430937704F090770480917A044A
:100B600090917B04A0917C04B0917D04892B8A2B09
:100B70008B2BD9F00E9462000091730410917404D1
:100B80002091750430917604601B710B820B930BDE
:100B900000917A0410917B0420917C0430917D04B3
:100BA0006017710782079307C8F20E946200609382
:100BB0007304709374048093750490937604E091A9
:100BC0008204F0918304309759F040917E04509153
:100BD0007F0460918004709181048F2D0995F82E17
:100BE00000917104109172044F2C512C712C612CC6
:100BF0000115110509F494C0D8011C96BC901C97EE
:100C000080917804909179048436910510F41C96B3
:100C10001C92D801ED91FC918280938019821A82F6
:100C20001B82FF2089F1F8013696D12CC12C21912D
:100C3000222319F1A280AA2001F130E050E040E027
:100C40002F5F3F4F4F4F5F4FC301B2010E9400071C
:100C50009B01AC018A2D90E0B0E0A0E0BC01CD0189
:100C60006F5F7F4F8F4F9F4F0E940007A1E0B0E062
:100C7000AC0FBD1FAC0DBD1D8C93BFEFCB1ADB0AB3
:100C800023E0C216D10499F6D8011D964D915C91CE
:100C90001E9712966D917C919E012F5F3F4FC80168
:100CA000F4010995D8011C96BC921C9714960D91DD
:100CB0001C919ECFB1110CC0709F070E70E0711D8A
:100CC0001124AE2DA71B7A2FBAEACB2EC60E0BCF5E
:100CD000C62EC094762F60E012CFA1110FC0B111C3
:100CE00009C0709F070E70E0711D1124CE2CC71A29
:100CF0007B5AF1CF762F7095C12C01CFB11107C06F
:100D0000A5E5CA2EC60E7E2D761B6C2DF5CF7AEA90
:100D1000C72EC60E712FF8CF88EC809377041CCFB6
:100D200080916F04909170049C012F5F3F4F30932E
:100D3000700420936F0449970CF44AC08FB7F8945D
:100D400020916704309168044091690450916A04CD
:100D50008FBF80916B0490916C04A0916D04B09151
:100D60006E04281B390B4A0B5B0B21F421E030E0A9
:100D700040E050E080916F0490917004E8EEF3E061
:100D80008E9FB0018F9F700D9E9F700D1124072EB6
:100D9000000C880B990B0E94240730937904209350
:100DA00078041092700410926F042FB7F894809119
:100DB000670490916804A0916904B0916A042FBF00
:100DC00080936B0490936C04A0936D04B0936E04B5
:100DD00080E090E0892B09F41ACE0E94000015CE25
:100DE000E7E7F4E08FEF8083128211821486138686
:100DF0008FEF9FEFDC0187839087A187B2870895EB
:100E0000DB018F939F930E946C07BF91AF91A29FCC
:100E1000800D911DA39F900DB29F900D11240895F8
:100E200097FB072E16F4009407D077FD09D00E9497
:100E3000770707FC05D03EF4909581959F4F089564
:100E4000709561957F4F0895A1E21A2EAA1BBB1BD6
:100E5000FD010DC0AA1FBB1FEE1FFF1FA217B30786
:100E6000E407F50720F0A21BB30BE40BF50B661F9C
:100E7000771F881F991F1A9469F760957095809560
:100E800090959B01AC01BD01CF010895052E97FB04
:100E90001EF400940E945D0757FD07D00E942407AE
:100EA00007FC03D04EF40C945D07509540953095A7
:100EB00021953F4F4F4F5F4F0895909580957095C6
:100EC00061957F4F8F4F9F4F08950E949107B7FF05
:100ED0000895821B930B08950E949107A59F900D82
:100EE000B49F900DA49F800D911D11240895AA1BFD
:100EF000BB1B51E107C0AA1FBB1FA617B70710F005
:100F0000A61BB70B881F991F5A95A9F78095909536
:100F1000BC01CD010895EE0FFF1F0590F491E02D67
:100F20000994A29FB001B39FC001A39F700D811DC2
:100F30001124911DB29F700D811D1124911D0895E2
:0E0F400081E090E0F8940C94A507F894FFCFA0
:100F4E0000003100F9183000FB302C001C47260041
:100F5E00825A1F006D6A170041760E00897D0400CB
:100F6E00000000F103F103F103A703A303A00300A4
:100F7E000000005D0319031703A703A3035F00C45A
:020F8E00000061
:00000001FF
