:100000000C9435000C945D000C945D000C945D0024
:100010000C945D000C945D000C945D000C945D00EC
:100020000C945D000C945D000C945D000C945D00DC
:100030000C945D000C945D000C945D000C945D00CC
:100040000C940C040C945D000C945D000C945D0009
:100050000C945D000C945D000C945D000C945D00AC
:100060000C945D000C945D00840711241FBECFEF3B
:10007000D8E0DEBFCDBF11E0A0E0B1E0E8E3F0E101
:1000800002C005900D92A634B107D9F724E0A6E48A
:10009000B1E001C01D92A53AB207E1F710E0C5E357
:1000A000D0E004C02197FE010E940008C433D107AC
:1000B000C9F70E9456040C941A080C94000080E9B9
:1000C00091E008953FB7F89480914D0190914E01D1
:1000D000A0914F01B091500126B5A89B05C02F3FBC
:1000E00019F00196A11DB11D3FBFBA2FA92F982F5E
:1000F0008827BC01CD01620F711D811D911D42E059
:10010000660F771F881F991F4A95D1F708952FB75B
:10011000F8946091490170914A0180914B0190914E
:100120004C012FBF08950F931F93CF93DF9320911E
:1001300047012F5F322F37703093470120FF2BC0CC
:1001400020E831FD2064347009F02062205FFC015A
:10015000EC01239600E011E06485662329F070E04D
:10016000C8010E94A4076F5F6187322F369F030E7C
:1001700030E0311D1124311110C01682662311F0B8
:10018000615061873196EC17FD0731F7DF91CF9110
:100190001F910F91089520E0D4CF31503683EECFD8
:1001A0004F925F926F927F928F92AF92BF92CF9257
:1001B000DF92EF920F931F93CF93DF933C01EB01FC
:1001C0000E946200F30127853089621B730B6A303D
:1001D0007105B0F3F894E881F9817BB178606BB177
:1001E000677F6BB9CA848F812C2D281B822F2F83A8
:1001F000BF844A805B801D850C85DE841F5F0F5F96
:10020000D3949E813885A984EB844181D20120E07A
:10021000C32F522F322F3181442788943111380F48
:1002200008F43FEF8195889410FD430F479588941B
:1002300011FD430F4795889412FD430F479588940D
:1002400013FD430F4795889414FD430F47958894F9
:1002500015FD430F4795889416FD430F47958894E5
:1002600017FD430F47958894232F1111242F8C0DD0
:10027000422F002C7BB900C047FF6BB93081222789
:10028000889400C000C0002C6BB93111390F00C038
:10029000002C7BB900C046FF6BB908F43FEF919585
:1002A000889400C000C0002C6BB900FD230F00C073
:1002B000002C7BB900C045FF6BB92795889401FDE0
:1002C000230F00C000C0002C6BB92795889400C094
:1002D000002C7BB900C044FF6BB902FD230F2795AA
:1002E000889400C000C0002C6BB903FD230F00C030
:1002F000002C7BB900C043FF6BB92795889404FD9F
:10030000230F00C000C0002C6BB92795889400C053
:10031000002C7BB900C042FF6BB905FD230F279568
:10032000889400C000C0002C6BB906FD230F00C0EC
:10033000002C7BB900C041FF6BB92795889407FD5D
:10034000230F00C000C0002C6BB92795889400C013
:10035000002C7BB900C040FF6BB9432F0111422F25
:100360009A0D00C000C0002C6BB900C000C0002C6A
:100370007BB900C047FF6BB932812227889400C047
:1003800000C0002C6BB931113C0F00C0002C7BB9B0
:1003900000C046FF6BB908F43FEFEB0DF11D00C044
:1003A00000C0002C6BB9D0FC230F00C0002C7BB91F
:1003B00000C045FF6BB927958894D1FC230F00C07E
:1003C00000C0002C6BB92795889400C0002C7BB925
:1003D00000C044FF6BB9D2FC230F2795889400C05E
:1003E00000C0002C6BB9D3FC230F00C0002C7BB9DC
:1003F00000C043FF6BB927958894D4FC230F00C03D
:1004000000C0002C6BB92795889400C0002C7BB9E4
:1004100000C042FF6BB9D5FC230F2795889400C01C
:1004200000C0002C6BB9D6FC230F00C0002C7BB998
:1004300000C041FF6BB927958894D7FC230F00C0FB
:1004400000C0002C6BB92795889400C0002C7BB9A4
:1004500000C040FF6BB9432FD110422FC19500C09F
:1004600000C0002C6BB9CE0D00C000C07BB900C02D
:1004700047FF6BB931812227889400C000C0002C4F
:100480006BB93111380F00C0002C7BB900C046FF9A
:100490006BB908F43FEF8195889400C000C0002C30
:1004A0006BB910FD230F00C0002C7BB900C045FFC5
:1004B0006BB92795889411FD230F00C000C0002C54
:1004C0006BB92795889400C0002C7BB900C044FF0D
:1004D0006BB912FD230F2795889400C000C0002C33
:1004E0006BB913FD230F00C0002C7BB900C043FF84
:1004F0006BB92795889414FD230F00C000C0002C11
:100500006BB92795889400C0002C7BB900C042FFCE
:100510006BB915FD230F2795889400C000C0002CEF
:100520006BB916FD230F00C0002C7BB900C041FF42
:100530006BB92795889417FD230F00C000C0002CCD
:100540006BB92795889400C0002C7BB900C040FF90
:100550006BB9432F1111422F8C0D00C000C0002C2D
:100560006BB9119709F086CE20EE31E0D2010E94DE
:10057000DA07DC01CB01F4E0B695A795979587954E
:10058000FA95D1F730E020E0B901EAE94E9E040C7B
:10059000611D5E9E600D711D1124650D711D860F1C
:1005A000971FA11DB11D893E43E09407A105B10528
:1005B00008F434C0885E9340A109B10942E0B695C1
:1005C000A795979587954A95D1F747E0849F080EA0
:1005D000211D949F200D311D1124290F311D609183
:1005E000460170E0860F971F820F931F40914901CB
:1005F00050914A0160914B0170914C01292F332792
:10060000420F531F611D711D4093490150934A01D0
:1006100060934B0170934C018093460178940E9443
:100620006200F301708B6787DF91CF911F910F916B
:10063000EF90DF90CF90BF90AF908F907F906F90B2
:100640005F904F900895539A08950F931F93CF93FF
:10065000DF93CDB7DEB762970FB6F894DEBF0FBE5B
:10066000CDBF8C01F901DC011C968C917A836983E2
:100670005C834B835E834D8390819D8791819E87B0
:1006800092819F878130F1F4CE0101960E94930000
:1006900083E0888B1A8A198AD801ED91FC91048431
:1006A000F585E02DBE016F5F7F4FC8010995629609
:1006B0000FB6F894DEBF0FBECDBFDF91CF911F9173
:1006C0000F9108951C861B861A86198618861F822C
:1006D000DFCF0F931F93CF93DF93CDB7DEB7629732
:1006E0000FB6F894DEBF0FBECDBF8C01F901DC015F
:1006F0001C968C917A8369835C834B835E834D83E4
:1007000090819D8791819E8792819F878130E9F4B6
:10071000CE0101960E949300188A1A8A198AD8017C
:10072000ED91FC910484F585E02DBE016F5F7F4F54
:10073000C801099562960FB6F894DEBF0FBECDBF13
:10074000DF91CF911F910F9108951C861B861A8609
:10075000198618861F82E0CF90E080E00895FC01A2
:10076000858596850895CF93DF9300D000D000D083
:10077000CDB7DEB7AB011C821D821E82DC01ED917C
:10078000FC910190F081E02D19821A821B829E015A
:100790002F5F3F4FBE016C5F7F4F099526960FB6C6
:1007A000F894DEBF0FBECDBFDF91CF910895CF92F9
:1007B000DF92EF92FF921F93CF93DF93EC010E94A1
:1007C0008700C880D980EA80FB80DC01CB018C19CE
:1007D0009D09AE09BF09CC80DD80EE80FF8011E06D
:1007E0008C159D05AE05BF0508F410E08C159D0520
:1007F000AE05BF0530F00E948700688379838A8345
:100800009B83812FDF91CF911F91FF90EF90DF901D
:10081000CF9008950E9415081F920F920FB60F9265
:1008200011242F933F938F939F93AF93BF93809106
:10083000490190914A01A0914B01B0914C01309136
:10084000480123E0230F2D3758F50196A11DB11D56
:10085000209348018093490190934A01A0934B0152
:10086000B0934C0180914D0190914E01A0914F01A8
:10087000B09150010196A11DB11D80934D0190933F
:100880004E01A0934F01B0935001BF91AF919F9142
:100890008F913F912F910F900FBE0F901F90189541
:1008A00026E8230F0296A11DB11DD2CFCF93DF936F
:1008B00000D000D01F92CDB7DEB7789484B58260A7
:1008C00084BD84B5816084BD85B5826085BD85B5F4
:1008D000816085BD80916E00816080936E00109272
:1008E00081008091810082608093810080918100ED
:1008F000816080938100809180008160809380007E
:100900008091B10084608093B1008091B0008160DB
:100910008093B00080917A00846080937A00809107
:100920007A00826080937A0080917A00816080935F
:100930007A0080917A00806880937A001092C100DA
:1009400080916401811145C01092560110925501A9
:100950008FEF8093590180935A0180935B018093BC
:100960005C0180935D0180935E0181E080935F0173
:10097000109261011092600110925801109257017B
:100980008091920490919304892B31F483E591E056
:100990009093930480939204E0915101F09152015D
:1009A000309721F083E591E09583848383E591E09E
:1009B0009093520180935101109263011092620151
:1009C00088E191E0909354018093530181E08093FA
:1009D0006401539A8CE791E09093560180935501FE
:1009E00080E091E0909361018093600180919B048D
:1009F00090919C04A0919D04B0919E04843C29E0B8
:100A00009207A105B10520F484EC99E0A0E0B0E0E4
:100A100080939B0490939C04A0939D04B0939E04A8
:100A200084EB80939804A9E02A2E312CB5E5EB2EB7
:100A30000E9487009B01AC0160E070E986E090E0D5
:100A40000E949407AC0166277727CA01F3E09695C8
:100A50008795FA95E1F797709A0122273074232B36
:100A600029F0AFEFB7E0A81BB90BCD01E92FEE0FCE
:100A7000EE0FF0E0EA5DFE4FB081BC8321812D8353
:100A800086959281AC81BD81899FA00DB11D1124F5
:100A9000CD0157FF03C09195819591099058829D92
:100AA0004001939D500120E0929D900CA11CB21E2C
:100AB000839D900CA11CB21E1124880E991EA21EAB
:100AC000B21E80918404811119C00E948700609336
:100AD0007C0470937D0480937E0490937F0464E192
:100AE00070E080E090E060938004709381048093D4
:100AF00082049093830481E0809384048CE794E0E3
:100B00000E94D703882309F49AC035017FEF671A42
:100B1000770A30E020E04BEA1AEA261537050CF098
:100B20008EC08091000190910101A5E0B8E08A9FFC
:100B300040018B9F900C9A9F900C1124B7EE8B1A5A
:100B4000B9EC9B0A9092010180920001B12CA12C7A
:100B5000892C9A2CAB2CBB24C4016401CC0CDD1C69
:100B6000F601E80DF91DE458FE4F5081511134C0D3
:100B70005181511131C0E281E1112EC06AE070E073
:100B80000E94A40780910201680F962F990F990F78
:100B9000990F592F7E2D579F050E50E0511D11249E
:100BA000852FF62FF074762F707267FD29C0F11132
:100BB00016C0711105C0952F9095892F90E004C043
:100BC00055E5580F90E08BEAF601E80DF91DE45861
:100BD000FE4F8083518392832F5F3F4F9ECF7111D1
:100BE0000BC0592F519F050E50E0511D1124942F19
:100BF000951B5AEA580FE1CF5095982F80E0E4CF2B
:100C0000F11111C071110BC0592F519F050E50E009
:100C1000511D1124952F542F591B9B5AEFCF952FFF
:100C2000909550E0D1CF711106C055E5580F942F23
:100C3000981B852FF6CF5AEA580F9E2DF9CF809139
:100C40007401811119C00E94870060936C01709338
:100C50006D0180936E0190936F0168E270E080E017
:100C600090E0609370017093710180937201909392
:100C7000730181E0809374018CE691E00E94D703B8
:100C8000882349F08091020190910301019790938C
:100C9000030180930201ECE7F1E08CE794E03BEF85
:100CA0002081239F020E20E0211D20832181239F8C
:100CB000020E20E0211D21832281239F020E20E0CD
:100CC000211D2283112433968E179F0749F7F09038
:100CD000980480919B0490919C04A0919D04B091F4
:100CE0009E04892B8A2B8B2BD9F00E9462000091E5
:100CF0009404109195042091960430919704601B00
:100D0000710B820B930B00919B0410919C0420911A
:100D10009D0430919E046017710782079307C8F203
:100D20000E946200609394047093950480939604EB
:100D300090939704E091A304F091A404309759F0A4
:100D400040919F045091A0046091A1047091A2046D
:100D50008F2D0995F82E00919204109193044F2C39
:100D6000512C712C612C0115110509F45EC0D801BC
:100D70001C96BC901C978091990490919A0484369B
:100D8000910510F41C961C92D801ED91FC91828083
:100D9000938019821A821B82FF2089F1F80136960E
:100DA000D12CC12C2191222319F1A280AA2001F17A
:100DB00030E050E040E02F5F3F4F4F4F5F4FC301A7
:100DC000B2010E9494079B01AC018A2D90E0B0E033
:100DD000A0E0BC01CD016F5F7F4F8F4F9F4F0E94FE
:100DE0009407A1E0B0E0AC0FBD1FAC0DBD1D8C930E
:100DF000BFEFCB1ADB0A23E0C216D10499F6D80163
:100E00001D964D915C911E9712966D917C919E015D
:100E10002F5F3F4FC801F4010995D8011C96BC9281
:100E20001C9714960D911C919ECF809190049091E7
:100E300091048C010F5F1F4F109391040093900455
:100E40004997B4F10E94870080908C0490908D04A3
:100E5000A0908E04B0908F049B01AC012819390931
:100E60004A095B0921F421E030E040E050E088EEDF
:100E700093E0089FB001099F700D189F700D112419
:100E8000072E000C880B990B0E94B80730939A0428
:100E90002093990410929104109290040E9487006C
:100EA00060938C0470938D0480938E0490938F04D0
:100EB0000E9462002B013C0185E0882E912CA12C20
:100EC000B12C0E9462006419750986099709683E71
:100ED000734081059105A8F3B1E08B1A9108A10830
:100EE000B108E8EE4E0EE3E05E1E611C711C811439
:100EF0009104A104B10429F780E090E0892B09F462
:100F000097CD0E9400008FCDE8E9F4E08FEF808359
:100F100012821182148613868FEF9FEFDC01878384
:100F20009087A187B2870895DB018F939F930E94DA
:100F3000E107BF91AF91A29F800D911DA39F900DDE
:100F4000B29F900D1124089597FB072E16F400947C
:100F500007D077FD09D00E94EC0707FC05D03EF4CE
:100F6000909581959F4F0895709561957F4F089555
:100F7000A1E21A2EAA1BBB1BFD010DC0AA1FBB1F9D
:100F8000EE1FFF1FA217B307E407F50720F0A21B0F
:100F9000B30BE40BF50B661F771F881F991F1A947C
:100FA00069F760957095809590959B01AC01BD01A6
:100FB000CF0108950E940608B7FF0895821B930B86
:100FC00008950E940608A59F900DB49F900DA49FC0
:100FD000800D911D11240895AA1BBB1B51E107C070
:100FE000AA1FBB1FA617B70710F0A61BB70B881FB9
:100FF000991F5A95A9F780959095BC01CD01089548
:10100000EE0FFF1F0590F491E02D0994A29FB0010F
:10101000B39FC001A39F700D811D1124911DB29F2C
:10102000700D811D1124911D089581E090E0F894C8
:081030000C941A08F894FFCF9C
:1010380039053200000000000A040A040A04B30358
:10104800AF03AC0300000000690325032303B303C7
:10105800AF035F00D00000003100F9183000FB300A
:101068002C001C472600825A1F006D6A1700417623
:061078000E00897D04005A
:00000001FF
