:100000000C945D000C9485000C9485000C94850084
:100010000C9485000C9485000C9485000C9485004C
:100020000C9485000C9485000C9485000C9485003C
:100030000C9485000C9485000C9485000C9485002C
:100040000C9414040C9485000C9485000C94850089
:100050000C9485000C9485000C9485000C9485000C
:100060000C9485000C94850000000008000201003B
:100070000003040700000000000000000000000072
:10008000250028002B0000000000240027002A0083
:10009000040404040404040402020202020203032E
:1000A0000303030301020408102040800102040836
:1000B0001020010204081020660711241FBECFEF94
:1000C000D8E0DEBFCDBF11E0A0E0B1E0ECEFFFE093
:1000D00002C005900D92A232B107D9F724E0A2E246
:1000E000B1E001C01D92A436B207E1F710E0CDE502
:1000F000D0E004C02197FE010E94E207CC35D10771
:10010000C9F70E945E040C94FC070C94000090E078
:10011000FC01EC55FF4F249180579F4FFC018491C7
:10012000882399F090E0880F991FFC01EA57FF4F50
:10013000A591B491FC01E458FF4F859194918FB73C
:10014000F894EC91E22BEC938FBF089580E991E055
:1001500008953FB7F8948091250190912601A091D0
:100160002701B091280126B5A89B05C02F3F19F0A3
:100170000196A11DB11D3FBFBA2FA92F982F882727
:10018000BC01CD01620F711D811D911D42E0660F02
:10019000771F881F991F4A95D1F708950F931F93D2
:1001A000CF93DF93209123012F5F322F377030934D
:1001B000230120FF2BC020E831FD2064347009F0BA
:1001C0002062205FFC01EC01239600E011E06485D1
:1001D000662329F070E0C8010E9486076F5F61877F
:1001E000322F369F030E30E0311D1124311110C023
:1001F0001682662311F0615061873196EC17FD0776
:1002000031F7DF91CF911F910F91089520E0D4CF66
:1002100031503683EECF4F925F926F927F928F92E2
:10022000AF92BF92CF92DF92EF920F931F93CF9333
:10023000DF933C01EB010E94A900F301278530897F
:10024000621B730B6A307105B0F3F894E881F98191
:100250007BB178606BB1677F6BB9CA848F812C2DBD
:10026000281B822F2F83BF844A805B801D850C85CD
:10027000DE841F5F0F5FD3949E813885A984EB8451
:100280004181D20120E0C32F522F322F31814427E8
:1002900088943111380F08F43FEF8195889410FD50
:1002A000430F4795889411FD430F4795889412FD9D
:1002B000430F4795889413FD430F4795889414FD89
:1002C000430F4795889415FD430F4795889416FD75
:1002D000430F4795889417FD430F47958894232F24
:1002E0001111242F8C0D422F002C7BB900C047FF29
:1002F0006BB930812227889400C000C0002C6BB9F4
:100300003111390F00C0002C7BB900C046FF6BB91A
:1003100008F43FEF9195889400C000C0002C6BB9A1
:1003200000FD230F00C0002C7BB900C045FF6BB956
:100330002795889401FD230F00C000C0002C6BB9E5
:100340002795889400C0002C7BB900C044FF6BB98E
:1003500002FD230F2795889400C000C0002C6BB9C4
:1003600003FD230F00C0002C7BB900C043FF6BB915
:100370002795889404FD230F00C000C0002C6BB9A2
:100380002795889400C0002C7BB900C042FF6BB950
:1003900005FD230F2795889400C000C0002C6BB981
:1003A00006FD230F00C0002C7BB900C041FF6BB9D4
:1003B0002795889407FD230F00C000C0002C6BB95F
:1003C0002795889400C0002C7BB900C040FF6BB912
:1003D000432F0111422F9A0D00C000C0002C6BB9B1
:1003E00000C000C0002C7BB900C047FF6BB9328150
:1003F0002227889400C000C0002C6BB931113C0F3B
:1004000000C0002C7BB900C046FF6BB908F43FEF79
:10041000EB0DF11D00C000C0002C6BB9D0FC230F08
:1004200000C0002C7BB900C045FF6BB927958894AC
:10043000D1FC230F00C000C0002C6BB92795889415
:1004400000C0002C7BB900C044FF6BB9D2FC230F65
:100450002795889400C000C0002C6BB9D3FC230FF3
:1004600000C0002C7BB900C043FF6BB9279588946E
:10047000D4FC230F00C000C0002C6BB927958894D2
:1004800000C0002C7BB900C042FF6BB9D5FC230F24
:100490002795889400C000C0002C6BB9D6FC230FB0
:1004A00000C0002C7BB900C041FF6BB92795889430
:1004B000D7FC230F00C000C0002C6BB9279588948F
:1004C00000C0002C7BB900C040FF6BB9432FD11096
:1004D000422FC19500C000C0002C6BB9CE0D00C0EA
:1004E00000C07BB900C047FF6BB9318122278894D7
:1004F00000C000C0002C6BB93111380F00C0002CB7
:100500007BB900C046FF6BB908F43FEF8195889432
:1005100000C000C0002C6BB910FD230F00C0002CE0
:100520007BB900C045FF6BB92795889411FD230F57
:1005300000C000C0002C6BB92795889400C0002C27
:100540007BB900C044FF6BB912FD230F2795889437
:1005500000C000C0002C6BB913FD230F00C0002C9D
:100560007BB900C043FF6BB92795889414FD230F16
:1005700000C000C0002C6BB92795889400C0002CE7
:100580007BB900C042FF6BB915FD230F27958894F6
:1005900000C000C0002C6BB916FD230F00C0002C5A
:1005A0007BB900C041FF6BB92795889417FD230FD5
:1005B00000C000C0002C6BB92795889400C0002CA7
:1005C0007BB900C040FF6BB9432F1111422F8C0D36
:1005D00000C000C0002C6BB9119709F086CE20EE48
:1005E00031E0D2010E94BC07DC01CB01F4E0B695FA
:1005F000A79597958795FA95D1F730E020E0B90156
:10060000EAE94E9E040C611D5E9E600D711D112471
:10061000650D711D860F971FA11DB11D893E43E019
:100620009407A105B10508F434C0885E9340A10980
:10063000B10942E0B695A795979587954A95D1F768
:1006400047E0849F080E211D949F200D311D112429
:10065000290F311D6091220170E0860F971F820FD4
:10066000931F40914501509146016091470170915F
:100670004801292F3327420F531F611D711D4093DD
:100680004501509346016093470170934801809360
:10069000220178940E94A900F301708B6787DF9193
:1006A000CF911F910F91EF90DF90CF90BF90AF90BF
:1006B0008F907F906F905F904F900895539A089518
:1006C0000F931F93CF93DF93CDB7DEB762970FB62B
:1006D000F894DEBF0FBECDBF8C01F901DC011C9682
:1006E0008C917A8369835C834B835E834D83908195
:1006F0009D8791819E8792819F878130F1F4CE0101
:1007000001960E94CE0083E0888B1A8A198AD8014C
:10071000ED91FC910484F585E02DBE016F5F7F4F64
:10072000C801099562960FB6F894DEBF0FBECDBF23
:10073000DF91CF911F910F9108951C861B861A8619
:10074000198618861F82DFCF0F931F93CF93DF93F5
:10075000CDB7DEB762970FB6F894DEBF0FBECDBF40
:100760008C01F901DC011C968C917A8369835C838E
:100770004B835E834D8390819D8791819E8792817B
:100780009F878130E9F4CE0101960E94CE00188A3D
:100790001A8A198AD801ED91FC910484F585E02D1F
:1007A000BE016F5F7F4FC801099562960FB6F8943E
:1007B000DEBF0FBECDBFDF91CF911F910F91089586
:1007C0001C861B861A86198618861F82E0CF90E049
:1007D00080E00895FC01858596850895CF93DF9389
:1007E00000D000D000D0CDB7DEB7AB011C821D8297
:1007F0001E82DC01ED91FC910190F081E02D1982C7
:100800001A821B829E012F5F3F4FBE016C5F7F4F9C
:10081000099526960FB6F894DEBF0FBECDBFDF91C7
:10082000CF9108950E94F7071F920F920FB60F9273
:1008300011242F933F938F939F93AF93BF938091F6
:10084000450190914601A0914701B0914801309136
:10085000240123E0230F2D3758F50196A11DB11D6A
:10086000209324018093450190934601A093470172
:10087000B09348018091250190912601A091270114
:10088000B09128010196A11DB11D8093250190937F
:100890002601A0932701B0932801BF91AF919F91AA
:1008A0008F913F912F910F900FBE0F901F90189531
:1008B00026E8230F0296A11DB11DD2CFCF93DF935F
:1008C00000D01F92CDB7DEB7789484B5826084BD26
:1008D00084B5816084BD85B5826085BD85B5816044
:1008E00085BD80916E00816080936E0010928100C2
:1008F000809181008260809381008091810081607D
:10090000809381008091800081608093800080913D
:10091000B10084608093B1008091B00081608093C9
:10092000B00080917A00846080937A0080917A0090
:10093000826080937A0080917A00816080937A004F
:1009400080917A00806880937A001092C1001FB76E
:10095000F89480912901811146C02AE930E0F9011B
:1009600084914EEA50E0FA019491E82FF0E0EE0F06
:10097000FF1FEA57FF4FA591B4918C91982321F561
:10098000E2E7F0E08491FA014491F90124912223F5
:10099000D9F0882359F0833009F4EDC008F0E0C0A5
:1009A000813009F4EEC0823009F4EFC0E22FF0E0AC
:1009B000EE0FFF1FE458FF4FA591B4918FB7F89445
:1009C0009C91492B4C938FBF8AE00E9487008CB585
:1009D00080618CBD8CB580648CBD8DE00E948700E9
:1009E0008BE00E948700809129018F5F809329010D
:1009F0001FBF80913D01811145C010922F011092BF
:100A00002E018FEF80933201809333018093340164
:100A100080933501809336018093370181E0809384
:100A2000380110923A01109239011092310110925E
:100A3000300180914F0190915001892B31F48CE26B
:100A400091E09093500180934F01E0912A01F09141
:100A50002B01309721F08CE291E0958384838CE226
:100A600091E090932B0180932A0110923C01109207
:100A70003B0184E191E090932D0180932C0181E072
:100A800080933D01539A82E691E090932F018093E9
:100A90002E0180E091E090933A018093390180919A
:100AA000580190915901A0915A01B0915B01843C89
:100AB000F9E09F07A105B10520F484EC99E0A0E0DE
:100AC000B0E08093580190935901A0935A01B093DC
:100AD0005B0184EB80935501B12C62E671E020E16B
:100AE00030E0A8E0B0E085E5982E69011A161B06F3
:100AF00024F0CC24DD24C21AD30AFB0100EFE02E3F
:100B0000FF24FA9448E050E0CA01880F991F141698
:100B100015060CF0C7018C0D9D1D880F880FA09045
:100B20006204A80E8A2D880F880F880F082F192DB0
:100B3000019F000E00E0011D1124902F0A2D00746A
:100B4000702E1A2D1072812EA7FCB5C001119DC008
:100B5000111128C0892F8095A92E982F80E027C0D9
:100B60008730B1F08830D1F0843009F01FCF809108
:100B700080008F7D03C0809180008F7780938000FC
:100B800015CF84B58F7784BD11CF84B58F7DFBCF12
:100B90008091B0008F778093B00008CF8091B00033
:100BA0008F7DF9CF05E5A02EA90E80E09BEA90830A
:100BB000A182828341505109339612E0E10EF11C6B
:100BC000483F8FEF580709F09FCF11972250310906
:100BD000605D7F4F203FEFEF3E0709F086CFA0908A
:100BE00055018091580190915901A0915A01B091FD
:100BF0005B01892B8A2B8B2B09F080C00E94A900F6
:100C0000609351017093520180935301909354016A
:100C1000E0916001F0916101309709F08CC0E090A3
:100C20004F01F09050014A2C512C712C612CE11491
:100C3000F10409F4BEC0D7011C963C901C9780912A
:100C40005601909157018436910510F41C961C9220
:100C5000D701ED91FC918280938019821A821B82C8
:100C6000A11075C0F70145855685628173819E018B
:100C70002F5F3F4FC701F4010995D7011C963C92A5
:100C80001C971496ED90FC90D2CF11110FC0082F35
:100C90001AEA019F000E00E0011D1124802F0BEACB
:100CA000081B802F1AEAA12EA90E57CFA92EA094B7
:100CB000892F90E07CCF011113C011110DC0182FA6
:100CC0000AEA109F010E10E0111D1124812F9BEAEA
:100CD000A92EA11A8B5AEDCF892F8095A12C67CF11
:100CE000111107C005E5A02EA90E8BEA891B9A2DCC
:100CF000F5CF1AEAA12EA90E892DF8CF0E94A900DE
:100D0000C0905101D0905201E0905301F0905401F5
:100D10006C197D098E099F09C0905801D090590126
:100D2000E0905A01F0905B016C157D058E059F05E2
:100D300008F457CF63CF40915C0150915D01609101
:100D40005E0170915F018A2D0995A82E68CFF70189
:100D50003696D12CC12C2191222319F122802220F8
:100D600001F130E050E040E02F5F3F4F4F4F5F4FC9
:100D7000C301B2010E9476079B01AC01822D90E075
:100D8000B0E0A0E0BC01CD016F5F7F4F8F4F9F4F60
:100D90000E947607A1E0B0E0AC0FBD1FAC0DBD1DF9
:100DA0008C93BFEFCB1ADB0A03E0C016D10499F68F
:100DB00059CF80914D0190914E019C012F5F3F4F83
:100DC00030934E0120934D0149970CF44AC08FB7E0
:100DD000F89420914501309146014091470150918E
:100DE00048018FBF8091490190914A01A0914B0128
:100DF000B0914C01281B390B4A0B5B0B21F421E00D
:100E000030E040E050E0E0914D01F0914E0188EE7D
:100E100093E0E89FB001E99F700DF89F700D1124D9
:100E2000072E000C880B990B0E949A0730935701EC
:100E30002093560110924E0110924D012FB7F89455
:100E40008091450190914601A0914701B0914801E0
:100E50002FBF8093490190934A01A0934B01B09317
:100E60004C010E94A9002B013C0183E0C82ED12C2B
:100E7000E12CF12C0E94A9006419750986099709D3
:100E8000683E734081059105A8F311E0C11AD108AD
:100E9000E108F10828EE420E23E0521E611C711C8D
:100EA000C114D104E104F10429F780916204909106
:100EB00063040196909363048093620480E090E061
:100EC000892B09F40ACE0E94000007CEE5E5F1E087
:100ED0008FEF808312821182148613868FEF9FEF2B
:100EE000DC0187839087A187B2870895DB018F9308
:100EF0009F930E94C307BF91AF91A29F800D911D48
:100F0000A39F900DB29F900D1124089597FB072E7B
:100F100016F4009407D077FD09D00E94CE0707FC95
:100F200005D03EF4909581959F4F089570956195F9
:100F30007F4F0895A1E21A2EAA1BBB1BFD010DC015
:100F4000AA1FBB1FEE1FFF1FA217B307E407F50779
:100F500020F0A21BB30BE40BF50B661F771F881F55
:100F6000991F1A9469F760957095809590959B01EB
:100F7000AC01BD01CF0108950E94E807B7FF0895B5
:100F8000821B930B08950E94E807A59F900DB49FC4
:100F9000900DA49F800D911D11240895AA1BBB1BC9
:100FA00051E107C0AA1FBB1FA617B70710F0A61B69
:100FB000B70B881F991F5A95A9F780959095BC018A
:100FC000CD010895EE0FFF1F0590F491E02D0994D7
:100FD000A29FB001B39FC001A39F700D811D11247A
:100FE000911DB29F700D811D1124911D089581E006
:0C0FF00090E0F8940C94FC07F894FFCFFC
:100FFC0000000000120412041204EE03EA03E703DB
:10100C0000000000A40360035E03EE03EA03A600E5
:02101C000B01C6
:00000001FF
