:100000000C9435150C945D150C945D150C945D15D0
:100010000C945D150C945D150C945D150C945D1598
:100020000C945D150C945D150C945D150C945D1588
:100030000C945D150C945D150C945D150C945D1578
:100040000C94321B0C945D150C94A21B0C947C1B1D
:100050000C945D150C945D150C945D150C945D1558
:100060000C945D150C945D1500000000000000006C
:100070000000000000000000000000000000000080
:100080000000000000000000000000000000000070
:100090000000000000000000000000000000000060
:1000A0000000000000000000000000000000000050
:1000B0000000000000000000000000000000000040
:1000C0000000000000000000000000000000000030
:1000D0000000000000000000000000000000000020
:1000E0000000000000000000D8A2FF9AA01CB9BBCD
:1000F000FF99040288D0F7B9D8FFF00620EDE0C8D8
:10010000D0F520EAE090FB29DFC957F007C943D0BA
:10011000D74C00C04C00008D01F060AD04F0F0023F
:1001200038601860B3FFAFFFBBFFBBFF48A5DF4AD5
:1001300005DF85DF684048A5DC4A05DC85DC6840D2
:100140000D0A363530322045684241534943205B21
:10015000435D6F6C642F5B575D61726D203F0000E3
:100160000000170280FF0D02A004B9F6E09900021A
:100170008810F7A2FF86889AA94C85A1A21CBDFA17
:10018000E095BBCAD0F8A212BD17E19500CA10F8DD
:10019000A90085DC85DF85B28567A90E8564A90382
:1001A00085A0A26886652092C8A92AA0E120D3C8AC
:1001B0002040C286C384C420C200D01FA000E61124
:1001C000D008E612A512C9C0F01DA9559111D11190
:1001D000D0150A9111D111F0E5D00C20A6D9A5AC0B
:1001E000C998B0A220F7D4A511A412C00190978598
:1001F00085848685818482A000A2038479867A988A
:100200009179E6792092C82050C3A58538E579AA6E
:10021000A586E57A2082DAA939A0E120D3C8A95AB7
:10022000A0C1850184026C0100200BC1857F848000
:1002300038A5A6E5AAA8A5A7E5ABAAE898F02438B2
:1002400049FF65A685A6B003C6A7389849FF65A4EF
:1002500085A4B008C6A59004B1A691A488D0F9B130
:10026000A691A4C6A7C6A5CAD0F2608578BAE478DC
:10027000903060C482902AD004C581902448A2089E
:100280009848B5A3CA10FA20DFD1A2006895A4E867
:10029000E00830F868A868C4829006D005C581B02F
:1002A0000160A20C2092C8BDA9E6BCAAE620D3C872
:1002B0002089C3A9E6A0E720D3C8A488C8F00320FA
:1002C00077DAA90085DF85DCA9F7A0E720D3C8206D
:1002D0004DC286C384C420C200F0F4A2FF86889079
:1002E00006207EC24CF3C42055C7207EC2845D2008
:1002F00024C39044A001B1AA8572A57B8571A5ABEA
:100300008574A5AA88F1AA18657B857B8573A57C71
:1003100069FF857CE5ABAA38A5AAE57BA8B003E810
:10032000C6741865719003C67218B1719173C8D004
:10033000F9E672E674CAD0F2AD2102F03FA585A4B9
:100340008685818482A57B85A6A47C84A7655D9033
:1003500001C885A484A520C1C0A57FA480857B8415
:100360007CA45D88B91D0291AA88C003D0F6A512AD
:1003700091AA88A51191AA88A9FF91AA2065C3A670
:1003800079A57AA00186718572B171F018A004C8B0
:10039000B171D0FB38986571AAA00091719865720F
:1003A000C8917190E04C67C120EBC820E8C8D00527
:1003B00020EDC8CA2CA20020EAE090FBF0F9C907A2
:1003C000F010C90DF019E000D004C92190E9C90866
:1003D000F0DEE047B00C9D2102E820EDC8D0D84CFB
:1003E00089C8A907D0F4A0FF38A5C3E921AA86606F
:1003F000BD2102F051C95FB04DC93CB00EC930B04B
:1004000045855CC922F061C92A903B24607037861B
:100410007884BAA0108473A0E38474A000D173F030
:10042000059021C8D0F7980AAABD2EE38573BD2F89
:10043000E38574A0FFA678C8B1733008E8DD210217
:10044000F0F5D02BA4BAE8C8992102C900F032E92E
:100450003AF004C949D00285604957D093855CBD04
:100460002102F0E2C55CF0DEC8992102E8D0F0A6D6
:1004700078B17308C82810F9B173D0BEBD2102103D
:10048000C3C8C8992102C8C8C8C6C360A579A67ADE
:10049000A00185AA86ABB1AAF01AA003B1AA88C5AB
:1004A00012D004B1AAC511B00988B1AAAA88B1AA0C
:1004B00090DEF0011860D0FDA900A89179C891796B
:1004C00018A5796902857BA57A6900857C18A579CC
:1004D00069FF85C3A57A69FF85C4A585A486858142
:1004E0008482A57BA47C857D847E857F8480204456
:1004F000C5A268866568AA688EFE018DFF01A2FD0F
:100500009AA900858C856160F0D0609006F004C9DE
:10051000B7D0F42055C72024C320C200F00CC9B7BF
:10052000D09320BC002055C7D08BA5110512D00652
:10053000A9FF85118512A00184602092C8B1AAF09C
:100540003E2014C5C8B1AAAAC8B1AAC512D004E4F5
:1005500011F002B02A84972082DAA920A497297F7B
:1005600020EDC8C922D006A56049FF8560C8B1AAA0
:10057000D00EA8B1AAAAC8B1AA86AA85ABD0B76086
:1005800010DE246030DAA2E50A0A9002E818691148
:100590009001E8857386748497A000B173AAC8B1EE
:1005A00073CAF0B820EDC8C8B17348C8B173A000D1
:1005B0008574688573B173CAF0A220EDC8C8D0F500
:1005C000A980856120B4C76868A9102003C1209D57
:1005D000C6189865C348A5C4690048A58848A5877A
:1005E00048A9AD20F1CB20D0CA20CDCAA5B0097F43
:1005F00025AD85ADA997A0C4857184724C84CBA923
:10060000E0A0E1207DD820C200C9B2D00620BC0005
:1006100020CDCA20E9D885B02079CBA59848A597E8
:1006200048A981482014C5A5C3A4C4A688E8F0043D
:10063000858B848CA000B1C3F007C93AF01D4C0231
:10064000CCA002B1C318F056C8B1C38587C8B1C3E6
:1006500085889865C385C39002E6C420BC0020FC51
:10066000C44CBCC4F0540AB0034CB4C7C956B0CE95
:10067000A8B908E248B907E2484CBC006C0302C9BB
:1006800003B00118D067A5C44902F0104902A4C301
:10069000848B858CA587A4888589848A686890075F
:1006A000A9DEA0E74C4FC14C5AC1D00F38A579E95B
:1006B00001A47AB00188858F8490602055C720A05E
:1006C000C6A588C512B00B983865C3A6C49007E8C4
:1006D000B004A579A67A2028C3B0034C72C6A5AA97
:1006E000E901A4ABB0D090CD208CD4860D60D0FDB4
:1006F000A48CD005A21E4C3CC1A9932014DFA99361
:100700002017DF84C4A58B85C3A589A48A85878427
:100710008860D0034C65C32072C3F02EA905200366
:10072000C1A5C448A5C348A58848A58748A99D4830
:1007300020C2004CBCC4A9052003C1A5C448A5C360
:1007400048A58848A58748A98D4820C20020EBC548
:100750004CBCC42055C720A0C6A588C512B00B98B4
:100760003865C3A6C49007E8B004A579A67A202806
:10077000C39067A5AAE90185C3A5ABE90085C4605C
:10078000A2224C3CC1A8BABD0301C99DD0F2E8E841
:100790009A98F020C93AF01CE9B3AAF004CAD062D2
:1007A000CA869820BC0020E1CAA5ACF002A9FFBA15
:1007B0004598D01ABD02018587BD03018588BD0417
:1007C0000185C3BD050185C420C2004CBCC4E8E856
:1007D000E8E8E89A4C8CC6A2042CA20E4C3CC1D08E
:1007E0009E686868C98DD0EF688587688588688548
:1007F000C36885C4209DC6981865C385C39002E66A
:10080000C4604C02CCA23A2CA200A000845C8A45B1
:100810005C855CB1C3F0EAC55CF0E6C8C922D0F3E0
:10082000F0EC20E1CA20C200C9B0F011C989D0D2D1
:10083000A6C3A4C420BC00B0C986C384C4A5ACF0C0
:100840001B20BC00B0034CEBC5C990D0034CFEC4C8
:1008500020FCC4A000B1C3C9ACF09960A000A20103
:10086000C8B1C3F00FC98BD003E8D0F4C9ACD0F045
:10087000CAD0EDC8981865C385C39002E6C420C2EB
:100880000090C34CFCC420A0C64C8FC64C02CCC9FF
:10089000A9D0034C38DFC9AAD0034C3CDF208CD44C
:1008A00048C98DF004C989D0E3C6AFD004684CFEB6
:1008B000C420BC002055C7C92CF0EE6860A2008699
:1008C000118612B0F7E019A8B0DDE92FA8A5110A2A
:1008D00026120A2612651185118A651206112AAAA6
:1008E00098651185119001E820BC004C59C7A9E416
:1008F0002CA9E04820AACDA65F301E8597849820B9
:100900007DD86848A0E120BED520A3D820C200C968
:100910002CD0A820BC004C8CC74CDCCA20AACD85AA
:10092000978498A9C120F1CBA55F4820E1CA682A25
:1009300020D3CAD0034CA3D8A002B1AEC582901771
:10094000D00788B1AEC581900EA4AFC47C9008D00A
:100950000DA5AEC57BB007A5AEA4AF4C0CC8A000DA
:10096000B1AE2032D1A59EA49F85B884B92011D301
:10097000A9ACA000859E849F2073D3A000B19E9156
:1009800097C8B19E9197C8B19E91976020AACD85D6
:100990009784982000DFA65F3007A82066D04CA37C
:1009A000D848A901B00168203AD1F00568A00091AB
:1009B000AD2085D14CD0C720D6C820C200F03BC99D
:1009C000ABF056C9AFF052C92CF038C93BF06620E5
:1009D000E1CA245F30E12095DA2044D1A000A50FC0
:1009E000F00A38E50EF1AEB0032092C820D6C8F068
:1009F000C9A9009D2102A221A002A90D20EDC8A92C
:100A00000AD052A50EC51090052092C8D02738E50F
:100A100064B0FC49FF6901D012482089D4C929D0AB
:100A20007B68C9ABD0068AE50E900AAA8AF0062038
:100A3000E8C8CAD0FA20BC00D085602044D1203E4E
:100A4000D3A000AAF049B17120EDC8C8CAD0F760A0
:100A5000A9202CA93FC920901948A50FD00AA50E9E
:100A6000E564D00B850EF007C50ED0032092C8E6D2
:100A70000E6820EDE0C90DD0148678A60DF00AA905
:100A80000020EDC8CAD0FAA90D860EA67829FF600D
:100A9000A562100BA58DA48E858784884C02CCA9F5
:100AA00012A0E820D3C8A58BA48C85C384C460C9D8
:100AB00022D00B20BECBA93B20F1CB20D6C8206A88
:100AC000D02040C2A900CD2102D00A184C2CC5A6C6
:100AD0008FA490A98085628691849220AACD859763
:100AE0008498A5C3A4C485118412A691A49286C338
:100AF00084C420C200D0112462306520EBC820409D
:100B0000C286C384C420C200245F1024855BC9222E
:100B1000F007A93A855BA92C18855CA5C3A4C46914
:100B2000009001C8204AD120CFD420D0C74CCEC9D4
:100B300020A6D920A3D820C200F00AC92CF0034C6B
:100B400028C920BC00A5C3A4C485918492A511A482
:100B50001285C384C420C200F02C20FECB4C73C984
:100B6000209DC6C8AAD012A206C8B1C3F073C8B1EE
:100B7000C3858DC8B1C3C8858EB1C3C8AA208FC62E
:100B8000E083F081D0DAA591A492A66210034C4EC6
:100B9000C5A000B191D00160A901A0E84CD3C8BAAA
:100BA000E8E8E8E8BD0101C981D021A598D00ABDD7
:100BB00002018597BD03018598DD0301D007A59744
:100BC000DD0201F0078A186910AAD0D860D004A00D
:100BD00000F00320AACD859784982037CAF004A29C
:100BE00000F0639A8A38E9F7857369FBA001207DDC
:100BF000D8BABD080185B0A597A49820BED520A37A
:100C0000D8A0012019D9BADD0801F017BD0D018562
:100C100087BD0E018588BD100185C3BD0F0185C448
:100C20004CBCC48A690FAA9A20C200C92CD0F120FA
:100C3000BC00206BCA20E1CA182438245F3003B0FE
:100C40000360B0FDA2184C3CC1A6C3D002C6C4C606
:100C5000C3A90048A9022003C120CDCBA900859BD0
:100C600020C20038E9C09017C903B013C9012A494E
:100C700001459BC59B9067859B20BC004CFBCAA689
:100C80009BD02CB079690A9075D007245F10034C73
:100C9000D4D285710A6571A868D9E9E2B06520D01F
:100CA000CA482062CB68A4991019AAF076D05D26B4
:100CB0005F8A855F2AA6C3D002C6C4C6C3A02485A6
:100CC0009BD0D5D9E9E2B04490D7B9EBE248B9EA74
:100CD000E2482079CBA59B48B9E9E24CEBCA4C022B
:100CE000CC688571E671688572A5B04820D9D8A511
:100CF000AF48A5AE48A5AD48A5AC486C7100A0FFB3
:100D000068F020C964F00320D0CA8499684A8563DA
:100D10006885B36885B46885B56885B66885B74564
:100D2000B085B8A5AC60A5C3A4C469009001C82073
:100D300044D14CCFD420BC00B0034CA6D9AA302F4C
:100D4000C924F0F6C925F0F2C92EF0EEC922F0D67A
:100D5000C928D04F20E9CAA929A000D1C3D00B4C83
:100D6000BC00A928D0F3A92CD0EFA2024C3CC1C9E9
:100D7000B7F029C9B6F0BEC9B1D013A021D01F2049
:100D8000A6CEA5AF49FFA8A5AE49FF4C59D0C9AE24
:100D9000D0034CB4D0E9C3B0194C02CCA01E686893
:100DA0004C3ACB20AACD85AE84AFA65F30034C7DF4
:100DB000D8600AA8B9A4E248B9A3E248B95EE2F053
:100DC0000548B95DE2486020ECCB4CD2CA20ECCBA0
:100DD0004CD0CA465F4CBC0020E9CA20FECB20D2D2
:100DE000CA68AA68A8A5AF48A5AE4898488A48200E
:100DF0008CD48A6020E9CA20D0CAA5ACC998B0209A
:100E00002050D9A202B5AD9511CA10F920C200A296
:100E100000C929F00A20DED420C200C929D001600F
:100E20004C29CF20E2CC455BA8A5AE455C4C59D0FF
:100E300020E2CC055BA8A5AE055C4C59D020E2CCE5
:100E4000255BA8A5AE255C4C59D020A6CEA5AE85C5
:100E50005CA5AF855B20C3D520A6CEA5AF6020D30F
:100E6000CAB013A5B7097F25B485B4A9B3A00020E3
:100E700017D9AA4C3FCD465FC69B203ED385AC8692
:100E8000AD84AEA5B5A4B62042D386B584B6AA3843
:100E9000E5ACF008A9019004A6ACA9FF85B0A0FFBD
:100EA000E8C8CAD007A6B0300F18900CB1B5D1ADC4
:100EB000F0EFA2FFB002A201E88A2A2563F002A99E
:100EC000FF4CFAD820FECBAA20AFCD20C200D0F430
:100ED00060209FCDA5AEA678F022E010B02306AF2B
:100EE0002ACAD0FAA4AF4C59D0209FCDA5AEA6787F
:100EF000F00AE010B00B4A66AFCAD0FAA4AF4C5962
:100F0000D0A900A84C59D0208FD4867820C3D54CC6
:100F1000A6CEA20020C200865E8593297F201ECE29
:100F2000B0034C02CCA200865F20BC009005201EBE
:100F3000CE900BAA20BC0090FB201ECEB0F6C92498
:100F4000D00BA9FF855F8A0980AA20BC0086940582
:100F500061C928D0034CB8CEA9008561A57BA67CC9
:100F6000A00086AB85AAE47ED004C57DF02CA593B5
:100F7000D1AAD008A594C8D1AAF0698818A5AA69F1
:100F80000690E1E8D0DCC961B00AC9419005E95B8F
:100F900038E9A560E97B38E985606848C93DD00536
:100FA000A9E1A0E160A57DA47E85AA84ABA57FA46C
:100FB0008085A684A71869069001C885A484A52009
:100FC000C1C0A5A4A4A5C8857D847EA000A59391D9
:100FD000AAC8A59491AAA900C891AAC891AAC89123
:100FE000AAC891AAA5AA186902A4AB9001C88595C0
:100FF000849660A55D0A690565AAA4AB9001C885C1
:10100000A484A56020BC0020CDCAA5B0300DA5AC3D
:10101000C9909009A9E8A0E12017D9D0744C50D903
:10102000A55E48A55F48A0009848A59448A59348A8
:10103000209CCE68859368859468A8BABD02014853
:10104000BD010148A5AE9D0201A5AF9D0101C820CB
:10105000C200C92CF0D2845D20EFCB68855F688523
:101060005EA67DA57E86AA85ABC580D004E47FF010
:1010700039A000B1AAC8C593D006A594D1AAF0168C
:10108000C8B1AA1865AAAAC8B1AA65AB90D7A21020
:101090002CA2084C3CC1A212A55ED0F7208BCEA595
:1010A0005DA004D1AAD0E74CC5CF208BCE200BC1C8
:1010B000A00084BBA59391AAC8A59491AAA55DA000
:1010C0000484BA91AA18A20BA900245E500768698B
:1010D00001AA686900C891AAC88A91AA2014D0867A
:1010E000BA85BBA471C65DD0DD65A5B05D85A5A838
:1010F0008A65A49003C8F052200BC1857F8480A923
:1011000000E6BBA4BAF0058891A4D0FBC6A5C6BB77
:10111000D0F5E6A538A002A57FE5AA91AAC8A580CA
:10112000E5AB91AAA55ED053C8B1AA855DA900859B
:10113000BA85BBC868AA85AE6885AFD1AA900ED023
:1011400006C88AD1AA90074C26CF4C3AC1C8A5BB85
:1011500005BAF00A2014D08A65AEAA98A47165AFCA
:1011600086BAC65DD0CB06BA2A06BA2AA8A5BA6541
:10117000A485959865A58596A8A595608471B1AA62
:10118000857688B1AA8577A91085A8A200A0008AD3
:101190000AAA982AA8B0B306BA26BB900B188A658B
:1011A00076AA986577A8B0A2C6A8D0E360A55F101C
:1011B00003203ED320DFD138A581E57FA8A582E5B5
:1011C00080465F85AD84AEA2904C02D9A40EA900E2
:1011D000F0EFA688E8D0A4A2164C3CC120A5D0858B
:1011E0009C849D206AD020FACBA980856120AACD5D
:1011F00020D0CA20EFCBA9C120F1CBA59648A59558
:1012000048A5C448A5C348208CC64C14D1A9AE201B
:10121000F1CB0980856120B1CD4CD0CA20A5D04842
:10122000984820FACB20E1CA20EFCB20D0CA6885AD
:101230009D68859CA220A003B19CF09D859688B1F5
:101240009C8595AAC8B195488810FAA49620A7D87D
:10125000A5C448A5C348B19C85C3C8B19C85C4A595
:101260009648A5954820CDCA68859C68859D20C272
:1012700000F0034C02CC6885C36885C4A000689167
:101280009CC868919CC868919CC868919C6020D05B
:10129000CA2095DAA9F0A000F012A6AEA4AF869EEF
:1012A000849F20ADD186AD84AE85AC60A222865BE2
:1012B000865C85B884B985AD84AEA0FFC8B1B8F0AE
:1012C0000CC55BF004C55CD0F3C922F0011884ACF6
:1012D0009865B885BAA6B99001E886BBA5B9C903D7
:1012E000B00B982032D1A6B8A4B9201FD3A665E0D0
:1012F00071D005A21C4C3CC1A5AC9500A5AD9501D3
:10130000A5AE9502A00086AE84AF88845F8666E8AD
:10131000E8E886656046604849FF386581A482B088
:101320000188C4809011D004C57F900B8581848290
:1013300085838484AA6860A20CA56030B820DFD1C0
:10134000A980856068D0D0A685A58686818582A083
:1013500000849DA57FA68085AA86ABA96885718437
:1013600072C565F0052063D2F0F706A0A57BA67CC8
:1013700085718672E47ED004C57DF005205DD2F0D3
:10138000F385A486A5A90485A0A5A4A6A5E480D07C
:1013900004C57FF07585718672A002B17165A48560
:1013A000A4C8B17165A585A5A001B17110DBA00429
:1013B000B1710A69052095D2E4A5D004C5A4F0CD89
:1013C0002063D2F0F3C8B1711030C8B171F02BC8EE
:1013D000B171AAC8B171C5829006D01EE481B01A5D
:1013E000C5AB9017D004E4AA901186AA85ABA5716D
:1013F000A672859C869D888884A218A5A0657185A3
:10140000719002E672A672A00060C6A0A69DF0F5DB
:10141000A4A218B19C65AA85A6A5AB690085A7A55D
:1014200081A68285A486A520C8C0A4A2C8A5A4912F
:101430009CAAE6A5A5A5C8919C4CE3D1A5AF48A55B
:10144000AE4820CDCB20D2CA6885B86885B9A00047
:10145000B1B81871AE9005A21A4C3CC12032D1200F
:1014600011D3A59EA49F2042D32023D3A5B8A4B90D
:101470002042D32085D14CF8CAA000B1B848C8B1E9
:10148000B8AAC8B1B8A86886718472AAF014A0007E
:10149000B1719183C8CAD0F898186583858390028A
:1014A000E6846020D2CAA5AEA4AF85718472207391
:1014B000D308A000B17148C8B171AAC8B171A868B9
:1014C00028D013C482D00FE481D00B4818658185E1
:1014D000819002E682688671847260C467D00CC510
:1014E00066D0088565E9038566A00060208FD48AF0
:1014F00048A901203AD168A00091AD4C85D148207F
:10150000F7D3D19E98F0094820F7D318F19E49FFF0
:101510009004B19EAA98488A48203AD1A59EA49FDB
:101520002042D368A86818657185719002E67298A8
:101530002023D34C85D148A9FF85AF20C200C929FB
:10154000F00620FECB208CD420F7D3CA8A4818A2FC
:1015500000F19EB0C249FFC5AF90BDA5AFB0B920A4
:10156000EFCB6885A26885A368AA68859E68859F79
:10157000A0008AF079E6A26CA200203BD385ACA83B
:10158000F038203AD186AD84AEA888B1712022CE41
:1015900090020920918398D0F1F01F203BD385ACB5
:1015A000A8F017203AD186AD84AEA888B171201E6C
:1015B000CE900229DF918398D0F14C85D120BC00D8
:1015C00020AACD20EFCB20D2CAA002B195AA88B123
:1015D00095A88A4C59D02074D44C66D0203BD3A80F
:1015E000602074D4F008A000B171A84C66D04C29DA
:1015F000CF20BC0020CDCA20A2CEA4AED0F0A6AF92
:101600004CC2002074D4D0034C50D6A6C3A4C486C8
:10161000BA84BBA67186C31865718573A57285C42B
:1016200069008574A000B1734898917320C20020AE
:10163000A6D968A0009173A6BAA4BB86C384C4606F
:1016400020CDCA20F1D420FECBA51248A5114820F8
:101650008CD468851168851260A5ACC998B08F20BC
:1016600050D9A5AEA4AF841185126020F1D4A20098
:10167000A111A84C66D020D8D48AA2008111602084
:10168000F1D4A200A111A8E611D002E612A1114CDA
:1016900059D020CDCA20F1D48497859820FECB2044
:1016A000CDCA20F1D498A2008197E697D002E6989F
:1016B000A51281974CC20020AACD85978498A55F7A
:1016C0004820FECB20AACD68455F1010A003B1973B
:1016D000AAB19591978A91958810F3604CDCCA2045
:1016E000CDCA20F1D4A9D548A985486C11004CC2B7
:1016F0000020D8D48697A20020C200F00320DED4B8
:101700008698B11145982597F0F860208BD7A5B041
:1017100049FF85B045B785B8A5AC4CC1D520DAD610
:10172000904DA9E9A0E1208BD7D010A5B785B0A234
:1017300004B5B295ABCAD0F986B960A6B986A3A2A2
:10174000B3A5B3A8F0C438E5ACF024901284ACA4DF
:10175000B784B049FF6900A00084A3A2ACD004A064
:101760000084B9C9F930B6A8A5B9560120F1D6242C
:10177000B8104CA0ACE0B3F002A0B33849FF65A3A9
:1017800085B9B90300F50385AFB90200F50285AE4E
:10179000B90100F50185ADB0032096D6A0009818D8
:1017A000A6ADD03EA6AE86ADA6AF86AEA6B986AF34
:1017B00084B96908C918D0E8A90085AC85B060650E
:1017C000A385B9A5AF65B685AFA5AE65B585AEA550
:1017D000AD65B485ADB01A60690106B926AF26AE15
:1017E00026AD10F438E5ACB0CF49FF690185AC9067
:1017F0000CE6ACF03666AD66AE66AF66B960A5B015
:1018000049FF85B0A5AD49FF85ADA5AE49FF85AEC1
:10181000A5AF49FF85AFA5B949FF85B9E6B9D00A9B
:10182000E6AFD006E6AED002E6AD60A20A4C3CC1FF
:10183000A274B40384B9B4029403B4019402A4B2B0
:101840009401690830ECF0EAE908A8A5B9B01216CD
:10185000019002F60176017601760276036AC8D01D
:10186000EE186020E9D8F00210034C29CFA5ACE9AE
:101870007F48A98085ACA969A0E120BED5A96DA04B
:10188000E12001D8A9E0A0E120A3D5A95CA0E12036
:1018900051DCA971A0E120BED5682045DAA975A068
:1018A000E1208BD7F04C20B1D7A9008575857685CE
:1018B00077A5B92060D7A5AF2060D7A5AE2060D7A7
:1018C000A5AD2065D74C6ED8D0034CC8D64A098048
:1018D000A8901318A57765B68577A57665B5857642
:1018E000A57565B4857566756676667766B9984A36
:1018F000D0DE6085718472A003B17185B688B17144
:1019000085B588B17185B745B085B8A5B70980851B
:10191000B488B17185B3A5AC60A5B3F01D1865ACF2
:1019200090043031182C1012698085ACD0034C54CF
:10193000D6A5B885B060A5B0101B68684C50D620FD
:10194000CAD8AAF0F0186902B00BA20086B820DB52
:10195000D5E6ACD0E04CC3D620CAD8A9F1A0E1A20C
:101960000086B8207DD84C04D8208BD7F06320D9CE
:10197000D8A90038E5AC85AC20B1D7E6ACF0D6A24A
:10198000FFA901A4B4C4ADD00AA4B5C4AED004A4C8
:10199000B6C4AF082A900EA001E8E0023004D028B7
:1019A000A040957598289014A8A5B6E5AF85B6A572
:1019B000B5E5AE85B5A5B4E5AD85B49806B626B552
:1019C00026B4B0CF30BD10CB4A6A6A85B9284C6EB8
:1019D000D8A2144C3CC1A57585ADA57685AEA5777A
:1019E00085AF4C34D685718472A003B17185AF8800
:1019F000B17185AE88B17185B0098085AD88B1714E
:101A000085AC84B960A2A4A000F004A697A4982095
:101A1000D9D886718472A003A5AF917188A5AE91C3
:101A20007188A5B0097F25AD917188A5AC917184AD
:101A3000B96020D9D8A205B5AB95B2CAD0F986B99C
:101A400060A5ACF0FB06B990F720B8D6D0F24C896F
:101A5000D6A5ACF009A5B02AA9FFB002A901602063
:101A6000E9D885ADA90085AEA288A5AD49FF2AA910
:101A70000085AF86AC85B985B04C2FD646B0608561
:101A8000738474A000B173C8AAF0C6B17345B030B6
:101A9000C4E4ACD01AB1730980C5ADD012C8B1731B
:101AA000C5AED00BC8A97FC5B9B173E5AFF028A505
:101AB000B0900249FF4CEFD8A5ACF04A38E9982421
:101AC000B01009AAA9FF85B2209CD68AA2ACC9F998
:101AD000100620DAD684B260A8A5B0298046AD05EC
:101AE000AD85AD20F1D684B260A5ACC998B01E20FA
:101AF00050D984B9A5B084B049802AA99885ACA5ED
:101B0000AF855B4C2FD685AD85AE85AFA860A000B4
:101B1000845FA20994A8CA10FB907FC92DD00486C7
:101B2000B1F004C92BD00520BC00906EC924D003AD
:101B30004C6EDEC925D0084C9CDE20BC00905BC9F1
:101B40002EF02EC945D03020BC009017C9B7F00E3A
:101B5000C92DF00AC9B6F008C92BF004D00766AB4E
:101B600020BC00905B24AB100EA90038E5A94C11F5
:101B7000DA66AA24AA50C3A5A938E5A885A9F01257
:101B8000100920F0D7E6A9D0F9F00720D7D7C6A9C9
:101B9000D0F9A5B13001604CF4DB4824AA1002E66C
:101BA000A820D7D768290F2045DA4CD2D94820CAB7
:101BB000D86820FAD8A5B745B085B8A6AC4CC1D531
:101BC000A5A9C90A9009A96424AB300E4CC3D60A52
:101BD0000A65A90AA00071C3E92F85A94CF8D9A903
:101BE000EDA0E720D3C8A588A68785AD86AEA290D4
:101BF000382007D9A0009820A2DA4CD3C8A001A9A8
:101C00002024B01002A92D99EF0085B084BAC8A68F
:101C1000ACD005A9304CAEDBA900E081B009A981A8
:101C2000A0E12039D7A9FA85A8A97DA0E12017D97C
:101C3000F01E1012A979A0E12017D9F002100E2091
:101C4000D7D7C6A8D0EE20F0D7E6A8D0DC20BAD5EA
:101C50002050D9A201A5A81869073009C908B00603
:101C600069FFAAA90238E90285A986A88AF00210AC
:101C700013A4BAA92EC899EF008AF006A930C89912
:101C8000EF0084BAA000A280A5AF1879F7E185AF74
:101C9000A5AE79F6E185AEA5AD79F5E185ADE8B003
:101CA0000410E5300230E18A900449FF690A692F87
:101CB000C8C8C88495A4BAC8AA297F99EF00C6A845
:101CC000D006A92EC899EF0084BAA4958A49FF29A5
:101CD00080AAC012D0B2A4BAB9EF0088C930F0F817
:101CE000C92EF001C8A92BA6A9F02E1008A900380A
:101CF000E5A9AAA92D99F100A94599F0008AA22F7A
:101D000038E8E90AB0FB693A99F3008A99F200A928
:101D10000099F400F00899EF00A90099F000A9F0EB
:101D2000A00060F042A5B3D0034C52D6A29CA00004
:101D300020A7D8A5B7100F2081D9A99CA0002017F3
:101D4000D9D00398A45B20C5D5984820FBD6A99C80
:101D5000A0002039D720FFDB684A900AA5ACF00626
:101D6000A5B049FF85B060A985A0E12039D7A5B904
:101D70006950900320E1D885A320CDD8A5ACC988AF
:101D8000900320CED72081D9A55B186981F0F33864
:101D9000E90148A204B5B3B4AC95AC94B3CA10F54C
:101DA000A5A385B920A6D520F4DBA989A0E12067E9
:101DB000DCA90085B8684CB3D785BA84BB209DD810
:101DC000A9A42039D7206BDCA9A4A0004C39D78561
:101DD000BA84BBA2A8209FD8B1BA85B1A4BAC898CA
:101DE000D002E6BB85BAA4BB2039D7A5BAA4BB18DC
:101DF00069049001C885BA84BB20BED5A9A8A000FB
:101E0000C6B1D0E460A5ACF007A2D8A00020A7D846
:101E1000A2AFA01306D926DA26DB26D890058A457C
:101E2000D985D988D0EEA202B5D995ADCA10F9A945
:101E30008085AC0A85B04C34D6A9A6A0E120BED5D9
:101E400020CAD8A9BBA0E1A6B720F9D720CAD820BC
:101E500081D9A90085B820A6D5A9EDA0E120A3D5F8
:101E6000A5B048100D20BAD5A5B03009A56349FF2B
:101E7000856320F4DBA9EDA0E120BED56810032026
:101E8000F4DBA9AAA0E14C51DC209DD8A900856310
:101E900020D8DCA29CA00020A7D8A9A4A000207D67
:101EA000D8A90085B0A5632049DDA99CA0004C01FC
:101EB000D8484C0ADD200A004CEFCBA5B0481003EF
:101EC00020F4DBA5AC48C9819007A9E0A0E120017E
:101ED000D8A9BFA0E12051DC68C9819007A9A6A0BC
:101EE000E120A3D56810164CF4DB20D8D4E008B06C
:101EF00020A900382ACA10FCE8011181116020D8FD
:101F0000D4E008B00CA9FF2ACA10FCE82111811105
:101F1000604C29CF20BC0020D8D4E008B0F320C208
:101F200000C929F0034C02CC20BC00A900382ACA01
:101F300010FCE82111F002A9FF4CFAD8E019B048D2
:101F40008678A918203AD1A017A218461166126601
:101F5000138A2A91AD8810F3A578F00AAA3849FFB0
:101F60006918F01CD00FA8B1ADC930D007CAF00372
:101F7000C810F4E8981865AD85ADA90065AE85AECA
:101F800086AC20BC004C85D14C29CFE007B0F98647
:101F900078A906203AD1A005F8A5132051DEA51294
:101FA0002051DEA5112051DED8A206A578F0B7AAEF
:101FB0003849FF6906F0C9D0BCAA290F205CDE8A27
:101FC0004A4A4A4AC90A693091AD886085ACA9007D
:101FD00085B88A2045DA20BC00900A0920E961C949
:101FE00006B02A690A290FAAA5ACF0E4690490DCBE
:101FF0004CC3D6AAA5ACF006E6ACF0F4A90085B8AF
:102000008A2045DA20BC004930C90290E64C2ADA21
:10201000AD0002D01820EAE0900B8D0102A2208EC4
:1020200002024C17C5AE0202F003CE0202A2DC206F
:10203000D0DEA2DF20D0DE60B50010FB0A2940F020
:10204000F695008AA86868A9052003C1A5C448A51B
:10205000C348A58848A58748A98D48B9010085C30C
:10206000B9020085C44CBCC420EAE0B009AD02024C
:10207000F009AD010238A2008E020260A2DF2CA29C
:10208000DCC993F011C9B5F00749A2F00E4C02CC9F
:10209000A97F35001005B5000A150095004CBC005D
:1020A00058A2DF2CA2DC867820BC002055C7A57979
:1020B000A67A2028C3B0034C72C6A678A5AAE90167
:1020C0009501A5ABE9009502A9C0950060D0FDA5DA
:1020D000DF0A05DF85DF4C79C6D0F1A5DC0A05DC17
:1020E00085DC4C79C620E9CA4CD0CA20B1DF10FB90
:1020F000A5B4098085B420C3D5F0F020B1DF30FB52
:10210000F0F9A5B4098085B420C3D5F0EEC929D073
:102110000568684CBC004C02CC20C200C92CD0ED34
:1021200020D9D8A5B0097F25AD48A5AE48A5AF48B0
:10213000A5AC4820BC0020CDCA6885B36885B668C8
:1021400085B56885B485B7A9B3A0004C17D9C92C4B
:10215000F01B208CD48AF00AE0109045E464B002B1
:102160008664860F20C200F01AC92CD0A92089D419
:102170008A302EE001902AA50FF006E40FF002B09D
:10218000208664A50FF006C564B003856438E56455
:10219000B0FC65641865648510A50F38E5108510DE
:1021A000604C29CFA5B030F9A5ACF0F420CAD8A96D
:1021B00000857785768575857885AF85AE85ADA2F6
:1021C00018A5B34AB00E06B626B526B426772676ED
:1021D0002675267806B626B526B426772676267581
:1021E000267806AF26AE26ADA5AF2A855BA5AE2A1A
:1021F000855CA5AD2A855DA9002A855EA577E55B8E
:10220000855BA576E55C855CA575E55DA8A578E5AB
:102210005E900E85788475A55C8576A55B8577E6EE
:10222000AFCAD0A238A5B3E9806A690085AC4C3446
:10223000D620BC0020AACD20EFCBA495A5964C5962
:10224000D0A9BBA0E1207DD8C6AC60A9BBA0E14C61
:102250007DD86C05026C07026C09026C0B02000051
:1022600000A8DEE6C3D002E6C4ADFFFFC9ACF00EA5
:10227000C93AB00AC920F0EB38E93038E9D0604CEF
:1022800000C0000000000000004C29CF000000F258
:1022900000030D0A4D656D6F72792073697A6520B0
:1022A0000020427974657320667265650D0A0A45DF
:1022B0006E68616E63656420424153494320322E4B
:1022C00032320A000280195662807622F38238AADE
:1022D00040803504F3813504F38080000080317242
:1022E0001891434FF8947423F7947424008138AA0A
:1022F0003B067463908C77230CAB7A1E94007C634E
:1023000042807E75FED080317215810000008149C7
:102310000FDB04861ED7FB879926658723345886F2
:10232000A55DE183490FDB08783AC5377B83A25C62
:102330007C2EDD4D7D99B01E7D59ED247E9172007D
:102340007E4CB9737FAAAA538100000081800000EF
:1023500090800000007F00000084200000FE796073
:10236000002710FFFC18000064FFFFF60000011AB0
:10237000C557C464CA8BC646C95ECD66C9B3C78596
:10238000C7EAC5A9C5B9C641C5CDC564DF70DF764A
:10239000C61DC718C526C77FC588C788D5EFE0F218
:1023A000E073D00DD529D576D5B3C51CC654C885E4
:1023B000C5A2C39FC34DC3E5DF23C84ED581DD95BC
:1023C000DD13DF16DF64CC64CC64CCE8CAEBCBEB66
:1023D000CB64CC64CC64CC64CC64CC64CC64CC647E
:1023E000CC64CC64CC00005ECC64CC5ECC5ECC5EB5
:1023F000CC5ECC64CC8BCC8BCC00007CDF7CDF6AE9
:10240000CC6ACC00006FCC6FCC6FCCF6D880D913DF
:10241000D94CDD44D063D03BE09CDCFAD6FEDBD067
:10242000DCD7DC20DD52DD02D516D554D46DD425A1
:10243000D19AD478D432D411D483D322DED3DDAB75
:10244000DD82DF92DFD8E0E2E0C8E095D39ED3CD15
:10245000D379C0D579A5D57B3BD77B03D87FBADBB1
:1024600050D4CC46BACC46C7CC5680CD5668CD7D2C
:10247000F3DB5A16CC64F5CC2A2B2D2F3C3D3E3F86
:102480004142434445464748494C4D4E4F505253B4
:10249000545556575E0068E36AE36CE36EE370E3FD
:1024A00074E376E37AE37CE38CE3A5E3BCE3D5E372
:1024B000E4E3EEE3FBE301E413E438E446E458E448
:1024C00060E475E4A4E4CFE4E3E4F4E400E50FE5BC
:1024D000B800B600B700B9003CBFC200C1003EBEA4
:1024E000C0009F00425328C54E44BB534328D754D5
:1024F0004E28D000494E2428DC4954434C52A84968
:1025000054534554A7495454535428DD00414C4C6E
:102510009C48522428DA4C454152A24F4E54A04FB9
:102520005328CD004154418345438845454B28D22B
:10253000454699494D854F4B459B4F9D004C534512
:10254000AC4E44804F52BC585028CC004EAE4F5237
:1025500081524528C7004554A54F5355428D4F54CD
:102560004F890045582428DB00468B4E43954E503A
:102570005554844E5428C45251A900434153452414
:1025800028D94546542428E3454E28D44554874944
:102590005354A14F4144974F4728CB4F4F509E0073
:1025A000415828DE49442428E5494E28DF00455794
:1025B000A3455854824D49AA4F54B1554C4C9400F0
:1025C0004646B54E9352BD0045454B28D149E04F94
:1025D0004B459A4F5328C852494E549F0045414499
:1025E00086454D914553544F52458C45544952515F
:1025F0008E45544E4D498F455455524E904947484B
:10260000542428E44E4428CA554E8A0041444428A4
:10261000D341564598474E28C3494E28CE504328AB
:10262000AF515228C9544550B2544F50925452247D
:1026300028D5574150A600414228AB414E28CF48EB
:10264000454EB04FAD574F5049E1004341534524EB
:1026500028D84E54494CB3535228C600414C28D672
:10266000415250545228E2004149549648494C4541
:10267000B449445448A400BA000345D9E30346E6EC
:10268000E3044E49E40444BCE3054906E40344CBB7
:10269000E3045275E4034C24E40344C0E30447F626
:1026A000E30352A0E4024901E407527CE40547F148
:1026B000E3065283E4065289E406528FE40352791A
:1026C000E40453C1E4024F5BE4044E53E4034903C2
:1026D000E4045700E5044C2BE40453A9E40344C884
:1026E000E3045067E40444CEE30443A5E30244D288
:1026F000E3044C33E405506FE40443B3E3044C2794
:10270000E40543AEE3034E46E4055709E50347EE0F
:10271000E30453CAE4064297E3064291E303490FF8
:10272000E4034E4DE40454CFE40445D5E30254DB06
:10273000E40246E4E30453B5E40454D7E4034E5002
:10274000E40453BDE40555EAE4055704E5034F5896
:10275000E4012B0000012D0000012A0000012F00E0
:1027600000015E0000034180E30345DCE3024F5DAE
:10277000E4023E76E3023C70E3013E0000013D00CE
:1027800000013C00000453ADE404490BE404417C27
:10279000E30455EFE40446E9E304506BE40453B961
:1027A000E404529CE4044C2FE40445DFE30443B703
:1027B000E30453B1E40454D3E4044187E3055060D7
:1027C000E40544C3E30553A4E4044C20E40553C5E5
:1027D000E40456F4E4044183E30755E3E4074C13AF
:1027E000E40543A9E30548FBE305428CE307429D6A
:1027F000E3044D38E4044D41E4025065E40554DD42
:10280000E40756F8E4064C1AE4075295E4054D3CFB
:10281000E4CDE6DEE6E5E6FAE606E714E71DE72B9B
:10282000E73FE74CE75DE76CE77BE789E799E7ACD3
:10283000E7BBE7CEE74E45585420776974686F755B
:102840007420464F520053796E746178005245549B
:1028500055524E20776974686F757420474F5355F1
:1028600042004F7574206F66204441544100467504
:102870006E6374696F6E2063616C6C004F76657275
:10288000666C6F77004F7574206F66206D656D6F95
:10289000727900556E646566696E65642073746153
:1028A00074656D656E7400417272617920626F7536
:1028B0006E647300446F75626C652064696D656E4B
:1028C00073696F6E00446976696465206279207A65
:1028D00065726F00496C6C6567616C206469726534
:1028E00063740054797065206D69736D61746368F9
:1028F00000537472696E6720746F6F206C6F6E671F
:1029000000537472696E6720746F6F20636F6D700F
:102910006C65780043616E277420636F6E74696E16
:10292000756500556E646566696E65642066756ED2
:102930006374696F6E004C4F4F5020776974686FF5
:10294000757420444F000D0A427265616B0020458A
:1029500072726F720020696E206C696E6520000DC6
:102960000A52656164790D0A00204578747261200D
:1029700069676E6F7265640D0A00205265646F208E
:1029800066726F6D2073746172740D0A000000002E
:102990000000000000000000000000000000000037
:1029A0000000000000000000000000000000000027
:1029B0000000000000000000000000000000000017
:1029C0000000000000000000000000000000000007
:1029D00000000000000000000000000000000000F7
:1029E00000000000000000000000000000000000E7
:1029F00000000000000000000000000000000000D7
:102A000000000000000000000000000000000000C6
:102A100000000000000000000000000000000000B6
:102A200000000000000000000000000000000000A6
:102A30000000000000000000000000000000000096
:102A40000000000000000000000000000000000086
:102A50000000000000000000000000000000000076
:102A60000000000000000000A12311241FBECFEFD2
:102A7000D8E0DEBFCDBF11E0A0E0B1E0E0EFF7E4C9
:102A800002C005900D92A832B107D9F721E4A8E25F
:102A9000B1E001C01D92A43EB207E1F715E1C5E324
:102AA000D5E104C02197FE010E94F023C433D10771
:102AB000C9F70E94D41B0C94F6230C940000AF922B
:102AC000BF92CF92DF92EF92FF920F931F93CF931B
:102AD000DF936C017B018B01040F151FEB015E017D
:102AE000AE18BF08C017D10759F06991D601ED9112
:102AF000FC910190F081E02DC6010995892B79F7B1
:102B0000C501DF91CF911F910F91FF90EF90DF9062
:102B1000CF90BF90AF900895FC01538D448D252F29
:102B200030E0842F90E0821B930B541710F0CF9667
:102B3000089501970895FC01918D828D981761F099
:102B4000A28DAE0FBF2FB11D5D968C91928D9F5FB0
:102B50009F73928F90E008958FEF9FEF0895FC018F
:102B6000918D828D981731F0828DE80FF11D858D42
:102B700090E008958FEF9FEF0895FC01918D228DD5
:102B8000892F90E0805C9F4F821B91098F7399275A
:102B9000089587E491E40E94BD1521E0892B09F492
:102BA00020E0822F089580E090E0892B29F00E9498
:102BB000C91581110C9400000895FC01A48DA80F83
:102BC000B92FB11DA35ABF4F2C91848D90E001966F
:102BD0008F739927848FA689B7892C93A089B1898F
:102BE0008C91837080648C93938D848D981306C030
:102BF0000288F389E02D80818F7D80830895EF9294
:102C0000FF920F931F93CF93DF93EC0181E0888FA6
:102C10009B8D8C8D98131AC0E889F989808185FF76
:102C200015C09FB7F894EE89FF896083E889F98918
:102C300080818370806480839FBF81E090E0DF911A
:102C4000CF911F910F91FF90EF900895F62E0B8D6D
:102C500010E00F5F1F4F0F731127E02E8C8D8E1128
:102C60000CC00FB607FCFACFE889F989808185FF8F
:102C7000F5CFCE010E94DD15F1CFEB8DEC0FFD2FCE
:102C8000F11DE35AFF4FF0829FB7F8940B8FEA894A
:102C9000FB8980818062CFCFCF93DF93EC01888D59
:102CA0008823B9F0AA89BB89E889F9898C9185FDC7
:102CB00003C0808186FD0DC00FB607FCF7CF8C9155
:102CC00085FFF2CF808185FFEDCFCE010E94DD151B
:102CD000E9CFDF91CF91089580913D4110923D4120
:102CE000089580913A41806880933A410895809197
:102CF0003B4190913C419C012F5F3F4F30933C41C1
:102D000020933B4190932E4180932D410895CF9382
:102D1000811520E4920730F4875D9E4FFC016083AB
:102D2000CF9108958130904FD9F7C62F87E491E471
:102D30000E94FF15CD3021F481E080932801F0CF6F
:102D400080912801882361F3CA3051F7109228013D
:102D5000E7CF90913941992319F080932C41089540
:102D6000682F80912D4190912E410C94871680916F
:102D70002C4190E00C94A916209129419FEF920FCD
:102D80009093294130E0682FC90193950C948716E0
:102D90000F931F93CF93DF93082F10912941C12FD9
:102DA000D0E0692FCE0193950E948716CE0101973E
:102DB0009927602F93950E948716125010932941EE
:102DC000DF91CF911F910F910895843020EF9207EA
:102DD00019F40E946C1608958115E0EC9E0788F0A6
:102DE000FC01F05CE11529E2F20720F4E859FE4FFE
:102DF00084910895E115FF4368F088599E4FFC01C6
:102E0000F7CF8115F0E49F0728F4FC01E75DFE4F42
:102E10008081089580E0089580913941882321F0D0
:102E200080912C4190E0089580912D4190912E4108
:102E30000E94E516F7CFCF93DF930E940C17FC0199
:102E4000E09560912C41462F50E090913A41892FB6
:102E50008170C82F80E0D82F9E01240F351F2E0FC0
:102E60003F1FD901AA27AB2B09F44BC09160909367
:102E70003A4190913A41222309F445C09D7F9093B5
:102E80003A4190913A414227E2274E2347FF3DC005
:102E9000906490933A4180913A4127FF38C080680E
:102EA00080933A4180913A4183FF26C08E7F809380
:102EB0003A419AE9960F492F4F704A3050F5909356
:102EC0002C4190912C41907F913918F08160809332
:102ED0003A4180912F4190913041A0913141B09180
:102EE00032410196A11DB11D80932F419093304135
:102EF000A0933141B093324120932C41DF91CF9187
:102F000008959E7FB4CF9260BACF9F7BC2CF8F7758
:102F1000C7CF605660932C41D4CF0E940C17BC01E0
:102F200040913A4180E8489F900111243327CB011A
:102F300096958795822B932B60FF13C04160409339
:102F40003A4120913A41882371F02D7F20933A41F4
:102F500020913A4187FF09C0206820933A410C94A0
:102F6000A9164E7FECCF2260F1CF2F77F6CFCF930B
:102F7000DF930E940C1720913A41880F991F322F3E
:102F80003170C32F30E08C2B932BAC014427452BA1
:102F9000A9F0216020933A4120913A41882381F0A1
:102FA0002D7F20933A4120913A4187FF0BC0206842
:102FB00020933A41DF91CF910C94A9162E7FEACF4E
:102FC0002260EFCF2F77F4CF0E940C1720912C4175
:102FD000822B9C0190913A41222369F09D7F90932E
:102FE0003A4190913A4127FF08C0906890933A4146
:102FF00020932C4108959260F2CF9F77F7CF0E94E3
:103000000C179C013695279590913A4180FF14C08A
:10301000916090933A4190913A41222379F09D7FBB
:1030200090933A4190913A4127FF0AC0906890935B
:103030003A41C9010C94A9169E7FEBCF9260F0CF64
:103040009F77F5CF0E940C1780932B4190913A41C6
:10305000882339F09D7F90933A4187FF05C00C94F7
:103060007116926090933A4180913A418F778093A4
:103070003A4108950E940C1780932A4190913A4159
:10308000882339F09D7F90933A4187FF05C00C94C7
:103090007116926090933A4180913A418F77809374
:1030A0003A4108950E940C1780932C4190913A4127
:1030B000882339F09D7F90933A4187FF05C00C9497
:1030C0007116926090933A4180913A418F77809344
:1030D0003A4108950E940C179C012F5F3F4F909139
:1030E0003A41222369F09D7F90933A4190913A4171
:1030F00027FF08C0906890933A41C9010C94A91623
:103100009260F2CF9F77F7CF0E940C1720912C414D
:1031100082279C0190913A41222369F09D7F9093F0
:103120003A4190913A4127FF08C0906890933A4104
:1031300020932C4108959260F2CF9F77F7CF0E94A1
:103140000C179C012150310990913A41222369F0DA
:103150009D7F90933A4190913A4127FF08C0906833
:1031600090933A41C9010C94A9169260F2CF9F77CF
:10317000F7CF0E940C1740912B41242F30E0281BE1
:10318000390B90913A41481720F0481759F0916057
:1031900001C09E7F90933A4180913A418D7F809308
:1031A0003A4103C0936090933A4127FD0C94711605
:1031B00080913A418F7780933A4108950E940C178D
:1031C00040912A41242F30E0281B390B90913A413D
:1031D000481720F0481759F0916001C09E7F9093E6
:1031E0003A4180913A418D7F80933A4103C0936088
:1031F00090933A4127FD0C94711680913A418F7754
:1032000080933A4108950E940C1740912C41242F3D
:1032100030E0281B390B90913A41481720F04817AD
:1032200059F0916001C09E7F90933A4180913A415C
:103230008D7F80933A4103C0936090933A4127FD7C
:103240000C94711680913A418F7780933A4108959A
:103250000E940C17AC0190913A4120912C4130E032
:1032600024233523232B61F09D7F90933A41909145
:103270003A419F73842F807C892B80933A41089533
:103280009260F3CF0E940C179C01220F331F909184
:103290003A41A9014427452BB1F0916090933A41FE
:1032A00090913A41A9015527452B79F09D7F909344
:1032B0003A4190913A4127FF0AC0906890933A4171
:1032C000C9010C94A9169E7FE9CF9260F0CF9F7739
:1032D000F5CF0E940C1720912C4130E082239323DC
:1032E00020913A41009769F02D7F20933A41209137
:1032F0003A4187FF08C0206820933A4180932C41CF
:1033000008952260F2CF2F77F7CFCF93DF930E94FB
:103310000C17FC0160912C41462F50E090913A41EE
:10332000892F8170C82F80E0D82F9E01240F351F70
:103330002E0F3F1FD901AA27AB2B09F44AC0916079
:1033400090933A4190913A41222309F444C09D7FE1
:1033500090933A4190913A414227E2274E2347FF0A
:103360003CC0906490933A4180913A4127FF37C026
:10337000806880933A4180913A4183FF25C08E7FD7
:1033800080933A41962F9F709A3018F06A5F60934D
:103390002C4190912C41907F913918F0816080935D
:1033A0003A4180912F4190913041A0913141B091AB
:1033B00032410196A11DB11D80932F419093304160
:1033C000A0933141B093324120932C41DF91CF91B2
:1033D00008959E7FB5CF9260BBCF9F7BC3CF8F7781
:1033E000C8CF1F93CF93DF9380913B4190913C4195
:1033F0009C012F5F3F4F30933C4120933B410E9403
:10340000E516C82FD0E0CE010E94E516182FCE0198
:10341000019699270E94E516382F212F80912B4184
:10342000820F932F911D90932E4180932D41DF9118
:10343000CF911F9108951F93CF93DF9380913B41CC
:1034400090913C419C012F5F3F4F30933C41209332
:103450003B410E94E516C0912A41C80FD0E0CE0141
:103460000E94E516182FCE01019699270E94E516B5
:10347000982F812F90932E4180932D41DF91CF91F2
:103480001F9108951F93CF93DF93C0913B41D0913B
:103490003C41CE010E94E516182FCE0101960E94F4
:1034A000E516382F212F80912B41820F932F911DEC
:1034B00090932E4180932D412296D0933C41C0930E
:1034C0003B41DF91CF911F9108951F93CF93DF93DD
:1034D000C0913B41D0913C41CE010E94E516182F8E
:1034E000CE0101960E94E516382F212F80912A41A6
:1034F000820F932F911D90932E4180932D41229600
:10350000D0933C41C0933B41DF91CF911F910895EF
:103510001F93CF93DF93C0913B41D0913C41CE01AB
:103520000E94E516182FCE0101960E94E516982FED
:10353000812F90932E4180932D412296D0933C4130
:10354000C0933B41DF91CF911F91089580913B4102
:1035500090913C419C012F5F3F4F30933C41209321
:103560003B410E94E516282F30E087FD05C03093CF
:1035700034412093334108953F6FF9CF80913B410F
:1035800090913C419C012F5F3F4F30933C412093F1
:103590003B410E94E51690912B41890F90E090935A
:1035A0002E4180932D41089580913B4190913C4163
:1035B0009C012F5F3F4F30933C4120933B410E9441
:1035C000E51690912A41890F90E090932E418093C7
:1035D0002D41089580913B4190913C419C012F5F8A
:1035E0003F4F30933C4120933B410E94E51690E0D1
:1035F00090932E4180932D410895809129418F5FB2
:103600008093294190E093950C94E5160F931F93B6
:10361000CF93DF9310912941C12FD0E0CE010196C5
:10362000992793950E94E516082FCE0102969927B7
:1036300093950E94E5161E5F10932941982F802FC5
:10364000DF91CF911F910F910895FC01019000200F
:10365000E9F73197AF01481B590BBC0187E491E4AE
:103660000C945F151F920F920FB60F9211242F9397
:103670003F938F939F93AF93BF93809143419091DA
:103680004441A0914541B09146413091424123E0EF
:10369000230F2D3758F50196A11DB11D20934241EE
:1036A0008093434190934441A0934541B093464158
:1036B00080913E4190913F41A0914041B091414164
:1036C0000196A11DB11D80933E4190933F41A0936F
:1036D0004041B0934141BF91AF919F918F913F91F4
:1036E0002F910F900FBE0F901F90189526E8230F73
:1036F0000296A11DB11DD2CF1F920F920FB60F924D
:1037000011242F933F934F935F936F937F938F93E6
:103710009F93AF93BF93EF93FF9387E491E40E944D
:10372000DD15FF91EF91BF91AF919F918F917F91A7
:103730006F915F914F913F912F910F900FBE0F901E
:103740001F9018951F920F920FB60F9211242F936E
:103750008F939F93EF93FF93E0915741F0915841DE
:103760008081E0915D41F0915E4182FD1BC09081BE
:10377000809160418F5F8F7320916141821741F08A
:10378000E0916041F0E0E95BFE4B958F80936041F2
:10379000FF91EF919F918F912F910F900FBE0F90FE
:1037A0001F9018958081F4CFCF93DF93CDB7DEB70C
:1037B000A1970FB6F894DEBF0FBECDBF789484B545
:1037C000826084BD84B5816084BD85B5826085BD1D
:1037D00085B5816085BD80916E00816080936E00AB
:1037E000109281008091810082608093810080919D
:1037F000810081608093810080918000816080934E
:1038000080008091B10084608093B1008091B0000D
:1038100081608093B00080917A00846080937A0008
:1038200080917A00826080937A0080917A00816032
:1038300080937A0080917A00806880937A00109259
:10384000C1008FEF9FE79EBF8DBF8CEF9FEF0E945F
:10385000E516182F8DEF9FEF0E94E516982F812F08
:1038600090933C4180933B4110922C4110922A410D
:1038700010922B418DEF8093294180913A418062D3
:1038800080933A41E0915741F091584182E0808322
:10389000E0915341F09154411082E0915541F091F3
:1038A000564180E1808310925F41E0915B41F0914D
:1038B0005C4186E08083E0915941F0915A418081DA
:1038C00080618083E0915941F0915A418081886004
:1038D0008083E0915941F0915A41808180688083D2
:1038E000E0915941F0915A4180818F7D808382E13E
:1038F00091E00E94251B19A28E010F5D1F4F20E051
:1039000039E240E050E09AE0892E912CA12CB12CB4
:103910007E018CE1E80EF11CCA01B901A5019401F8
:103920000E94CE23605DF80162938F01EE15FF05C2
:1039300099F7CF010E94251B8DE191E00E94251B84
:1039400084E291E00E94251B80E0A82E80E0B82E42
:1039500001E0D12CC12CE0903B41F0903C4147016B
:10396000FFEF8F1A9F0A90923C4180923B41C70122
:103970000E94E51610913A41712E689475F8709284
:103980003A41109239418F3F08F01FC1E82FF0E013
:10399000E453F34E0C94F023CB1D1E1EE51DE51DD4
:1039A000E51D231E281EE51D2D1E321E371EE51D9A
:1039B000E51D3C1E411EE51D461E7D1EE51DE51D47
:1039C000E51D821E871EE51D8C1E911EE51DE51D51
:1039D000E51D961E9B1EE51DA01EB21EE51DE51DE4
:1039E000B71EBC1EC11EE51DC61ECC1ED11EE51D88
:1039F000D61EDB1EE01EE51DE51E1C1FE51DE51D98
:103A0000E51D211F261FE51D2B1F2F1FE51DE51D91
:103A1000E51D341F391FE51D3E1F491FE51DE51D2E
:103A2000E51D4E1F531FE51D581F5D1F621FE51D3D
:103A3000671F721F771FE51D7C1FB31FE51DE51D66
:103A4000E51DB81FBD1FE51DC21FC71FE51DE51DF4
:103A5000E51DCC1FD11FE51DD61FDE1FE51DE51D91
:103A6000E51DE31FE81FE51DED1F05200A20E51DEC
:103A70000F2030203520E51D3A207120E51DE51D81
:103A8000E51D76207B20E51D80208420E51DE51DB9
:103A9000E51D89208E20E51DE51D9320E51DE51D12
:103AA0009820A020A520E51DAD20E51DC620E51D20
:103AB000DE20E620EB20E51DF3202A21E51DE51D93
:103AC0002F2137213C21E51D44215C216121E51D89
:103AD000E51D6621E51DE51D6B2170217521E51DA4
:103AE0007A217F218421E51D8921A121A621E51DBF
:103AF000BE21C321C821E51DCD210422E51DE51D00
:103B000009220E221322E51D18221D222222E51D64
:103B10003A223F224422E51D49224E22E51DE51DA1
:103B2000532258225D22E51D62227B228022E51D60
:103B300099229E22A322E51DA822DF22E51DE51D74
:103B4000E51DE422E922E51DEE22F322E51DE51D37
:103B5000E51DF822FD22E51D02230723E51DE51DD5
:103B60000C2311231623E51D1B233423E51D3423C9
:103B700039233E234323E51D48237F23E51DE51D0F
:103B8000E51D84238923E51D8E239223E51DE51D74
:103B9000E51D97239C23C70102960E94C816812F1A
:103BA00080630E94BC16146210933A418EEF9FEF1F
:103BB0000E94E516182F8FEF9FEF0E94E516982FB1
:103BC000812F90933C4180933B418091354190916E
:103BD0003641A0913741B09138410196A11DB11DE8
:103BE0008093354190933641A0933741B09338414B
:103BF0008FEFC81AD80AE8EECE16E3E0DE0609F029
:103C0000AACE80913D4181110DC087E491E40E94CC
:103C1000BD15892B39F087E491E40E949B158F77BD
:103C200080933D41A114B10409F493CE0E94C915BB
:103C3000882309F48ECE0E9400008BCE0E941B1AAE
:103C40000E94E417C2CF0E94EA1A0E94E417BDCF77
:103C50000E94EA1A0E944219B8CF812F80630E9405
:103C6000BC16B3CF0E9477160E94E417AECF009324
:103C700039410E944219A9CF0E94881A0E94E41774
:103C8000A4CF0E94881A0E9442199FCF0E94A61AB0
:103C900077FC9BCF20913B4130913C414091334197
:103CA00050913441420F531F50933C4140933B414C
:103CB00080912F4190913041A0913141B09132419A
:103CC000242735272227232B61F00296A11DB11D41
:103CD00080932F4190933041A0933141B093324172
:103CE00074CF0196A11DB11D80932F419093304157
:103CF000A0933141B093324168CF0E94F1190E94E4
:103D0000E41763CF0E94D41A0E94E4175ECF0E948A
:103D1000D41A0E94421959CF1E7F106210933A4163
:103D200054CF0E94421A0E94E4174FCF0E94651A96
:103D30000E94E4174ACF0E94651A0E94421945CF9B
:103D40000E94881A80913B4190913C4101970E94CA
:103D5000C81680912D4190912E4190933C418093C3
:103D60003B4133CF0E941B1A0E9469192ECF0E943B
:103D7000EA1A0E94281929CF0E94EA1A0E9469199A
:103D800024CF0E94EA1A0E94B7171FCF0E94FD1A83
:103D9000806280933A4119CF0E9477160E94691978
:103DA00014CF009339410E94B7170FCF0E94881A91
:103DB0000E9428190ACF0E94881A0E94691905CF0B
:103DC0000E94881A0E94B71700CF0E94A61A77FE99
:103DD000FCCE20913B4130913C4140913341509188
:103DE0003441420F531F50933C4140933B418091DB
:103DF0002F4190913041A0913141B091324124271F
:103E000035272227232B61F00296A11DB11D809337
:103E10002F4190933041A0933141B0933241D5CEA0
:103E20000196A11DB11D80932F4190933041A09325
:103E30003141B0933241C9CE0E94F1190E946919F3
:103E4000C4CE0E94D41A0E946919BFCE0E94D41A0F
:103E50000E94B717BACE116210933A41B6CE0E94B3
:103E6000421A0E946919B1CE0E94651A0E9469190E
:103E7000ACCE0E94651A0E94B717A7CE0E94FD1A09
:103E800080933A410E94061B90933C4180933B41B2
:103E90009CCE0E941B1A0E94841897CE0E94EA1A98
:103EA0000E94841892CE0E94EA1A0E94FF178DCEBB
:103EB00080912C410E94BC1688CE0E9477160E94E9
:103EC000841883CE009339410E94FF177ECE0E9452
:103ED000881A80912D4190912E4190933C4180937E
:103EE0003B4173CE0E94881A0E9484186ECE0E94B5
:103EF000881A0E94FF1769CE0E94A61A16FD65CE89
:103F000020913B4130913C414091334150913441AB
:103F1000420F531F50933C4140933B4180912F41AE
:103F200090913041A0913141B09132412427352701
:103F30002227232B61F00296A11DB11D80932F41F2
:103F400090933041A0933141B09332413ECE0196DF
:103F5000A11DB11D80932F4190933041A093314119
:103F6000B093324132CE0E94F1190E9484182DCEB6
:103F70000E94D41A0E94841828CE0E94D41A0E944B
:103F8000FF1723CE1B7F106210933A411ECE0E9472
:103F9000421A0E94841819CE0E94651A0E94841841
:103FA00014CE0E94651A0E94FF170FCE0E94061BB6
:103FB000019690933C4180933B4107CE0E941B1A8F
:103FC0000E94851902CE0E94EA1A0E948519FDCD31
:103FD0000E94EA1A0E948D17F8CD0E94FD1A809364
:103FE0002C41882361F01D7F106210933A4190911B
:103FF0003A4187FF06C0906890933A41E6CD12623D
:10400000F4CF9F7790933A41E0CD0E9477160E94BB
:104010008519DBCD009339410E948D17D6CDC4019F
:104020000E94E516182FC70102960E94E516982FE8
:10403000812F9C012F5F3F4F7C01EE24E22A0E94DA
:10404000E516182FC7010E94E516982F812F90932F
:104050002E4180932D4190933C4180933B41B5CDBF
:104060000E94881A0E948519B0CD0E94881A0E9469
:104070008D17ABCD0E94A61A16FFA7CD20913B410C
:1040800030913C414091334150913441420F531F94
:1040900050933C4140933B4180912F41909130415E
:1040A000A0913141B0913241242735272227232B7B
:1040B00061F00296A11DB11D80932F419093304174
:1040C000A0933141B093324180CD0196A11DB11D25
:1040D00080932F4190933041A0933141B09332416E
:1040E00074CD0E94F1190E9485196FCD0E94D41AD7
:1040F0000E9485196ACD0E94D41A0E948D1765CD41
:10410000146210933A4161CD0E94421A0E948519AF
:104110005CCD0E94651A0E94851957CD0E94651AD0
:104120000E948D1752CD0E941B1A0E94B7164DCDCA
:104130000E94EA1A80912B4190E00E94A91645CD79
:104140000E94EA1A0E94B71640CD0E94EA1A809196
:104150002A4190E00E94A91638CD90912B419150B0
:1041600090932B41992361F01D7F106210933A4187
:1041700080913A4197FF06C0806880933A4125CDEF
:104180001262F4CF8F7780933A411FCD90912A41EC
:1041900090932C41992361F01D7F106210933A4156
:1041A00080913A4197FF06C0806880933A410DCDD7
:1041B0001262F4CF8F7780933A4107CD0E94881A1C
:1041C00080912B4190E00E94A916FFCC0E94881A92
:1041D0000E94B716FACC0E94881A80912A4190E07A
:1041E0000E94A916F2CC0E94A61A10FDEECC2091D6
:1041F0003B4130913C414091334150913441420F19
:10420000531F50933C4140933B4180912F419091EB
:104210003041A0913141B0913241242735272227E6
:10422000232B61F00296A11DB11D80932F41909325
:104230003041A0933141B0933241C7CC0196A11DCA
:10424000B11D80932F4190933041A0933141B093A1
:104250003241BBCC0E94F1190E94B716B6CC0E9425
:10426000D41A80912B4190E00E94A916AECC0E94F6
:10427000D41A0E94B716A9CC0E94BE1A80912A4176
:1042800090E00E94A916A1CC90912B4190932C41D3
:10429000992361F01D7F106210933A4180913A4159
:1042A00097FF06C0806880933A418FCC1262F4CFAA
:1042B0008F7780933A4189CC0E94421A0E94B716A8
:1042C00084CC80912A41809329417FCC0E94651A39
:1042D0000E94B7167ACC0E9477160E94221875CCDD
:1042E0000E941B1A0E94521870CC0E9477160E94DE
:1042F0003A186BCC0E94EA1A0E94221866CC0E94DF
:10430000EA1A0E94521861CC0E94EA1A0E943A18D6
:104310005CCC90912C4190932B41992361F01D7FAF
:10432000106210933A4180913A4197FF06C080682D
:1043300080933A414ACC1262F4CF8F7780933A410E
:1043400044CC0E9477160E9452183FCC90912C4189
:1043500090932A41992361F01D7F106210933A4196
:1043600080913A4197FF06C0806880933A412DCCF6
:104370001262F4CF8F7780933A4127CC0E94881A3B
:104380000E94221822CC0E94881A0E9452181DCC2A
:104390000E94881A0E943A1818CC0E94A61A10FF90
:1043A00014CC20913B4130913C414091334150919C
:1043B0003441420F531F50933C4140933B41809105
:1043C0002F4190913041A0913141B0913241242749
:1043D00035272227232B61F00296A11DB11D809362
:1043E0002F4190933041A0933141B0933241EDCBB6
:1043F0000196A11DB11D80932F4190933041A09350
:104400003141B0933241E1CB0E94F1190E94521820
:10441000DCCB0E94D41A0E942218D7CB0E94D41A57
:104420000E945218D2CB0E94BE1A0E943A18CDCBDD
:104430001F7B106210933A41C8CB0E94421A0E941F
:104440005218C3CB9091294190932A41992361F04E
:104450001D7F106210933A4180913A4197FF06C048
:10446000806880933A41B1CB1262F4CF8F7780930A
:104470003A41ABCB0E94651A0E942218A6CB0E943B
:10448000651A0E945218A1CB0E94421A0E943A1843
:104490009CCB0E9477160E94B91897CB0E941B1ADA
:1044A0000E94031992CB0E94EA1A0E94B9188DCB80
:1044B0000E94EA1A0E94031988CB0E94EA1A0E94FD
:1044C0009F1883CB90912B419F5F90932B41992311
:1044D00061F01D7F106210933A4180913A4197FF3D
:1044E00006C0806880933A4170CB1262F4CF8F7718
:1044F00080933A416ACB0E9477160E94031965CBDC
:1045000090912A41915090932A41992361F01D7F07
:10451000106210933A4180913A4197FF06C080683B
:1045200080933A4152CB1262F4CF8F7780933A4115
:104530004CCB0E94881A0E94B91847CB0E94881A57
:104540000E94031942CB0E94881A0E949F183DCBFB
:104550000E94A61A11FD39CB20913B4130913C417C
:104560004091334150913441420F531F50933C418D
:1045700040933B4180912F4190913041A091314136
:10458000B0913241242735272227232B61F0029650
:10459000A11DB11D80932F4190933041A0933141D3
:1045A000B093324112CB0196A11DB11D80932F41D2
:1045B00090933041A0933141B093324106CB0E9499
:1045C000F1190E94031901CB0E94D41A0E94031909
:1045D000FCCA0E94D41A0E949F18F7CA177F106263
:1045E00010933A41F2CA0E94421A0E940319EDCA7E
:1045F0000E94651A0E940319E8CA0E94651A0E9467
:104600009F18E3CA0E9477160E94DE18DECA0E9435
:104610001B1A0E941B17D9CA0E94EA1A0E94DE18B0
:10462000D4CA0E94EA1A0E941B17CFCA0E94EA1A33
:104630000E946A18CACA90912A419F5F90932A41AA
:10464000992361F01D7F106210933A4180913A41A5
:1046500097FF06C0806880933A41B7CA1262F4CFD0
:104660008F7780933A41B1CA0E9477160E941B1738
:10467000ACCA0E94881A0E94DE18A7CA0E94881A33
:104680000E941B17A2CA0E94881A0E946A189DCA1B
:104690000E94A61A11FF99CA20913B4130913C41DA
:1046A0004091334150913441420F531F50933C414C
:1046B00040933B4180912F4190913041A0913141F5
:1046C000B0913241242735272227232B61F002960F
:1046D000A11DB11D80932F4190933041A093314192
:1046E000B093324172CA0196A11DB11D80932F4132
:1046F00090933041A0933141B093324166CA0E94F9
:10470000F1190E941B1761CA0E94D41A0E941B173C
:104710005CCA0E94D41A0E946A1857CA1862109381
:104720003A4153CA0E94421A0E941B174ECA0E9465
:10473000651A0E941B1749CA0E94651A0E946A18CE
:1047400044CAE7E4F1E41382128288EE93E0A0E029
:10475000B0E084839583A683B78384E091E091835E
:10476000808385EC90E09587848784EC90E0978740
:10477000868780EC90E0918B808B81EC90E0938B2E
:10478000828B82EC90E0958B848B86EC90E0978B0B
:10479000868B118E128E138E148E0895A1E21A2E1E
:1047A000AA1BBB1BFD010DC0AA1FBB1FEE1FFF1FD5
:1047B000A217B307E407F50720F0A21BB30BE40B25
:1047C000F50B661F771F881F991F1A9469F760956C
:1047D0007095809590959B01AC01BD01CF01089526
:1047E000EE0FFF1F0590F491E02D0994F894FFCF90
:1047F00000000000FF155F158C154C16BD159B15AC
:10480000AF155B656D75363530325D2000206279FD
:08481000746573000D0A00003D
:00000001FF
