:100000000C944F1A0C94771A0C94771A0C94771A54
:100010000C94771A0C94771A0C94771A0C94771A1C
:100020000C94771A0C94771A0C94771A0C94771A0C
:100030000C94771A0C94771A0C94771A0C94771AFC
:100040000C945C2E0C94771A0C942A2E0C94042E8B
:100050000C94771A0C94771A0C94771A0C94771ADC
:100060000C94A62E0C94771A0000000000000000EB
:100070000000000000000000000000000000000080
:100080000000000000000000000000000000000070
:100090000000000000000000000000000000000060
:1000A0000000000000000000000000000000000050
:1000B0000000000000000000000000000000000040
:1000C0000000000000000000000000000000000030
:1000D0000000000000000000000000000000000020
:1000E0000000000000000000D8A2FF9AA01CB9BBCD
:1000F000FF99040288D0F7B9D8FFF00620EDE0C8D8
:10010000D0F520EAE090FB29DFC957F007C943D0BA
:10011000D74C00C04C00008D01F060AD04F0F0023F
:1001200038601860B3FFAFFFBBFFBBFF48A5DF4AD5
:1001300005DF85DF684048A5DC4A05DC85DC6840D2
:100140000D0A363530322045684241534943205B21
:10015000435D6F6C642F5B575D61726D203F0000E3
:100160000000170280FF0D02A004B9F6E09900021A
:100170008810F7A2FF86889AA94C85A1A21CBDFA17
:10018000E095BBCAD0F8A212BD17E19500CA10F8DD
:10019000A90085DC85DF85B28567A90E8564A90382
:1001A00085A0A26886652092C8A92AA0E120D3C8AC
:1001B0002040C286C384C420C200D01FA000E61124
:1001C000D008E612A512C9C0F01DA9559111D11190
:1001D000D0150A9111D111F0E5D00C20A6D9A5AC0B
:1001E000C998B0A220F7D4A511A412C00190978598
:1001F00085848685818482A000A2038479867A988A
:100200009179E6792092C82050C3A58538E579AA6E
:10021000A586E57A2082DAA939A0E120D3C8A95AB7
:10022000A0C1850184026C0100200BC1857F848000
:1002300038A5A6E5AAA8A5A7E5ABAAE898F02438B2
:1002400049FF65A685A6B003C6A7389849FF65A4EF
:1002500085A4B008C6A59004B1A691A488D0F9B130
:10026000A691A4C6A7C6A5CAD0F2608578BAE478DC
:10027000903060C482902AD004C581902448A2089E
:100280009848B5A3CA10FA20DFD1A2006895A4E867
:10029000E00830F868A868C4829006D005C581B02F
:1002A0000160A20C2092C8BDA9E6BCAAE620D3C872
:1002B0002089C3A9E6A0E720D3C8A488C8F00320FA
:1002C00077DAA90085DF85DCA9F7A0E720D3C8206D
:1002D0004DC286C384C420C200F0F4A2FF86889079
:1002E00006207EC24CF3C42055C7207EC2845D2008
:1002F00024C39044A001B1AA8572A57B8571A5ABEA
:100300008574A5AA88F1AA18657B857B8573A57C71
:1003100069FF857CE5ABAA38A5AAE57BA8B003E810
:10032000C6741865719003C67218B1719173C8D004
:10033000F9E672E674CAD0F2AD2102F03FA585A4B9
:100340008685818482A57B85A6A47C84A7655D9033
:1003500001C885A484A520C1C0A57FA480857B8415
:100360007CA45D88B91D0291AA88C003D0F6A512AD
:1003700091AA88A51191AA88A9FF91AA2065C3A670
:1003800079A57AA00186718572B171F018A004C8B0
:10039000B171D0FB38986571AAA00091719865720F
:1003A000C8917190E04C67C120EBC820E8C8D00527
:1003B00020EDC8CA2CA20020EAE090FBF0F9C907A2
:1003C000F010C90DF019E000D004C92190E9C90866
:1003D000F0DEE047B00C9D2102E820EDC8D0D84CFB
:1003E00089C8A907D0F4A0FF38A5C3E921AA86606F
:1003F000BD2102F051C95FB04DC93CB00EC930B04B
:1004000045855CC922F061C92A903B24607037861B
:100410007884BAA0108473A0E38474A000D173F030
:10042000059021C8D0F7980AAABD2EE38573BD2F89
:10043000E38574A0FFA678C8B1733008E8DD210217
:10044000F0F5D02BA4BAE8C8992102C900F032E92E
:100450003AF004C949D00285604957D093855CBD04
:100460002102F0E2C55CF0DEC8992102E8D0F0A6D6
:1004700078B17308C82810F9B173D0BEBD2102103D
:10048000C3C8C8992102C8C8C8C6C360A579A67ADE
:10049000A00185AA86ABB1AAF01AA003B1AA88C5AB
:1004A00012D004B1AAC511B00988B1AAAA88B1AA0C
:1004B00090DEF0011860D0FDA900A89179C891796B
:1004C00018A5796902857BA57A6900857C18A579CC
:1004D00069FF85C3A57A69FF85C4A585A486858142
:1004E0008482A57BA47C857D847E857F8480204456
:1004F000C5A268866568AA688EFE018DFF01A2FD0F
:100500009AA900858C856160F0D0609006F004C9DE
:10051000B7D0F42055C72024C320C200F00CC9B7BF
:10052000D09320BC002055C7D08BA5110512D00652
:10053000A9FF85118512A00184602092C8B1AAF09C
:100540003E2014C5C8B1AAAAC8B1AAC512D004E4F5
:1005500011F002B02A84972082DAA920A497297F7B
:1005600020EDC8C922D006A56049FF8560C8B1AAA0
:10057000D00EA8B1AAAAC8B1AA86AA85ABD0B76086
:1005800010DE246030DAA2E50A0A9002E818691148
:100590009001E8857386748497A000B173AAC8B1EE
:1005A00073CAF0B820EDC8C8B17348C8B173A000D1
:1005B0008574688573B173CAF0A220EDC8C8D0F500
:1005C000A980856120B4C76868A9102003C1209D57
:1005D000C6189865C348A5C4690048A58848A5877A
:1005E00048A9AD20F1CB20D0CA20CDCAA5B0097F43
:1005F00025AD85ADA997A0C4857184724C84CBA923
:10060000E0A0E1207DD820C200C9B2D00620BC0005
:1006100020CDCA20E9D885B02079CBA59848A597E8
:1006200048A981482014C5A5C3A4C4A688E8F0043D
:10063000858B848CA000B1C3F007C93AF01D4C0231
:10064000CCA002B1C318F056C8B1C38587C8B1C3E6
:1006500085889865C385C39002E6C420BC0020FC51
:10066000C44CBCC4F0540AB0034CB4C7C956B0CE95
:10067000A8B908E248B907E2484CBC006C0302C9BB
:1006800003B00118D067A5C44902F0104902A4C301
:10069000848B858CA587A4888589848A686890075F
:1006A000A9DEA0E74C4FC14C5AC1D00F38A579E95B
:1006B00001A47AB00188858F8490602055C720A05E
:1006C000C6A588C512B00B983865C3A6C49007E8C4
:1006D000B004A579A67A2028C3B0034C72C6A5AA97
:1006E000E901A4ABB0D090CD208CD4860D60D0FDB4
:1006F000A48CD005A21E4C3CC1A9932014DFA99361
:100700002017DF84C4A58B85C3A589A48A85878427
:100710008860D0034C65C32072C3F02EA905200366
:10072000C1A5C448A5C348A58848A58748A99D4830
:1007300020C2004CBCC4A9052003C1A5C448A5C360
:1007400048A58848A58748A98D4820C20020EBC548
:100750004CBCC42055C720A0C6A588C512B00B98B4
:100760003865C3A6C49007E8B004A579A67A202806
:10077000C39067A5AAE90185C3A5ABE90085C4605C
:10078000A2224C3CC1A8BABD0301C99DD0F2E8E841
:100790009A98F020C93AF01CE9B3AAF004CAD062D2
:1007A000CA869820BC0020E1CAA5ACF002A9FFBA15
:1007B0004598D01ABD02018587BD03018588BD0417
:1007C0000185C3BD050185C420C2004CBCC4E8E856
:1007D000E8E8E89A4C8CC6A2042CA20E4C3CC1D08E
:1007E0009E686868C98DD0EF688587688588688548
:1007F000C36885C4209DC6981865C385C39002E66A
:10080000C4604C02CCA23A2CA200A000845C8A45B1
:100810005C855CB1C3F0EAC55CF0E6C8C922D0F3E0
:10082000F0EC20E1CA20C200C9B0F011C989D0D2D1
:10083000A6C3A4C420BC00B0C986C384C4A5ACF0C0
:100840001B20BC00B0034CEBC5C990D0034CFEC4C8
:1008500020FCC4A000B1C3C9ACF09960A000A20103
:10086000C8B1C3F00FC98BD003E8D0F4C9ACD0F045
:10087000CAD0EDC8981865C385C39002E6C420C2EB
:100880000090C34CFCC420A0C64C8FC64C02CCC9FF
:10089000A9D0034C38DFC9AAD0034C3CDF208CD44C
:1008A00048C98DF004C989D0E3C6AFD004684CFEB6
:1008B000C420BC002055C7C92CF0EE6860A2008699
:1008C000118612B0F7E019A8B0DDE92FA8A5110A2A
:1008D00026120A2612651185118A651206112AAAA6
:1008E00098651185119001E820BC004C59C7A9E416
:1008F0002CA9E04820AACDA65F301E8597849820B9
:100900007DD86848A0E120BED520A3D820C200C968
:100910002CD0A820BC004C8CC74CDCCA20AACD85AA
:10092000978498A9C120F1CBA55F4820E1CA682A25
:1009300020D3CAD0034CA3D8A002B1AEC582901771
:10094000D00788B1AEC581900EA4AFC47C9008D00A
:100950000DA5AEC57BB007A5AEA4AF4C0CC8A000DA
:10096000B1AE2032D1A59EA49F85B884B92011D301
:10097000A9ACA000859E849F2073D3A000B19E9156
:1009800097C8B19E9197C8B19E91976020AACD85D6
:100990009784982000DFA65F3007A82066D04CA37C
:1009A000D848A901B00168203AD1F00568A00091AB
:1009B000AD2085D14CD0C720D6C820C200F03BC99D
:1009C000ABF056C9AFF052C92CF038C93BF06620E5
:1009D000E1CA245F30E12095DA2044D1A000A50FC0
:1009E000F00A38E50EF1AEB0032092C820D6C8F068
:1009F000C9A9009D2102A221A002A90D20EDC8A92C
:100A00000AD052A50EC51090052092C8D02738E50F
:100A100064B0FC49FF6901D012482089D4C929D0AB
:100A20007B68C9ABD0068AE50E900AAA8AF0062038
:100A3000E8C8CAD0FA20BC00D085602044D1203E4E
:100A4000D3A000AAF049B17120EDC8C8CAD0F760A0
:100A5000A9202CA93FC920901948A50FD00AA50E9E
:100A6000E564D00B850EF007C50ED0032092C8E6D2
:100A70000E6820EDE0C90DD0148678A60DF00AA905
:100A80000020EDC8CAD0FAA90D860EA67829FF600D
:100A9000A562100BA58DA48E858784884C02CCA9F5
:100AA00012A0E820D3C8A58BA48C85C384C460C9D8
:100AB00022D00B20BECBA93B20F1CB20D6C8206A88
:100AC000D02040C2A900CD2102D00A184C2CC5A6C6
:100AD0008FA490A98085628691849220AACD859763
:100AE0008498A5C3A4C485118412A691A49286C338
:100AF00084C420C200D0112462306520EBC820409D
:100B0000C286C384C420C200245F1024855BC9222E
:100B1000F007A93A855BA92C18855CA5C3A4C46914
:100B2000009001C8204AD120CFD420D0C74CCEC9D4
:100B300020A6D920A3D820C200F00AC92CF0034C6B
:100B400028C920BC00A5C3A4C485918492A511A482
:100B50001285C384C420C200F02C20FECB4C73C984
:100B6000209DC6C8AAD012A206C8B1C3F073C8B1EE
:100B7000C3858DC8B1C3C8858EB1C3C8AA208FC62E
:100B8000E083F081D0DAA591A492A66210034C4EC6
:100B9000C5A000B191D00160A901A0E84CD3C8BAAA
:100BA000E8E8E8E8BD0101C981D021A598D00ABDD7
:100BB00002018597BD03018598DD0301D007A59744
:100BC000DD0201F0078A186910AAD0D860D004A00D
:100BD00000F00320AACD859784982037CAF004A29C
:100BE00000F0639A8A38E9F7857369FBA001207DDC
:100BF000D8BABD080185B0A597A49820BED520A37A
:100C0000D8A0012019D9BADD0801F017BD0D018562
:100C100087BD0E018588BD100185C3BD0F0185C448
:100C20004CBCC48A690FAA9A20C200C92CD0F120FA
:100C3000BC00206BCA20E1CA182438245F3003B0FE
:100C40000360B0FDA2184C3CC1A6C3D002C6C4C606
:100C5000C3A90048A9022003C120CDCBA900859BD0
:100C600020C20038E9C09017C903B013C9012A494E
:100C700001459BC59B9067859B20BC004CFBCAA689
:100C80009BD02CB079690A9075D007245F10034C73
:100C9000D4D285710A6571A868D9E9E2B06520D01F
:100CA000CA482062CB68A4991019AAF076D05D26B4
:100CB0005F8A855F2AA6C3D002C6C4C6C3A02485A6
:100CC0009BD0D5D9E9E2B04490D7B9EBE248B9EA74
:100CD000E2482079CBA59B48B9E9E24CEBCA4C022B
:100CE000CC688571E671688572A5B04820D9D8A511
:100CF000AF48A5AE48A5AD48A5AC486C7100A0FFB3
:100D000068F020C964F00320D0CA8499684A8563DA
:100D10006885B36885B46885B56885B66885B74564
:100D2000B085B8A5AC60A5C3A4C469009001C82073
:100D300044D14CCFD420BC00B0034CA6D9AA302F4C
:100D4000C924F0F6C925F0F2C92EF0EEC922F0D67A
:100D5000C928D04F20E9CAA929A000D1C3D00B4C83
:100D6000BC00A928D0F3A92CD0EFA2024C3CC1C9E9
:100D7000B7F029C9B6F0BEC9B1D013A021D01F2049
:100D8000A6CEA5AF49FFA8A5AE49FF4C59D0C9AE24
:100D9000D0034CB4D0E9C3B0194C02CCA01E686893
:100DA0004C3ACB20AACD85AE84AFA65F30034C7DF4
:100DB000D8600AA8B9A4E248B9A3E248B95EE2F053
:100DC0000548B95DE2486020ECCB4CD2CA20ECCBA0
:100DD0004CD0CA465F4CBC0020E9CA20FECB20D2D2
:100DE000CA68AA68A8A5AF48A5AE4898488A48200E
:100DF0008CD48A6020E9CA20D0CAA5ACC998B0209A
:100E00002050D9A202B5AD9511CA10F920C200A296
:100E100000C929F00A20DED420C200C929D001600F
:100E20004C29CF20E2CC455BA8A5AE455C4C59D0FF
:100E300020E2CC055BA8A5AE055C4C59D020E2CCE5
:100E4000255BA8A5AE255C4C59D020A6CEA5AE85C5
:100E50005CA5AF855B20C3D520A6CEA5AF6020D30F
:100E6000CAB013A5B7097F25B485B4A9B3A00020E3
:100E700017D9AA4C3FCD465FC69B203ED385AC8692
:100E8000AD84AEA5B5A4B62042D386B584B6AA3843
:100E9000E5ACF008A9019004A6ACA9FF85B0A0FFBD
:100EA000E8C8CAD007A6B0300F18900CB1B5D1ADC4
:100EB000F0EFA2FFB002A201E88A2A2563F002A99E
:100EC000FF4CFAD820FECBAA20AFCD20C200D0F430
:100ED00060209FCDA5AEA678F022E010B02306AF2B
:100EE0002ACAD0FAA4AF4C59D0209FCDA5AEA6787F
:100EF000F00AE010B00B4A66AFCAD0FAA4AF4C5962
:100F0000D0A900A84C59D0208FD4867820C3D54CC6
:100F1000A6CEA20020C200865E8593297F201ECE29
:100F2000B0034C02CCA200865F20BC009005201EBE
:100F3000CE900BAA20BC0090FB201ECEB0F6C92498
:100F4000D00BA9FF855F8A0980AA20BC0086940582
:100F500061C928D0034CB8CEA9008561A57BA67CC9
:100F6000A00086AB85AAE47ED004C57DF02CA593B5
:100F7000D1AAD008A594C8D1AAF0698818A5AA69F1
:100F80000690E1E8D0DCC961B00AC9419005E95B8F
:100F900038E9A560E97B38E985606848C93DD00536
:100FA000A9E1A0E160A57DA47E85AA84ABA57FA46C
:100FB0008085A684A71869069001C885A484A52009
:100FC000C1C0A5A4A4A5C8857D847EA000A59391D9
:100FD000AAC8A59491AAA900C891AAC891AAC89123
:100FE000AAC891AAA5AA186902A4AB9001C88595C0
:100FF000849660A55D0A690565AAA4AB9001C885C1
:10100000A484A56020BC0020CDCAA5B0300DA5AC3D
:10101000C9909009A9E8A0E12017D9D0744C50D903
:10102000A55E48A55F48A0009848A59448A59348A8
:10103000209CCE68859368859468A8BABD02014853
:10104000BD010148A5AE9D0201A5AF9D0101C820CB
:10105000C200C92CF0D2845D20EFCB68855F688523
:101060005EA67DA57E86AA85ABC580D004E47FF010
:1010700039A000B1AAC8C593D006A594D1AAF0168C
:10108000C8B1AA1865AAAAC8B1AA65AB90D7A21020
:101090002CA2084C3CC1A212A55ED0F7208BCEA595
:1010A0005DA004D1AAD0E74CC5CF208BCE200BC1C8
:1010B000A00084BBA59391AAC8A59491AAA55DA000
:1010C0000484BA91AA18A20BA900245E500768698B
:1010D00001AA686900C891AAC88A91AA2014D0867A
:1010E000BA85BBA471C65DD0DD65A5B05D85A5A838
:1010F0008A65A49003C8F052200BC1857F8480A923
:1011000000E6BBA4BAF0058891A4D0FBC6A5C6BB77
:10111000D0F5E6A538A002A57FE5AA91AAC8A580CA
:10112000E5AB91AAA55ED053C8B1AA855DA900859B
:10113000BA85BBC868AA85AE6885AFD1AA900ED023
:1011400006C88AD1AA90074C26CF4C3AC1C8A5BB85
:1011500005BAF00A2014D08A65AEAA98A47165AFCA
:1011600086BAC65DD0CB06BA2A06BA2AA8A5BA6541
:10117000A485959865A58596A8A595608471B1AA62
:10118000857688B1AA8577A91085A8A200A0008AD3
:101190000AAA982AA8B0B306BA26BB900B188A658B
:1011A00076AA986577A8B0A2C6A8D0E360A55F101C
:1011B00003203ED320DFD138A581E57FA8A582E5B5
:1011C00080465F85AD84AEA2904C02D9A40EA900E2
:1011D000F0EFA688E8D0A4A2164C3CC120A5D0858B
:1011E0009C849D206AD020FACBA980856120AACD5D
:1011F00020D0CA20EFCBA9C120F1CBA59648A59558
:1012000048A5C448A5C348208CC64C14D1A9AE201B
:10121000F1CB0980856120B1CD4CD0CA20A5D04842
:10122000984820FACB20E1CA20EFCB20D0CA6885AD
:101230009D68859CA220A003B19CF09D859688B1F5
:101240009C8595AAC8B195488810FAA49620A7D87D
:10125000A5C448A5C348B19C85C3C8B19C85C4A595
:101260009648A5954820CDCA68859C68859D20C272
:1012700000F0034C02CC6885C36885C4A000689167
:101280009CC868919CC868919CC868919C6020D05B
:10129000CA2095DAA9F0A000F012A6AEA4AF869EEF
:1012A000849F20ADD186AD84AE85AC60A222865BE2
:1012B000865C85B884B985AD84AEA0FFC8B1B8F0AE
:1012C0000CC55BF004C55CD0F3C922F0011884ACF6
:1012D0009865B885BAA6B99001E886BBA5B9C903D7
:1012E000B00B982032D1A6B8A4B9201FD3A665E0D0
:1012F00071D005A21C4C3CC1A5AC9500A5AD9501D3
:10130000A5AE9502A00086AE84AF88845F8666E8AD
:10131000E8E886656046604849FF386581A482B088
:101320000188C4809011D004C57F900B8581848290
:1013300085838484AA6860A20CA56030B820DFD1C0
:10134000A980856068D0D0A685A58686818582A083
:1013500000849DA57FA68085AA86ABA96885718437
:1013600072C565F0052063D2F0F706A0A57BA67CC8
:1013700085718672E47ED004C57DF005205DD2F0D3
:10138000F385A486A5A90485A0A5A4A6A5E480D07C
:1013900004C57FF07585718672A002B17165A48560
:1013A000A4C8B17165A585A5A001B17110DBA00429
:1013B000B1710A69052095D2E4A5D004C5A4F0CD89
:1013C0002063D2F0F3C8B1711030C8B171F02BC8EE
:1013D000B171AAC8B171C5829006D01EE481B01A5D
:1013E000C5AB9017D004E4AA901186AA85ABA5716D
:1013F000A672859C869D888884A218A5A0657185A3
:10140000719002E672A672A00060C6A0A69DF0F5DB
:10141000A4A218B19C65AA85A6A5AB690085A7A55D
:1014200081A68285A486A520C8C0A4A2C8A5A4912F
:101430009CAAE6A5A5A5C8919C4CE3D1A5AF48A55B
:10144000AE4820CDCB20D2CA6885B86885B9A00047
:10145000B1B81871AE9005A21A4C3CC12032D1200F
:1014600011D3A59EA49F2042D32023D3A5B8A4B90D
:101470002042D32085D14CF8CAA000B1B848C8B1E9
:10148000B8AAC8B1B8A86886718472AAF014A0007E
:10149000B1719183C8CAD0F898186583858390028A
:1014A000E6846020D2CAA5AEA4AF85718472207391
:1014B000D308A000B17148C8B171AAC8B171A868B9
:1014C00028D013C482D00FE481D00B4818658185E1
:1014D000819002E682688671847260C467D00CC510
:1014E00066D0088565E9038566A00060208FD48AF0
:1014F00048A901203AD168A00091AD4C85D148207F
:10150000F7D3D19E98F0094820F7D318F19E49FFF0
:101510009004B19EAA98488A48203AD1A59EA49FDB
:101520002042D368A86818657185719002E67298A8
:101530002023D34C85D148A9FF85AF20C200C929FB
:10154000F00620FECB208CD420F7D3CA8A4818A2FC
:1015500000F19EB0C249FFC5AF90BDA5AFB0B920A4
:10156000EFCB6885A26885A368AA68859E68859F79
:10157000A0008AF079E6A26CA200203BD385ACA83B
:10158000F038203AD186AD84AEA888B1712022CE41
:1015900090020920918398D0F1F01F203BD385ACB5
:1015A000A8F017203AD186AD84AEA888B171201E6C
:1015B000CE900229DF918398D0F14C85D120BC00D8
:1015C00020AACD20EFCB20D2CAA002B195AA88B123
:1015D00095A88A4C59D02074D44C66D0203BD3A80F
:1015E000602074D4F008A000B171A84C66D04C29DA
:1015F000CF20BC0020CDCA20A2CEA4AED0F0A6AF92
:101600004CC2002074D4D0034C50D6A6C3A4C486C8
:10161000BA84BBA67186C31865718573A57285C42B
:1016200069008574A000B1734898917320C20020AE
:10163000A6D968A0009173A6BAA4BB86C384C4606F
:1016400020CDCA20F1D420FECBA51248A5114820F8
:101650008CD468851168851260A5ACC998B08F20BC
:1016600050D9A5AEA4AF841185126020F1D4A20098
:10167000A111A84C66D020D8D48AA2008111602084
:10168000F1D4A200A111A8E611D002E612A1114CDA
:1016900059D020CDCA20F1D48497859820FECB2044
:1016A000CDCA20F1D498A2008197E697D002E6989F
:1016B000A51281974CC20020AACD85978498A55F7A
:1016C0004820FECB20AACD68455F1010A003B1973B
:1016D000AAB19591978A91958810F3604CDCCA2045
:1016E000CDCA20F1D4A9D548A985486C11004CC2B7
:1016F0000020D8D48697A20020C200F00320DED4B8
:101700008698B11145982597F0F860208BD7A5B041
:1017100049FF85B045B785B8A5AC4CC1D520DAD610
:10172000904DA9E9A0E1208BD7D010A5B785B0A234
:1017300004B5B295ABCAD0F986B960A6B986A3A2A2
:10174000B3A5B3A8F0C438E5ACF024901284ACA4DF
:10175000B784B049FF6900A00084A3A2ACD004A064
:101760000084B9C9F930B6A8A5B9560120F1D6242C
:10177000B8104CA0ACE0B3F002A0B33849FF65A3A9
:1017800085B9B90300F50385AFB90200F50285AE4E
:10179000B90100F50185ADB0032096D6A0009818D8
:1017A000A6ADD03EA6AE86ADA6AF86AEA6B986AF34
:1017B00084B96908C918D0E8A90085AC85B060650E
:1017C000A385B9A5AF65B685AFA5AE65B585AEA550
:1017D000AD65B485ADB01A60690106B926AF26AE15
:1017E00026AD10F438E5ACB0CF49FF690185AC9067
:1017F0000CE6ACF03666AD66AE66AF66B960A5B015
:1018000049FF85B0A5AD49FF85ADA5AE49FF85AEC1
:10181000A5AF49FF85AFA5B949FF85B9E6B9D00A9B
:10182000E6AFD006E6AED002E6AD60A20A4C3CC1FF
:10183000A274B40384B9B4029403B4019402A4B2B0
:101840009401690830ECF0EAE908A8A5B9B01216CD
:10185000019002F60176017601760276036AC8D01D
:10186000EE186020E9D8F00210034C29CFA5ACE9AE
:101870007F48A98085ACA969A0E120BED5A96DA04B
:10188000E12001D8A9E0A0E120A3D5A95CA0E12036
:1018900051DCA971A0E120BED5682045DAA975A068
:1018A000E1208BD7F04C20B1D7A9008575857685CE
:1018B00077A5B92060D7A5AF2060D7A5AE2060D7A7
:1018C000A5AD2065D74C6ED8D0034CC8D64A098048
:1018D000A8901318A57765B68577A57665B5857642
:1018E000A57565B4857566756676667766B9984A36
:1018F000D0DE6085718472A003B17185B688B17144
:1019000085B588B17185B745B085B8A5B70980851B
:10191000B488B17185B3A5AC60A5B3F01D1865ACF2
:1019200090043031182C1012698085ACD0034C54CF
:10193000D6A5B885B060A5B0101B68684C50D620FD
:10194000CAD8AAF0F0186902B00BA20086B820DB52
:10195000D5E6ACD0E04CC3D620CAD8A9F1A0E1A20C
:101960000086B8207DD84C04D8208BD7F06320D9CE
:10197000D8A90038E5AC85AC20B1D7E6ACF0D6A24A
:10198000FFA901A4B4C4ADD00AA4B5C4AED004A4C8
:10199000B6C4AF082A900EA001E8E0023004D028B7
:1019A000A040957598289014A8A5B6E5AF85B6A572
:1019B000B5E5AE85B5A5B4E5AD85B49806B626B552
:1019C00026B4B0CF30BD10CB4A6A6A85B9284C6EB8
:1019D000D8A2144C3CC1A57585ADA57685AEA5777A
:1019E00085AF4C34D685718472A003B17185AF8800
:1019F000B17185AE88B17185B0098085AD88B1714E
:101A000085AC84B960A2A4A000F004A697A4982095
:101A1000D9D886718472A003A5AF917188A5AE91C3
:101A20007188A5B0097F25AD917188A5AC917184AD
:101A3000B96020D9D8A205B5AB95B2CAD0F986B99C
:101A400060A5ACF0FB06B990F720B8D6D0F24C896F
:101A5000D6A5ACF009A5B02AA9FFB002A901602063
:101A6000E9D885ADA90085AEA288A5AD49FF2AA910
:101A70000085AF86AC85B985B04C2FD646B0608561
:101A8000738474A000B173C8AAF0C6B17345B030B6
:101A9000C4E4ACD01AB1730980C5ADD012C8B1731B
:101AA000C5AED00BC8A97FC5B9B173E5AFF028A505
:101AB000B0900249FF4CEFD8A5ACF04A38E9982421
:101AC000B01009AAA9FF85B2209CD68AA2ACC9F998
:101AD000100620DAD684B260A8A5B0298046AD05EC
:101AE000AD85AD20F1D684B260A5ACC998B01E20FA
:101AF00050D984B9A5B084B049802AA99885ACA5ED
:101B0000AF855B4C2FD685AD85AE85AFA860A000B4
:101B1000845FA20994A8CA10FB907FC92DD00486C7
:101B2000B1F004C92BD00520BC00906EC924D003AD
:101B30004C6EDEC925D0084C9CDE20BC00905BC9F1
:101B40002EF02EC945D03020BC009017C9B7F00E3A
:101B5000C92DF00AC9B6F008C92BF004D00766AB4E
:101B600020BC00905B24AB100EA90038E5A94C11F5
:101B7000DA66AA24AA50C3A5A938E5A885A9F01257
:101B8000100920F0D7E6A9D0F9F00720D7D7C6A9C9
:101B9000D0F9A5B13001604CF4DB4824AA1002E66C
:101BA000A820D7D768290F2045DA4CD2D94820CAB7
:101BB000D86820FAD8A5B745B085B8A6AC4CC1D531
:101BC000A5A9C90A9009A96424AB300E4CC3D60A52
:101BD0000A65A90AA00071C3E92F85A94CF8D9A903
:101BE000EDA0E720D3C8A588A68785AD86AEA290D4
:101BF000382007D9A0009820A2DA4CD3C8A001A9A8
:101C00002024B01002A92D99EF0085B084BAC8A68F
:101C1000ACD005A9304CAEDBA900E081B009A981A8
:101C2000A0E12039D7A9FA85A8A97DA0E12017D97C
:101C3000F01E1012A979A0E12017D9F002100E2091
:101C4000D7D7C6A8D0EE20F0D7E6A8D0DC20BAD5EA
:101C50002050D9A201A5A81869073009C908B00603
:101C600069FFAAA90238E90285A986A88AF00210AC
:101C700013A4BAA92EC899EF008AF006A930C89912
:101C8000EF0084BAA000A280A5AF1879F7E185AF74
:101C9000A5AE79F6E185AEA5AD79F5E185ADE8B003
:101CA0000410E5300230E18A900449FF690A692F87
:101CB000C8C8C88495A4BAC8AA297F99EF00C6A845
:101CC000D006A92EC899EF0084BAA4958A49FF29A5
:101CD00080AAC012D0B2A4BAB9EF0088C930F0F817
:101CE000C92EF001C8A92BA6A9F02E1008A900380A
:101CF000E5A9AAA92D99F100A94599F0008AA22F7A
:101D000038E8E90AB0FB693A99F3008A99F200A928
:101D10000099F400F00899EF00A90099F000A9F0EB
:101D2000A00060F042A5B3D0034C52D6A29CA00004
:101D300020A7D8A5B7100F2081D9A99CA0002017F3
:101D4000D9D00398A45B20C5D5984820FBD6A99C80
:101D5000A0002039D720FFDB684A900AA5ACF00626
:101D6000A5B049FF85B060A985A0E12039D7A5B904
:101D70006950900320E1D885A320CDD8A5ACC988AF
:101D8000900320CED72081D9A55B186981F0F33864
:101D9000E90148A204B5B3B4AC95AC94B3CA10F54C
:101DA000A5A385B920A6D520F4DBA989A0E12067E9
:101DB000DCA90085B8684CB3D785BA84BB209DD810
:101DC000A9A42039D7206BDCA9A4A0004C39D78561
:101DD000BA84BBA2A8209FD8B1BA85B1A4BAC898CA
:101DE000D002E6BB85BAA4BB2039D7A5BAA4BB18DC
:101DF00069049001C885BA84BB20BED5A9A8A000FB
:101E0000C6B1D0E460A5ACF007A2D8A00020A7D846
:101E1000A2AFA01306D926DA26DB26D890058A457C
:101E2000D985D988D0EEA202B5D995ADCA10F9A945
:101E30008085AC0A85B04C34D6A9A6A0E120BED5D9
:101E400020CAD8A9BBA0E1A6B720F9D720CAD820BC
:101E500081D9A90085B820A6D5A9EDA0E120A3D5F8
:101E6000A5B048100D20BAD5A5B03009A56349FF2B
:101E7000856320F4DBA9EDA0E120BED56810032026
:101E8000F4DBA9AAA0E14C51DC209DD8A900856310
:101E900020D8DCA29CA00020A7D8A9A4A000207D67
:101EA000D8A90085B0A5632049DDA99CA0004C01FC
:101EB000D8484C0ADD200A004CEFCBA5B0481003EF
:101EC00020F4DBA5AC48C9819007A9E0A0E120017E
:101ED000D8A9BFA0E12051DC68C9819007A9A6A0BC
:101EE000E120A3D56810164CF4DB20D8D4E008B06C
:101EF00020A900382ACA10FCE8011181116020D8FD
:101F0000D4E008B00CA9FF2ACA10FCE82111811105
:101F1000604C29CF20BC0020D8D4E008B0F320C208
:101F200000C929F0034C02CC20BC00A900382ACA01
:101F300010FCE82111F002A9FF4CFAD8E019B048D2
:101F40008678A918203AD1A017A218461166126601
:101F5000138A2A91AD8810F3A578F00AAA3849FFB0
:101F60006918F01CD00FA8B1ADC930D007CAF00372
:101F7000C810F4E8981865AD85ADA90065AE85AECA
:101F800086AC20BC004C85D14C29CFE007B0F98647
:101F900078A906203AD1A005F8A5132051DEA51294
:101FA0002051DEA5112051DED8A206A578F0B7AAEF
:101FB0003849FF6906F0C9D0BCAA290F205CDE8A27
:101FC0004A4A4A4AC90A693091AD886085ACA9007D
:101FD00085B88A2045DA20BC00900A0920E961C949
:101FE00006B02A690A290FAAA5ACF0E4690490DCBE
:101FF0004CC3D6AAA5ACF006E6ACF0F4A90085B8AF
:102000008A2045DA20BC004930C90290E64C2ADA21
:10201000AD0002D01820EAE0900B8D0102A2208EC4
:1020200002024C17C5AE0202F003CE0202A2DC206F
:10203000D0DEA2DF20D0DE60B50010FB0A2940F020
:10204000F695008AA86868A9052003C1A5C448A51B
:10205000C348A58848A58748A98D48B9010085C30C
:10206000B9020085C44CBCC420EAE0B009AD02024C
:10207000F009AD010238A2008E020260A2DF2CA29C
:10208000DCC993F011C9B5F00749A2F00E4C02CC9F
:10209000A97F35001005B5000A150095004CBC005D
:1020A00058A2DF2CA2DC867820BC002055C7A57979
:1020B000A67A2028C3B0034C72C6A678A5AAE90167
:1020C0009501A5ABE9009502A9C0950060D0FDA5DA
:1020D000DF0A05DF85DF4C79C6D0F1A5DC0A05DC17
:1020E00085DC4C79C620E9CA4CD0CA20B1DF10FB90
:1020F000A5B4098085B420C3D5F0F020B1DF30FB52
:10210000F0F9A5B4098085B420C3D5F0EEC929D073
:102110000568684CBC004C02CC20C200C92CD0ED34
:1021200020D9D8A5B0097F25AD48A5AE48A5AF48B0
:10213000A5AC4820BC0020CDCA6885B36885B668C8
:1021400085B56885B485B7A9B3A0004C17D9C92C4B
:10215000F01B208CD48AF00AE0109045E464B002B1
:102160008664860F20C200F01AC92CD0A92089D419
:102170008A302EE001902AA50FF006E40FF002B09D
:10218000208664A50FF006C564B003856438E56455
:10219000B0FC65641865648510A50F38E5108510DE
:1021A000604C29CFA5B030F9A5ACF0F420CAD8A96D
:1021B00000857785768575857885AF85AE85ADA2F6
:1021C00018A5B34AB00E06B626B526B426772676ED
:1021D0002675267806B626B526B426772676267581
:1021E000267806AF26AE26ADA5AF2A855BA5AE2A1A
:1021F000855CA5AD2A855DA9002A855EA577E55B8E
:10220000855BA576E55C855CA575E55DA8A578E5AB
:102210005E900E85788475A55C8576A55B8577E6EE
:10222000AFCAD0A238A5B3E9806A690085AC4C3446
:10223000D620BC0020AACD20EFCBA495A5964C5962
:10224000D0A9BBA0E1207DD8C6AC60A9BBA0E14C61
:102250007DD86C05026C07026C09026C0B02000051
:1022600000A8DEE6C3D002E6C4ADFFFFC9ACF00EA5
:10227000C93AB00AC920F0EB38E93038E9D0604CEF
:1022800000C0000000000000004C29CF000000F258
:1022900000030D0A4D656D6F72792073697A6520B0
:1022A0000020427974657320667265650D0A0A45DF
:1022B0006E68616E63656420424153494320322E4B
:1022C00032320A000280195662807622F38238AADE
:1022D00040803504F3813504F38080000080317242
:1022E0001891434FF8947423F7947424008138AA0A
:1022F0003B067463908C77230CAB7A1E94007C634E
:1023000042807E75FED080317215810000008149C7
:102310000FDB04861ED7FB879926658723345886F2
:10232000A55DE183490FDB08783AC5377B83A25C62
:102330007C2EDD4D7D99B01E7D59ED247E9172007D
:102340007E4CB9737FAAAA538100000081800000EF
:1023500090800000007F00000084200000FE796073
:10236000002710FFFC18000064FFFFF60000011AB0
:10237000C557C464CA8BC646C95ECD66C9B3C78596
:10238000C7EAC5A9C5B9C641C5CDC564DF70DF764A
:10239000C61DC718C526C77FC588C788D5EFE0F218
:1023A000E073D00DD529D576D5B3C51CC654C885E4
:1023B000C5A2C39FC34DC3E5DF23C84ED581DD95BC
:1023C000DD13DF16DF64CC64CC64CCE8CAEBCBEB66
:1023D000CB64CC64CC64CC64CC64CC64CC64CC647E
:1023E000CC64CC64CC00005ECC64CC5ECC5ECC5EB5
:1023F000CC5ECC64CC8BCC8BCC00007CDF7CDF6AE9
:10240000CC6ACC00006FCC6FCC6FCCF6D880D913DF
:10241000D94CDD44D063D03BE09CDCFAD6FEDBD067
:10242000DCD7DC20DD52DD02D516D554D46DD425A1
:10243000D19AD478D432D411D483D322DED3DDAB75
:10244000DD82DF92DFD8E0E2E0C8E095D39ED3CD15
:10245000D379C0D579A5D57B3BD77B03D87FBADBB1
:1024600050D4CC46BACC46C7CC5680CD5668CD7D2C
:10247000F3DB5A16CC64F5CC2A2B2D2F3C3D3E3F86
:102480004142434445464748494C4D4E4F505253B4
:10249000545556575E0068E36AE36CE36EE370E3FD
:1024A00074E376E37AE37CE38CE3A5E3BCE3D5E372
:1024B000E4E3EEE3FBE301E413E438E446E458E448
:1024C00060E475E4A4E4CFE4E3E4F4E400E50FE5BC
:1024D000B800B600B700B9003CBFC200C1003EBEA4
:1024E000C0009F00425328C54E44BB534328D754D5
:1024F0004E28D000494E2428DC4954434C52A84968
:1025000054534554A7495454535428DD00414C4C6E
:102510009C48522428DA4C454152A24F4E54A04FB9
:102520005328CD004154418345438845454B28D22B
:10253000454699494D854F4B459B4F9D004C534512
:10254000AC4E44804F52BC585028CC004EAE4F5237
:1025500081524528C7004554A54F5355428D4F54CD
:102560004F890045582428DB00468B4E43954E503A
:102570005554844E5428C45251A900434153452414
:1025800028D94546542428E3454E28D44554874944
:102590005354A14F4144974F4728CB4F4F509E0073
:1025A000415828DE49442428E5494E28DF00455794
:1025B000A3455854824D49AA4F54B1554C4C9400F0
:1025C0004646B54E9352BD0045454B28D149E04F94
:1025D0004B459A4F5328C852494E549F0045414499
:1025E00086454D914553544F52458C45544952515F
:1025F0008E45544E4D498F455455524E904947484B
:10260000542428E44E4428CA554E8A0041444428A4
:10261000D341564598474E28C3494E28CE504328AB
:10262000AF515228C9544550B2544F50925452247D
:1026300028D5574150A600414228AB414E28CF48EB
:10264000454EB04FAD574F5049E1004341534524EB
:1026500028D84E54494CB3535228C600414C28D672
:10266000415250545228E2004149549648494C4541
:10267000B449445448A400BA000345D9E30346E6EC
:10268000E3044E49E40444BCE3054906E40344CBB7
:10269000E3045275E4034C24E40344C0E30447F626
:1026A000E30352A0E4024901E407527CE40547F148
:1026B000E3065283E4065289E406528FE40352791A
:1026C000E40453C1E4024F5BE4044E53E4034903C2
:1026D000E4045700E5044C2BE40453A9E40344C884
:1026E000E3045067E40444CEE30443A5E30244D288
:1026F000E3044C33E405506FE40443B3E3044C2794
:10270000E40543AEE3034E46E4055709E50347EE0F
:10271000E30453CAE4064297E3064291E303490FF8
:10272000E4034E4DE40454CFE40445D5E30254DB06
:10273000E40246E4E30453B5E40454D7E4034E5002
:10274000E40453BDE40555EAE4055704E5034F5896
:10275000E4012B0000012D0000012A0000012F00E0
:1027600000015E0000034180E30345DCE3024F5DAE
:10277000E4023E76E3023C70E3013E0000013D00CE
:1027800000013C00000453ADE404490BE404417C27
:10279000E30455EFE40446E9E304506BE40453B961
:1027A000E404529CE4044C2FE40445DFE30443B703
:1027B000E30453B1E40454D3E4044187E3055060D7
:1027C000E40544C3E30553A4E4044C20E40553C5E5
:1027D000E40456F4E4044183E30755E3E4074C13AF
:1027E000E40543A9E30548FBE305428CE307429D6A
:1027F000E3044D38E4044D41E4025065E40554DD42
:10280000E40756F8E4064C1AE4075295E4054D3CFB
:10281000E4CDE6DEE6E5E6FAE606E714E71DE72B9B
:10282000E73FE74CE75DE76CE77BE789E799E7ACD3
:10283000E7BBE7CEE74E45585420776974686F755B
:102840007420464F520053796E746178005245549B
:1028500055524E20776974686F757420474F5355F1
:1028600042004F7574206F66204441544100467504
:102870006E6374696F6E2063616C6C004F76657275
:10288000666C6F77004F7574206F66206D656D6F95
:10289000727900556E646566696E65642073746153
:1028A00074656D656E7400417272617920626F7536
:1028B0006E647300446F75626C652064696D656E4B
:1028C00073696F6E00446976696465206279207A65
:1028D00065726F00496C6C6567616C206469726534
:1028E00063740054797065206D69736D61746368F9
:1028F00000537472696E6720746F6F206C6F6E671F
:1029000000537472696E6720746F6F20636F6D700F
:102910006C65780043616E277420636F6E74696E16
:10292000756500556E646566696E65642066756ED2
:102930006374696F6E004C4F4F5020776974686FF5
:10294000757420444F000D0A427265616B0020458A
:1029500072726F720020696E206C696E6520000DC6
:102960000A52656164790D0A00204578747261200D
:1029700069676E6F7265640D0A00205265646F208E
:1029800066726F6D2073746172740D0A000000002E
:102990000000000000000000000000000000000037
:1029A0000000000000000000000000000000000027
:1029B0000000000000000000000000000000000017
:1029C0000000000000000000000000000000000007
:1029D00000000000000000000000000000000000F7
:1029E00000000000000000000000000000000000E7
:1029F00000000000000000000000000000000000D7
:102A000000000000000000000000000000000000C6
:102A100000000000000000000000000000000000B6
:102A200000000000000000000000000000000000A6
:102A30000000000000000000000000000000000096
:102A40000000000000000000000000000000000086
:102A50000000000000000000000000000000000076
:102A6000000000000000000000000000003E5B4F7E
:102A70005B3E3E6B4F6B3E1C3E7C3E1C183C7E3CDE
:102A8000181C577D571C1C5E7F5E1C00183C1800EC
:102A9000FFE7C3E7FF0018241800FFE7DBE7FF307C
:102AA000483A060E2629792926407F050507407FEA
:102AB00005253F5A3CE73C5A7F3E1C1C08081C1C5D
:102AC0003E7F14227F22145F5F005F5F06097F0153
:102AD0007F006689956A606060606094A2FFA2943E
:102AE00008047E040810207E201008082A1C08080C
:102AF0001C2A08081E101010100C1E0C1E0C30385A
:102B00003E3830060E3E0E06000000000000005F5A
:102B100000000007000700147F147F14242A7F2A76
:102B20001223130864623649562050000807030038
:102B3000001C2241000041221C002A1C7F1C2A0884
:102B4000083E0808008070300008080808080000E7
:102B500060600020100804023E5149453E00427F5B
:102B6000400072494949462141494D331814127FAA
:102B70001027454545393C4A49493141211109074A
:102B80003649494936464949291E000014000000CB
:102B9000403400000008142241141414141400419D
:102BA00022140802015909063E415D594E7C12115A
:102BB000127C7F494949363E414141227F41414192
:102BC0003E7F494949417F090909013E414151730D
:102BD0007F0808087F00417F41002040413F017F7E
:102BE000081422417F404040407F021C027F7F0446
:102BF00008107F3E4141413E7F090909063E41518F
:102C0000215E7F09192946264949493203017F017E
:102C1000033F4040403F1F2040201F3F4038403F7F
:102C2000631408146303047804036159494D430095
:102C30007F4141410204081020004141417F0402CC
:102C40000102044040404040000307080020545463
:102C500078407F2844443838444444283844442841
:102C60007F385454541800087E090218A4A49C7894
:102C70007F0804047800447D40002040403D007FF0
:102C80001028440000417F40007C047804787C08D0
:102C90000404783844444438FC18242418182424A4
:102CA00018FC7C08040408485454542404043F4489
:102CB000243C4040207C1C2040201C3C4030403CB8
:102CC00044281028444C9090907C4464544C440018
:102CD000083641000000770000004136080002017C
:102CE0000204023C2623263C1EA1A161123A404068
:102CF000207A3854545559215555794122545478E5
:102D000042215554784020545579400C1E5272127D
:102D10003955555559395454545939555454580006
:102D200000457C410002457D420001457C407D120A
:102D300011127DF0282528F07C545545002054546C
:102D40007C547C0A097F4932494949323A44444417
:102D50003A324A4848303A4141217A3A4240207852
:102D6000009DA0A07D3D4242423D3D4040403D3C53
:102D700024FF2424487E4943662B2FFC2F2BFF0978
:102D800029F620C0887E090320545479410000446C
:102D90007D413048484A32384040227A007A0A0A57
:102DA000727D0D19317D2629292F282629292926CA
:102DB00030484D4020380808080808080808382F0F
:102DC00010C8ACBA2F102834FA00007B0000081499
:102DD0002A142222142A14085500550055AA55AA6F
:102DE00055AAFF55FF55FF000000FF00101010FF0F
:102DF00000141414FF001010FF00FF1010F010F06A
:102E0000141414FC001414F700FF0000FF00FF145A
:102E100014F404FC141417101F10101F101F1414A6
:102E2000141F00101010F0000000001F10101010F0
:102E30001F10101010F010000000FF1010101010E4
:102E400010101010FF10000000FF140000FF00FF22
:102E500000001F10170000FC04F4141417101714BE
:102E600014F404F40000FF00F714141414141414E0
:102E7000F700F7141414171410101F101F14141453
:102E8000F4141010F010F000001F101F0000001FBD
:102E900014000000FC140000F010F01010FF10FFF0
:102EA000141414FF141010101F00000000F010FF85
:102EB000FFFFFFFFF0F0F0F0F0FFFFFF0000000069
:102EC00000FFFF0F0F0F0F0F3844443844FC4A4AED
:102ED0004A347E02020606027E027E0263554941A2
:102EE000633844443C04407E201E2006027E0202D9
:102EF00099A5E7A5991C2A492A1C4C7201724C30ED
:102F00004A4D4D303048784830BC625A463D3E49C3
:102F10004949007E0101017E2A2A2A2A2A44445F67
:102F2000444440514A444040444A51400000FF015B
:102F300003E080FF000008086B6B08361236243669
:102F4000060F090F060000181800000010100030CE
:102F500040FF0101001F01011E00191D1712003C56
:102F60003C3C3C0000000000000103070F1F3F7FB6
:102F70000080C0E0F0F8FCFE000000080002010044
:102F8000000304070000000000000000DB40A4A6CE
:102F90002EAF2000A1C8D300408DAED580A8000080
:102FA000600000000000000000000000000000E0E1
:102FB0000000000000000000000000000001E00030
:102FC00000000000000000000000000001F0000010
:102FD000000000000000000000000003F0000000FE
:102FE0000000000000000000000007F000000000EA
:102FF00000000000000000000007F80000000000D2
:1030000000000000000000000FF800000003C000F6
:103010007E000001E0007F0FF800000003C000FE0A
:10302000000001E000FFEFF800000003C000FE0018
:103030000001E000FFFFF800000003C000F0000006
:10304000000F007FFE7FC0000003C000F000000002
:103050000F003FFE7FF83FF1FBCFFCFEF3BC3DEFDE
:10306000E01FFE7FFF7FFBFFDFFEFEFFBC3DEFE0CA
:103070001FC6FFFF7FFBFFDFFEFEFFBC3DEFE00F43
:10308000E3C7FE787BC3DE1EF0FFBC3DEF0007FF09
:1030900087FC787BC3DE1EF0F83C3DEF0001FFFFAC
:1030A000F0007BC3C01EF0F03C3DEF0001F37FE079
:1030B0003FFBC3CFFEF0F03C3DEF0003E33F807FDA
:1030C000FBC3DFFEF0F03C3DEF0007E73C00787B00
:1030D000C3DE1EF0F03C3DEF0007FFBE00787BC36F
:1030E000DE1EF0F03C3DEF0007FFFE00787BC3DE04
:1030F0001EF0F03C3DEF000FFFFE007FFBFFDFFE08
:10310000F0F03FFDEFE00FFFFF007FFBFFDFFEF081
:10311000F03FFDEFE00FF9FF003E79F9CF9EF0F0B0
:103120001F3DE7E01FF1FF0000000000000000006D
:103130000000001F80FF007FFFFFFFFFFFFFFFFF7A
:10314000FFE01C007F007FFFFFFFFEB46D888D183D
:10315000E000001F007FFFFFFFFE95AD7DB577E02B
:1031600000000F007FFFFFFFFEA5AD9D8D19E00061
:103170000006007FFFFFFFFEB5ADEDB57EE000006D
:10318000000000018000000000000000000003803B
:1031900000000000000000000007C0000000000068
:1031A0000000000007C00000000000000000000F49
:1031B000C00000000000000000001FE00000000050
:1031C00000000000001FE000000000000000000000
:1031D0003FE00000000000000000003FF0000000A1
:1031E0000000000000007FF0000000000000001F51
:1031F000F87FF0000000000000003FFE7FF00000BC
:1032000000000000003FFF7FF00000000000000011
:103210001FFFFBE0000000000000000FFFF9FFC0EF
:103220000000000000000FFFF9FFF80000000000A0
:103230000007FFF1FFFF00000000000003FC73FF28
:10324000FF80000000000001FE3FFFFF8000000043
:10325000000000FF1E0FFF000000000000007FFEC6
:103260001FFC000000000000003FFFFFF80000000E
:10327000000000000FDFFFE0000000000000001F62
:1032800019FFC0000000000000003F3CFF000000EC
:1032900000000000007E7CF800000000000000003C
:1032A0007FFE7C0000000000000000FFFFFC00002B
:1032B000000000000000FFFFFE0000000000000012
:1032C00000FFFFFE0000000000000001FFEFFE0015
:1032D00000000000000001FFCFFE00000000000021
:1032E0000003FF07FE0000000000000003FC07FED3
:1032F0000000000000000003F003FE0000000000DA
:103300000000018000FE000000000000000000003E
:103310007E000000000000000000003E00000000F1
:103320000000000000000C0000000000000780000A
:10333000FC000003C0000000078001FC000003C087
:10334000000000078001FC000003C00000000780AF
:1033500001E00000001E000000078001E000000006
:103360001E007FE3F79FF9FDE7787BDFC0FFF7FFE3
:10337000BFFDFDFF787BDFC0FFF7FFBFFDFDFF78DE
:103380007BDFC0F0F787BC3DE1FF787BDE00F0F724
:1033900087BC3DE1F0787BDE0000F787803DE1E00F
:1033A000787BDE007FF7879FFDE1E0787BDE00FF22
:1033B000F787BFFDE1E0787BDE00F0F787BC3DE1F9
:1033C000E0787BDE00F0F787BC3DE1E0787BDE0053
:1033D000F0F787BC3DE1E0787BDE00FFF7FFBFFD43
:1033E000E1E07FFBDFC0FFF7FFBFFDE1E07FFBDF38
:1033F000C07CF3F39F3DE1E03E7BCFC000000000C6
:1034000000000000000000FFFFFFFFFFFFFFFFFFC5
:10341000FFC0FFFFFFFFFD68DB111A31C0FFFFFF98
:10342000FFFD2B5AFB6AEFC0FFFFFFFFFD4B5B3B2D
:103430001A33C0FFFFFFFFFD6B5BDB6AFDC0535318
:10344000443133303620616C6C6F636174696F6E28
:10345000206661696C65640000000000250028009A
:103460002B0000000000240027002A0004040404AC
:10347000040404040202020202020303030303031E
:1034800001020408102040800102040810200102FB
:10349000040810202200FF210000C52FAD3A11249E
:1034A0001FBECFEFD8E0DEBFCDBF11E0A0E0B1E09E
:1034B000E4E4F8E702C005900D92AE36B107D9F703
:1034C00023E4AEE6B1E001C01D92A93BB207E1F7EB
:1034D0001AE1CEE4DAE104C02197FE010E94DE3A4F
:1034E000CD34D107C9F70E9449300C94153C0C9497
:1034F000000090E0FC01E058FB4C249184599B4C67
:10350000FC018491882399F090E0880F991FFC01B9
:10351000EE59FB4CA591B491FC01E85AFB4C859106
:1035200094918FB7F894EC91E22BEC938FBF0895B0
:10353000089508950895AF92BF92CF92DF92EF92CF
:10354000FF920F931F93CF93DF936C017B018B014D
:10355000040F151FEB015E01AE18BF08C017D1079D
:1035600059F06991D601ED91FC910190F081E02D27
:10357000C6010995892B79F7C501DF91CF911F917C
:103580000F91FF90EF90DF90CF90BF90AF90089594
:10359000FC01538D448D252F30E0842F90E0821B59
:1035A000930B541710F0CF96089501970895FC01DE
:1035B000918D828D981761F0A28DAE0FBF2FB11D36
:1035C0005D968C91928D9F5F9F73928F90E008958E
:1035D0008FEF9FEF0895FC01918D828D981731F048
:1035E000828DE80FF11D858D90E008958FEF9FEF9C
:1035F0000895FC01918D228D892F90E0805C9F4F72
:10360000821B91098F73992708958CEC92E40E9494
:10361000F91A21E0892B09F420E0822F089580E037
:1036200090E0892B29F00E94051B81110C94000069
:103630000895FC01A48DA80FB92FB11DA35ABF4F47
:103640002C91848D90E001968F739927848FA689A1
:10365000B7892C93A089B1898C91837080648C93F5
:10366000938D848D981306C00288F389E02D8081A4
:103670008F7D80830895EF92FF920F931F93CF93D6
:10368000DF93EC0181E0888F9B8D8C8D98131AC09D
:10369000E889F989808185FF15C09FB7F894EE8984
:1036A000FF896083E889F9898081837080648083E1
:1036B0009FBF81E090E0DF91CF911F910F91FF902C
:1036C000EF900895F62E0B8D10E00F5F1F4F0F73D4
:1036D0001127E02E8C8D8E110CC00FB607FCFACF8F
:1036E000E889F989808185FFF5CFCE010E94191BF9
:1036F000F1CFEB8DEC0FFD2FF11DE35AFF4FF08260
:103700009FB7F8940B8FEA89FB8980818062CFCFC5
:10371000CF93DF93EC01888D8823B9F0AA89BB8908
:10372000E889F9898C9185FD03C0808186FD0DC0F3
:103730000FB607FCF7CF8C9185FFF2CF808185FF14
:10374000EDCFCE010E94191BE9CFDF91CF910895F3
:1037500090E0FC01E858F04D2491FC01E058FB4C4E
:103760003491FC01E459FB4CE491EE23C9F022238F
:1037700039F0233001F1A8F4213019F1223029F178
:10378000F0E0EE0FFF1FE85AFB4CA591B4918FB704
:10379000F894EC91611126C030953E233C938FBF85
:1037A00008952730A9F02830C9F0243049F78091D6
:1037B00080008F7D03C0809180008F778093800090
:1037C000DFCF84B58F7784BDDBCF84B58F7DFBCF12
:1037D0008091B0008F778093B000D2CF8091B000FD
:1037E0008F7DF9CF3E2BDACF3FB7F89480912642F8
:1037F00090912742A0912842B091294226B5A89BDA
:1038000005C02F3F19F00196A11DB11D3FBFBA2F72
:10381000A92F982F8827BC01CD01620F711D811D32
:10382000911D42E0660F771F881F991F4A95D1F7B7
:1038300008958F929F92AF92BF92CF92DF92EF92B4
:10384000FF924B015C010E94F41B6B017C010E9402
:10385000F41B6C197D098E099F09683E7340810530
:103860009105A8F321E0821A9108A108B10888EE19
:10387000C80E83E0D81EE11CF11C81149104A10440
:10388000B10429F7FF90EF90DF90CF90BF90AF90F9
:103890009F908F900895EF92FF920F931F93CF9375
:1038A000DF93EC01EC80FD806E157F050CF070C09D
:1038B00057FF04C0240F351F50E040E08E819F81E8
:1038C000FA01E20FF31F8E179F071CF49C01241BC3
:1038D000350B121613060CF05BC0922F842F8695C1
:1038E000869586958E9DD0018F9DB00D11246A0F0F
:1038F0007B1FAF8DB8A1A60FB71F477049F188E0B5
:10390000841B482F682F70E0FB01E059F04DE491D3
:10391000281708F063C0621B71092FEF30E002C066
:10392000359527956A95E2F7E2230130110539F0C4
:10393000B0F10230110561F58C91E82702C08C913D
:10394000E82BEC93941720F12C813D81A20FB31F3B
:10395000E92FE41BE83078F00230110521F58E2FB5
:103960009C9190959C932C813D81A20FB31F885010
:103970008830B0F7E770EE2359F0F0E0E859F04DE9
:10398000E49101301105F9F010F10230110519F13F
:10399000DF91CF911F910F91FF90EF900895E095E7
:1039A0008C91E823CECF81E00115110509F480E068
:1039B00081959E2F8C932C813D81A20FB31F98502F
:1039C0009830C0F7D7CF8C91E82BEC93E1CFE095FE
:1039D0008C91E823FACF8C91E827F7CF01301105BD
:1039E00009F4ADCFE0F20230110509F4A5CFAE0D18
:1039F000BF1DAECF0F931F93CF93DF9377FF04C00C
:103A0000260F371F70E060E0DC011496CD91DC9149
:103A1000FB01E20FF31FCE17DF071CF49E01261BEC
:103A2000370B121613064CF5FA0157FD3796A3E033
:103A3000F595E795AA95E1F7EC9FD001ED9FB00DC4
:103A4000FC9FB00D11246A0F7B1FDC015F96ED9186
:103A5000FC91E60FF71F4770552781E090E001C009
:103A6000880F4A95EAF7482F0130110559F0A8F060
:103A70002E0F3F1F02301105E1F0DF91CF911F9112
:103A80000F9108952E0F3F1FE217F307B1F38191B5
:103A9000DF011197842B8C93F7CF80952E0F3F1F5A
:103AA000E217F30751F39191DF01119798239C934B
:103AB000F7CFE217F30709F38191DF01119784270C
:103AC0008C93F7CF0F931F93FA01DC0156964C911C
:103AD00056974230E9F04330A1F1413061F5149638
:103AE0004D915C91DA01AE1BBF0BFD01E21BF30BA4
:103AF00077FD0BC0DC0116964D915C91641775073C
:103B000024F4AB01BF010E94FA1C1F910F9108958C
:103B100014964D915C91DA01A61BB70BBD01615063
:103B20007109DC0116964D915C91DA01AE1BBF0B59
:103B3000FD01E21BF30B77FDE8CFAF010E944B1CA8
:103B4000E4CF16964D915C91DA01A61BB70BBD012F
:103B500061507109CDCF0F931F93FA01DC01569686
:103B60004C9156974230A9F0433091F1413019F50C
:103B700014964D915C91DA01AE1BBF0BFD0131979C
:103B8000F7FD04C0AB01BF010E944B1C1F910F91B8
:103B9000089514964D915C91DA01A61BB70BBD01F7
:103BA000DC0116964D915C91DA01AE1BBF0BFD0155
:103BB0003197621B730BF7FDE9CFDC0116964D912F
:103BC0005C91E417F50714F7AF010E94FA1CDECFF1
:103BD00016964D915C91DA01A61BB70BBD01621BD5
:103BE000730BCECFFC0177FD64C08085918568178B
:103BF00079070CF05EC057FD5CC08285938548173D
:103C000059070CF056C086898230B1F0833029F113
:103C1000813041F484819581841B950BAB01BC01FB
:103C2000615071092130310509F108F443C0223097
:103C3000310509F463C0089584819581DC01A61BD8
:103C4000B70BBD016150710986819781DC01A41B0E
:103C5000B50BAD0141505109E5CF86819781861B97
:103C6000970BBA01AC0141505109DCCFCA0157FD95
:103C70000796A3E095958795AA95E1F7A481B5816C
:103C80008A9F90018B9F300D9A9F300D1124620FF7
:103C9000731F078CF0A1E02DE60FF71F4770552723
:103CA00021E030E001C0220F4A95EAF78081822BA3
:103CB00080830895CA0157FD079633E0959587954F
:103CC0003A95E1F7A481B5818A9F90018B9F300DD1
:103CD0009A9F300D1124620F731F078CF0A1E02D05
:103CE000E60FF71F4770552781E090E001C0880F6D
:103CF0004A95EAF7809590818923DACFCA0157FD6A
:103D0000079623E0959587952A95E1F7A481B581DB
:103D10008A9F90018B9F300D9A9F300D1124620F66
:103D2000731F078CF0A1E02DE60FF71F4770552792
:103D300021E030E001C0220F4A95EAF78081822716
:103D4000B7CF08958EBD00000DB407FEFDCF8EB530
:103D500008958CBD9DBD0895FC016370668B8481C0
:103D6000958126813781613039F0633029F0918760
:103D700080873387228708953187208793878287BA
:103D800008952F923F924F925F926F927F928F92FF
:103D90009F92AF92BF92CF92DF92EF92FF920F93DA
:103DA0001F93CF93DF93CDB7DEB76A970FB6F89422
:103DB000DEBF0FBECDBF9A8F898F7A8369834A0198
:103DC000D22E18870F833701BC2CDC0159962D9118
:103DD0003C915A972115310509F015C118968D911E
:103DE0009C911997681779070CF0D7C11A968D9195
:103DF0009C91481759070CF0D0C14C2C512CB6E0BF
:103E0000CB9E600D711D11247C876B8716161706DB
:103E10000CF0C3C1EA2DF0E0FA87E98793E0EE0FDA
:103E2000FF1F9A95E1F7F88BEF87CF01840F951F5D
:103E3000181619060CF0B1C1A98DBA8D58968C913F
:103E4000811104C0BFEABD1508F4D394A98DBA8DC1
:103E5000ED91FC9111970284F385E02DCD01099538
:103E6000B5E0DB9EC0011124E981FA81FC83EB837C
:103E7000312C212C9C012859354D388F2F8B4A2D00
:103E800050E05E8B4D8BEF89F88DE20DF31D449170
:103E90009E828D82D12CC12C69817A81620D731D25
:103EA0007A8B698B842F90E09C8B8B8BE98DFA8DBC
:103EB000A081B18140FF82C0F1E0BF126FC0AF129C
:103EC0006DC01C96ED91FC912F813885A4014C0D9D
:103ED0005D1D69897A89898D9A8D0995EB89FC899F
:103EE000F595E7954E2F5FEFC51AD50A6D817E8156
:103EF0008D899E89680F791F7E836D8398E0C9162E
:103F0000D10481F6AFEF2A1A3A0AEB81FC81E40D65
:103F1000F51DFC83EB83F5E02F16310409F0B3CFD8
:103F20002F81388526153705B9F0A98DBA8DED9109
:103F3000FC91B1E0BB1257C0AB1255C069817A81C8
:103F40006B5F7F4F0088F189E02D830128E030E02E
:103F5000A401898D9A8D0995A98DBA8DED91FC9159
:103F600011970688F789E02DCD016A960FB6F8946F
:103F7000DEBF0FBECDBFDF91CF911F910F91FF909C
:103F8000EF90DF90CF90BF90AF909F908F907F90F9
:103F90006F905F904F903F902F9009941E96ED91F7
:103FA000FC91EF80F88409851A8592014D815E812C
:103FB0006B817C81898D9A8D099590CF2F81388571
:103FC0002615370509F48ACF31E0B31207C0A312D2
:103FD00005C01C96ED91FC91930178CF1E96ED9152
:103FE000FC917301E0CF6B857C85641975090684AB
:103FF000F785E02D73010F8518899201A401898D41
:104000009A8D0995A9CFF9013496949132974591EB
:104010005491D91AB7E0DB9E400D511D1124F901CE
:10402000259134913C8B2B8BFA0125903490FA0129
:104030003296749031963491398B329664903196E1
:10404000449041E04C1518F04A1508F07FC0662DE9
:10405000062C000C770B7C836B83842D042C000CC6
:10406000990B9E838D83A98DBA8DED91FC9111974B
:104070000284F385E02DCD010995512CD12CC12C62
:10408000EA2DF0E0FA87E9872B2D30E03C872B877B
:10409000A401440D511D47FC5A95588F4F8B6981DF
:1040A0007A81660D711D67FC7A957E876D877989A7
:1040B000C71608F051CF2C2D30E04D815E81420FA4
:1040C000531FA985BA854A9FC0014B9F900D5A9FE7
:1040D000900D1124FC01E80DF91DF88BEF87852D5B
:1040E000612C4F89588D420F531F5E8B4D8B671487
:1040F00008F050C044244394480E877041F4C10135
:104100000196EB89FC89E20DF31DD4901C01D7FECA
:1041100019C0A98DBA8DED91FC91662D70E0B1E0CA
:10412000BB1219C0AB1217C02D853E85620F731FDD
:104130000484F585E02D2F8138854D895E89898D30
:104140009A8D0995DD0C6394842DD1CF1E821D823A
:104150001C821B8288CF4B815C81640F751FAB85ED
:10416000BC856A9FC0016B9F900D7A9F900D1124B2
:1041700069817A81680F791F0684F785E02DEF80C9
:10418000F88409851A859D014F855889898D9A8DF6
:104190000995D8CF570CC3948ACF6A960FB6F89476
:1041A000DEBF0FBECDBFDF91CF911F910F91FF906A
:1041B000EF90DF90CF90BF90AF909F908F907F90C7
:1041C0006F905F904F903F902F9008958F929F92A5
:1041D000AF92CF92EF92FF920F931F93CF93DF9303
:1041E000EC01262F898D9A8D009709F051C06A3015
:1041F000D1F41D861C868D8948E0849F900111248E
:104200008E859F85820F931F9F878E8781E090E028
:10421000DF91CF911F910F91FF90EF90CF90AF90D2
:104220009F908F9008956D3089F3CC88AD888F89E9
:104230008823C1F08C859D8536E0C39E800D911D3D
:104240001124488559854817590764F44E855F85C0
:104250001D861C8638E0A39EC0011124840F951F83
:104260009F878E87EA88FB88088919894E855F8534
:104270006C857D85CE010E94C11E2C898C859D8513
:1042800046E0249F800D911D11249D878C87BECF11
:104290006A3069F41D861C86FC013896E4912D89EC
:1042A0008E859F85E29F800D911D1124ADCF6D30CD
:1042B00009F4ACCFFC0134963491631708F4A6CF0F
:1042C0003296E491E61708F4A1CFFC01329685906E
:1042D0009490462F431B342F47E0349F800C911C51
:1042E0001124F401329634913196E4913323A9F1EB
:1042F000EE2399F1CC88F4013596E491AD884F898D
:10430000442301F10E2E000CFF0BE30FF11DCE9E96
:10431000A001CF9E500D11246C857D85460F571F3F
:1043200068857985641775076CF44E855F851D86F1
:104330001C86FC013896E491AE9E400D511D11245F
:104340005F874E87EA88FB88088919894E855F85D3
:104350006C857D85CE010E94C11EF4013496E491E6
:104360002C898C859D85E29F800D911D11248DCF18
:104370006F927F928F929F92AF92BF92CF92DF9275
:10438000EF92FF920F931F93CF93DF93EC016B019A
:104390005A0139014801E881F9810284F385E02D51
:1043A0000995E881F9810288F389E02D870193015D
:1043B000A501B601CE010995A501480D591D415031
:1043C0005109E881F9810288F389E02D9301B60152
:1043D000CE010995E881F9810088F189E02D9401E9
:1043E000A501B601CE010995C60CD71CB6016150D6
:1043F0007109E881F9810088F189E02D9401A50116
:10440000CE010995E881F9810688F789E02DCE0172
:10441000DF91CF911F910F91FF90EF90DF90CF90A0
:10442000BF90AF909F908F907F906F9009946F9204
:104430007F928F929F92AF92BF92CF92DF92EF9234
:10444000FF920F931F93CF93DF935C01EB016A01FF
:10445000490138018701DC01ED91FC916217730776
:1044600019F5641675062CF0962D872D3A01C92E84
:10447000D82E9601261937092F5F3F4F028CF38DF6
:10448000E02DA301BE01C5010995DF91CF911F91D8
:104490000F91FF90EF90DF90CF90BF90AF909F90E3
:1044A0008F907F906F9008954615570591F42617C9
:1044B000370724F0892D4B01C22FD82F9E012819D0
:1044C00039092F5F3F4F048CF58DE02DA601B40113
:1044D000DACF0284F385E02D0995D501ED91FC91A9
:1044E0000488F589E02D83019401A601BE01C50170
:1044F0000995D501ED91FC910688F789E02DC5015C
:10450000DF91CF911F910F91FF90EF90DF90CF90AF
:10451000BF90AF909F908F907F906F900994EF9293
:10452000FF920F931F93DC011A960D911C911B971C
:1045300018962D913C911997ED91FC91068CF78D71
:10454000E02D7B0150E040E070E060E009951F91B4
:104550000F91FF90EF9008954F925F926F927F922C
:104560008F929F92AF92BF92CF92DF92EF92FF9283
:104570000F931F93CF93DF936C012B015A013901E5
:104580004801DC01ED91FC910284F385E02D099551
:10459000E201640C751CD601ED91FC91C615D7059E
:1045A0005CF40088F189E02D87019401A501BE012A
:1045B000C60109952196EFCF0688F789E02DC6013F
:1045C000DF91CF911F910F91FF90EF90DF90CF90EF
:1045D000BF90AF909F908F907F906F905F904F9023
:1045E00009948F929F92AF92BF92CF92DF92EF92F7
:1045F000FF920F931F93CF93DF93EC015B014A016E
:104600006901E881F9810284F385E02D099595011E
:104610002C0D3D1D21503109E881F9810488F5896F
:10462000E02D78018401A401B501CE010995E8814E
:10463000F9810688F789E02DCE01DF91CF911F9196
:104640000F91FF90EF90DF90CF90BF90AF909F9031
:104650008F9009948F929F92AF92BF92CF92DF92E8
:10466000EF92FF920F931F93CF93DF93EC015B01C7
:104670004A0169017801E881F9810284F385E02D1E
:104680000995C80CD91C860101501109E881F981EE
:104690000488F589E02D9501A401B501CE010995A5
:1046A000E881F9810688F789E02DCE01DF91CF916D
:1046B0001F910F91FF90EF90DF90CF90BF90AF9040
:1046C0009F908F900994EF92FF920F931F93DC01BC
:1046D000ED91FC91068CF78DE02D09951F910F91BE
:1046E000FF90EF9008950F931F93DC01ED91FC91E3
:1046F000048CF58DE02D09951F910F9108950F936E
:104700001F93DC01ED91FC91028CF38DE02D099556
:104710001F910F910895DC01ED91FC910084F185CA
:10472000E02D09943F924F925F926F927F928F9209
:104730009F92AF92BF92CF92DF92EF92FF920F9330
:104740001F93CF93DF935C017B014A01690139011B
:1047500087E0680E711C93E0759467949A95E1F771
:104760002B01400E511E10E000E0312CD0E0C0E0E3
:10477000CE0187709927330C892B59F4FE0183E011
:10478000F595E7958A95E1F7E00FF11FE80DF91D22
:10479000349037FE0AC021E030E0A701B5016C0F6C
:1047A0007D1F85E793E40E948B232196CC16DD06BE
:1047B000F9F68FEFE81AF80A060D171DE414F50450
:1047C000A9F6DF91CF911F910F91FF90EF90DF90AD
:1047D000CF90BF90AF909F908F907F906F905F90A1
:1047E0004F903F9008952F923F924F925F926F9219
:1047F0007F928F929F92AF92BF92CF92DF92EF9271
:10480000FF920F931F93CF93DF9300D000D000D07F
:10481000CDB7DEB73C016A013E832D83FC82EB827B
:104820005801A41AB50AB7FE03C0B194A194B10807
:104830008D809E80861A970A97FE03C0919481947A
:1048400091088A149B045CF0902F812F0D811E81AA
:104850009D838E839C2D8D2D6B01692F782F0C15D8
:104860001D055CF09D818E817E836D83692F782F7D
:10487000902F812F8601C92ED82E1601201A310AB9
:104880002B012D813E81421A530A57FE03C05194D9
:1048900041945108710137FE03C03FEFE31AF30A58
:1048A000F594E7948D819E81861797075CF5A1E0CA
:1048B000B0E0BA83A983C016D1064CF1D301ED91C3
:1048C000FC910484F585E02D2B813C81A8016D814C
:1048D0007E818A149B041CF04D815E81B801C30166
:1048E0000995E418F508F7FE0AC02D813E818981FB
:1048F0009A81280F391F3E832D83E20CF31C0F5F32
:104900001F4FD9CF2FEF3FEF3A832983D4CF26967D
:104910000FB6F894DEBF0FBECDBFDF91CF911F91D0
:104920000F91FF90EF90DF90CF90BF90AF909F904E
:104930008F907F906F905F904F903F902F90089551
:1049400008952091D741260F3327331F2132310597
:10495000ECF42091FB41FC0190E080E0243069F010
:1049600082E00895A091D7412191AC0149545E4B5A
:10497000A40FB52FB11D2C930196861798F3809143
:10498000D741680F6093D74180E0089581E0089592
:104990001092FB4181E08093FD411092FC4161E067
:1049A00082E10E94A81B61E083E10E94A81BE9EB61
:1049B000F0E080818E7F808380818D7F808388E49A
:1049C0008093B80085E48093BC000895CF93DF9373
:1049D00091E09093B6418823B9F0C091B800D0918E
:1049E000BA008091BC008A7B8093BC0060E082E1C9
:1049F0000E94A81B60E083E10E94A81B0E94C824BB
:104A0000D093BA00C093B800DF91CF910895E091A0
:104A1000304280912F42E81730F4F0E0EF56FE4B21
:104A2000808190E008958FEF9FEF0895909130423C
:104A300080912F422FEF3FEF981748F4E92FF0E0D5
:104A4000EF56FE4B208130E09F5F90933042C901CA
:104A5000089580912F4290913042891B990B0895BF
:104A6000CF92DF92EF92FF920F931F93CF93DF933A
:104A70007C01CB018A012091CB42222389F0EB01FA
:104A80006B01C40ED51ECC15DD0569F06991D70107
:104A9000ED91FC910190F081E02DC7010995F3CFD4
:104AA000642F0E94A124C801DF91CF911F910F9123
:104AB000FF90EF90DF90CF900895CF93DF931F92F8
:104AC000CDB7DEB769832091CB422223F9F0209144
:104AD000C842203258F021E030E0FC0133832283C9
:104AE00090E080E00F90DF91CF9108958091C942CE
:104AF000E82FF0E0EF58FE4B998190838F5F809311
:104B0000C9428093C84281E090E0ECCF61E0CE01E1
:104B100001960E94A124F7CFCF92DF92EF92FF92ED
:104B20000F931F93CF93DF93D091C84281E0D1328E
:104B300008F09CC0C091CA420E94F41B6B017C012A
:104B40008091FB4181116CC082E08093FB4181E048
:104B50008093FD418FEF8093FA4110921F42D093D2
:104B60001E42A1E7B1E4EEEFF1E480E0D8138DC07E
:104B70001092204280912042CC0FC82BC09320423B
:104B80008091FC41813009F084C01092FC410E9468
:104B9000F41B6B017C01809120428093BB008091CB
:104BA000B2419091B341A091B441B091B541892BEC
:104BB0008A2B8B2BA1F00E94F41B0091B241109123
:104BC000B3412091B4413091B5416C197D098E09F2
:104BD0009F09061717072807390708F442C0809174
:104BE000BC0083FDD8CF85EC8093BC000E94F41BF1
:104BF0006B017C018091FB41823009F44CC08091B3
:104C0000FA418F3F09F469C08091FA41803209F47A
:104C100066C08091FA41803309F463C084E026C005
:104C20008091B2419091B341A091B441B091B5410E
:104C3000892B8A2B8B2B09F483CF0E94F41B0091C4
:104C4000B2411091B3412091B4413091B5416C19FA
:104C50007D098E099F09061717072807390708F0ED
:104C60006FCF8091B1410E94E62485E01092C94245
:104C70001092C8421092CB42DF91CF911F910F91B9
:104C8000FF90EF90DF90CF9008959D9191938F5F6B
:104C90006DCF85EEA9CF8091B2419091B341A091A3
:104CA000B441B091B541892B8A2B8B2B09F4A2CF4B
:104CB0000E94F41B0091B2411091B3412091B44184
:104CC0003091B5416C197D098E099F0906171707A8
:104CD0002807390708F08ECFC4CF80E0C7CF82E025
:104CE000C5CF83E0C3CFCF93A0919243B0919343BC
:104CF000109741F1C82F8091964391E09093CB4259
:104D00008093CA421092C9421092C842ED91FC9120
:104D100011970190F081E02D60E0CD01099580911F
:104D2000924390919343DC01ED91FC910190F081CD
:104D3000E02D6C2F09958091924390919343CF91F0
:104D40000C948C25E091A243F091A3432081909193
:104D5000A843909592239083209190433091914362
:104D6000232B19F0CF910C94A21E28E030E040E8EC
:104D7000E0919E43F0919F439091A643582F542376
:104D8000E1F05081952B9083E091A043F091A143F5
:104D900090815091A743952B9083E091A043F0918F
:104DA000A14350819091A743909595239083469578
:104DB00021503109E9F6CF910895508190959523BE
:104DC000E2CFFF920F931F93CF93DF93F82ED92F4B
:104DD000C62F8091924390919343009709F452C05B
:104DE0002091964331E03093CB422093CA421092F7
:104DF000C9421092C842DC01ED91FC910190F08112
:104E0000E02D60E009950F2D1D2FD1E0FF24F394D4
:104E1000C1508091924390919343CF3F61F1D03242
:104E2000C8F00E948C2580919243909193432091E9
:104E30009643F092CB422093CA421092C9421092FC
:104E4000C842DC01ED91FC910190F081E02D60E021
:104E50000995D1E08091924390919343F801649138
:104E6000DC01ED91FC910190F081E02D0995DF5F6F
:104E70000F5F1F4FCDCFDF91CF911F910F91FF900B
:104E80000C948C25E091A243F091A34390818091F2
:104E9000A8438095892380830F2D1D2FC15008F4CE
:104EA00038C0F80184912091904330919143232B95
:104EB00029F00E94A21E0F5F1F4FF0CF28E030E0C4
:104EC00040E8E0919E43F0919F439091A643582F74
:104ED0005423D9F05081952B9083E091A043F09119
:104EE000A14390815091A743952B9083E091A043DB
:104EF000F091A14350819091A74390959523908381
:104F0000469521503109E9F6D6CF508190959523E9
:104F1000E3CFDF91CF911F910F91FF900895EF9212
:104F2000FF920F931F93CF93DF93809192439091C1
:104F30009343892B09F491C02091AA433091AB434C
:104F40004091AC435091AD4360E074E284EF90E057
:104F50000E94BC3A205131094109510956954795A3
:104F6000379527952093B80065E084E994E30E9483
:104F7000E1268091794381500E94732620917B43E2
:104F800030917C43C901079697FD079623E09595DC
:104F900087952A95E1F72091794330917A43829F52
:104FA0008001839F100D929F100D1124C091944396
:104FB000D091954380919243909193430C0F1D1F84
:104FC000009709F489C02091964331E03093CB4299
:104FD0002093CA421092C9421092C842DC01ED915E
:104FE000FC910190F081E02D60E40995FF24F39499
:104FF000EE24E39480919243909193430C171D0704
:1050000009F442C0BFE1BF15D0F40E948C25809105
:1050100092439091934320919643E092CB42209308
:10502000CA421092C9421092C842DC01ED91FC9133
:105030000190F081E02D60E40995FF24F3948091C4
:105040009243909193436991DC01ED91FC91019021
:10505000F081E02D0995F394CDCF8091904390910C
:105060009143892B31F08091B3439091B4430E94D6
:10507000A91EE091A443F091A54390818091A9439A
:1050800080958923808370CF0E948C2580919243E4
:1050900090919343892B09F460C02091AE433091E5
:1050A000AF434091B0435091B14360E074E284EF6C
:1050B00090E00E94BC3A20513109410951095695AE
:1050C0004795379527952093B800DF91CF911F9191
:1050D0000F91FF90EF900895E091A243F091A343C8
:1050E00080819091A843892B80830C171D0771F252
:1050F00089912091904330919143232B19F00E9484
:10510000A21EF3CF28E030E040E8E0919E43F0910A
:105110009F439091A643582F5423D9F05081952B4B
:105120009083E091A043F091A14390815091A743D7
:10513000952B9083E091A043F091A14350819091F1
:10514000A743909595239083469521503109E9F620
:10515000CCCF508190959523E3CFE091A443F0917B
:10516000A54380819091A943892B8083AECF90E0A5
:1051700080E008958091C7421092C74208958091BF
:1051800042428068809342420895809143429091C8
:1051900044429C012F5F3F4F30934442209343424F
:1051A00090933642809335420895CF93811520E441
:1051B000920730F48F589E4FFC016083CF91089581
:1051C0008130904FD9F7C62F8CEC92E40E943B1BA4
:1051D000CD3021F481E080937001F0CF8091700197
:1051E000882321F0CA3011F410927001E0916F0110
:1051F00091E09E0F90936F01F0E0EA5BFD4BC0835E
:1052000080916E01E82FF0E0EA5FFE4F2081022ED0
:10521000000C330BC217130629F010926E0197FD94
:1052200006C0CCCF8F5F80936E018530C1F710929E
:105230006E0110926F0181E08093C642BFCF9091C2
:105240004142992319F0809334420895682F809148
:105250003542909136420C94D5288091344290E0AA
:105260000C941F29209131429FEF920F909331426D
:1052700030E0682FC90193950C94D5280F931F93A4
:10528000CF93DF93082F10913142C12FD0E0692FC7
:10529000CE0193950E94D528CE0101979927602FC2
:1052A00093950E94D528125010933142DF91CF91EF
:1052B0001F910F910895843020EF920719F40E94F6
:1052C000BA2808958115E0EC9E0788F0FC01F05C97
:1052D000E11529E2F20720F4E859FE4F8491089580
:1052E000E115FF4368F088599E4FFC01F7CF811507
:1052F000F0E49F0728F4FC01EF58FE4F80810895E9
:1053000080E0089580914142882321F080913442C9
:1053100090E0089580913542909136420E945B2939
:10532000F7CFCF93DF930E948229FC01E095609133
:105330003442462F50E090914242892F8170C82F0D
:1053400080E0D82F9E01240F351F2E0F3F1FD9015B
:10535000AA27AB2B09F44BC09160909342429091E5
:105360004242222309F445C09D7F9093424290918E
:1053700042424227E2274E2347FF3DC0906490936C
:1053800042428091424227FF38C080688093424267
:105390008091424283FF26C08E7F809342429AE9E9
:1053A000960F492F4F704A3050F5909334429091A8
:1053B0003442907F913918F081608093424280910D
:1053C000374290913842A0913942B0913A420196C9
:1053D000A11DB11D8093374290933842A09339426A
:1053E000B0933A4220933442DF91CF9108959E7F4B
:1053F000B4CF9260BACF9F7BC2CF8F77C7CF6056B2
:1054000060933442D4CF0E948229BC014091424231
:1054100080E8489F900111243327CB01969587950A
:10542000822B932B60FF13C0416040934242209136
:105430004242882371F02D7F2093424220914242C4
:1054400087FF09C02068209342420C941F294E7F99
:10545000ECCF2260F1CF2F77F6CFCF93DF930E946E
:10546000822920914242880F991F322F3170C32F19
:1054700030E08C2B932BAC014427452BA9F0216005
:105480002093424220914242882381F02D7F209335
:1054900042422091424287FF0BC020682093424243
:1054A000DF91CF910C941F292E7FEACF2260EFCF9E
:1054B0002F77F4CF0E94822920913442822B9C01C5
:1054C00090914242222369F09D7F909342429091B5
:1054D000424227FF08C09068909342422093344292
:1054E00008959260F2CF9F77F7CF0E9482299C01A6
:1054F000369527959091424280FF14C09160909319
:10550000424290914242222379F09D7F9093424201
:105510009091424227FF0AC0906890934242C9018D
:105520000C941F299E7FEBCF9260F0CF9F77F5CF31
:105530000E9482298093334290914242882339F01D
:105540009D7F9093424287FF05C00C94BF289260D4
:1055500090934242809142428F77809342420895D5
:105560000E9482298093324290914242882339F0EE
:105570009D7F9093424287FF05C00C94BF289260A4
:1055800090934242809142428F77809342420895A5
:105590000E9482298093344290914242882339F0BC
:1055A0009D7F9093424287FF05C00C94BF28926074
:1055B00090934242809142428F7780934242089575
:1055C0000E9482299C012F5F3F4F909142422223EB
:1055D00069F09D7F909342429091424227FF08C01C
:1055E000906890934242C9010C941F299260F2CFB7
:1055F0009F77F7CF0E9482292091344282279C0115
:1056000090914242222369F09D7F90934242909173
:10561000424227FF08C09068909342422093344250
:1056200008959260F2CF9F77F7CF0E9482299C0164
:105630002150310990914242222369F09D7F90933D
:1056400042429091424227FF08C0906890934242A4
:10565000C9010C941F299260F2CF9F77F7CF0E9467
:10566000822940913342242F30E0281B390B90913E
:105670004242481720F0481759F0916001C09E7FC0
:1056800090934242809142428D7F8093424203C078
:1056900093609093424227FD0C94BF288091424230
:1056A0008F778093424208950E948229409132422E
:1056B000242F30E0281B390B90914242481720F0EC
:1056C000481759F0916001C09E7F909342428091AB
:1056D00042428D7F8093424203C093609093424246
:1056E00027FD0C94BF28809142428F7780934242DD
:1056F00008950E94822940913442242F30E0281BD3
:10570000390B90914242481720F0481759F09160A8
:1057100001C09E7F90934242809142428D7F809350
:10572000424203C093609093424227FD0C94BF28ED
:10573000809142428F778093424208950E9482294D
:10574000AC01909142422091344230E02423352331
:10575000232B61F09D7F90934242909142429F7330
:10576000842F807C892B8093424208959260F3CFEE
:105770000E9482299C01220F331F90914242A9016D
:105780004427452BB1F09160909342429091424260
:10579000A9015527452B79F09D7F90934242909126
:1057A000424227FF0AC0906890934242C9010C947C
:1057B0001F299E7FE9CF9260F0CF9F77F5CF0E949F
:1057C00082292091344230E0822393232091424267
:1057D000009769F02D7F209342422091424287FF3B
:1057E00008C020682093424280933442089522608A
:1057F000F2CF2F77F7CFCF93DF930E948229FC015E
:1058000060913442462F50E090914242892F81703E
:10581000C82F80E0D82F9E01240F351F2E0F3F1F69
:10582000D901AA27AB2B09F44AC091609093424258
:1058300090914242222309F444C09D7F90934242BA
:10584000909142424227E2274E2347FF3CC090649A
:10585000909342428091424227FF37C080688093F4
:1058600042428091424283FF25C08E7F8093424214
:10587000962F9F709A3018F06A5F6093344290912F
:105880003442907F913918F0816080934242809138
:10589000374290913842A0913942B0913A420196F4
:1058A000A11DB11D8093374290933842A093394295
:1058B000B0933A4220933442DF91CF9108959E7F76
:1058C000B5CF9260BBCF9F7BC3CF8F77C8CF1F93DD
:1058D000CF93DF9380914342909144429C012F5F8C
:1058E0003F4F30934442209343420E945B29C82F8C
:1058F000D0E0CE010E945B29182FCE010196992796
:105900000E945B29382F212F80913342820F932FE1
:10591000911D9093364280933542DF91CF911F9134
:1059200008951F93CF93DF93809143429091444217
:105930009C012F5F3F4F30934442209343420E948B
:105940005B29C0913242C80FD0E0CE010E945B2992
:10595000182FCE01019699270E945B29982F812F3D
:105960009093364280933542DF91CF911F910895F5
:105970001F93CF93DF93C0914342D0914442CE0115
:105980000E945B29182FCE0101960E945B29382FB7
:10599000212F80913342820F932F911D9093364295
:1059A000809335422296D0934442C0934342DF9184
:1059B000CF911F9108951F93CF93DF93C0914342DE
:1059C000D0914442CE010E945B29182FCE0101964E
:1059D0000E945B29382F212F80913242820F932F12
:1059E000911D90933642809335422296D093444243
:1059F000C0934342DF91CF911F9108951F93CF939E
:105A0000DF93C0914342D0914442CE010E945B2972
:105A1000182FCE0101960E945B29982F812F909319
:105A20003642809335422296D0934442C0934342FB
:105A3000DF91CF911F91089580914342909144420C
:105A40009C012F5F3F4F30934442209343420E947A
:105A50005B29282F30E087FD05C030933C4220931E
:105A60003B4208953F6FF9CF809143429091444269
:105A70009C012F5F3F4F30934442209343420E944A
:105A80005B2990913342890F90E090933642809346
:105A90003542089580914342909144429C012F5F8A
:105AA0003F4F30934442209343420E945B299091A0
:105AB0003242890F90E090933642809335420895A8
:105AC00080914342909144429C012F5F3F4F30931D
:105AD0004442209343420E945B2990E090933642D7
