:100000000C9435000C945D000C945D000C945D0024
:100010000C945D000C945D000C945D000C945D00EC
:100020000C945D000C945D000C945D000C945D00DC
:100030000C945D000C945D000C945D000C945D00CC
:100040000C94BB060C945D000C9489060C9463061A
:100050000C945D000C945D000C945D000C945D00AC
:100060000C945D000C945D00050711241FBECFEFBA
:10007000D8E0DEBFCDBF11E0A0E0B1E0EAE6F3E1F9
:1000800002C005900D92A434B107D9F725E0A4E48D
:10009000B1E001C01D92A132B207E1F710E0C5E363
:1000A000D0E004C02197FE010E949909C433D10712
:1000B000C9F70E9441070C94B3090C94000080E931
:1000C00091E00895AF92BF92CF92DF92EF92FF92AC
:1000D0000F931F93CF93DF936C017B018B01040F70
:1000E000151FEB015E01AE18BF08C017D10759F00C
:1000F0006991D601ED91FC910190F081E02DC6014E
:100100000995892B79F7C501DF91CF911F910F9147
:10011000FF90EF90DF90CF90BF90AF900895FC01DB
:10012000538D448D252F30E0842F90E0821B930B5C
:10013000541710F0CF96089501970895FC01918D02
:10014000828D981761F0A28DAE0FBF2FB11D5D9605
:100150008C91928D9F5F9F73928F90E008958FEFA7
:100160009FEF0895FC01918D828D981731F0828D5B
:10017000E80FF11D858D90E008958FEF9FEF0895B2
:10018000FC01918D228D892F90E0805C9F4F821B16
:1001900091098F739927089587E794E00E94C00022
:1001A00021E0892B09F420E0822F089580E090E07F
:1001B000892B29F00E94CC0081110C940000089535
:1001C000FC01A48DA80FB92FB11DA35ABF4F2C91CC
:1001D000848D90E001968F739927848FA689B789C3
:1001E0002C93A089B1898C91837080648C93938DBA
:1001F000848D981306C00288F389E02D80818F7D5D
:1002000080830895EF92FF920F931F93CF93DF9314
:10021000EC0181E0888F9B8D8C8D98131AC0E88942
:10022000F989808185FF15C09FB7F894EE89FF8911
:100230006083E889F98980818370806480839FBFAF
:1002400081E090E0DF91CF911F910F91FF90EF90AF
:100250000895F62E0B8D10E00F5F1F4F0F731127BF
:10026000E02E8C8D8E110CC00FB607FCFACFE889FA
:10027000F989808185FFF5CFCE010E94E000F1CFA2
:10028000EB8DEC0FFD2FF11DE35AFF4FF0829FB76E
:10029000F8940B8FEA89FB8980818062CFCFCF935E
:1002A000DF93EC01888D8823B9F0AA89BB89E8899E
:1002B000F9898C9185FD03C0808186FD0DC00FB644
:1002C00007FCF7CF8C9185FFF2CF808185FFEDCFC2
:1002D000CE010E94E000E9CFDF91CF9108953FB7B2
:1002E000F8948091470190914801A0914901B09103
:1002F0004A0126B5A89B05C02F3F19F00196A11D04
:10030000B11D3FBFBA2FA92F982F8827BC01CD015F
:10031000620F711D811D911D42E0660F771F881FBE
:10032000991F4A95D1F708954F925F926F927F92ED
:100330009F92AF92BF92CF92DF92EF92FF920F9374
:100340001F93CF93DF9300D01F92CDB7DEB7F82E67
:100350008091170590911805A0911905B0911A0583
:10036000892B8A2B8B2BD9F00E946F01009173048B
:10037000109174042091750430917604601B710B08
:10038000820B930B00911705109118052091190508
:1003900030911A056017710782079307C8F20E940F
:1003A0006F01609373047093740480937504909349
:1003B0007604E0911F05F0912005309759F04091A7
:1003C0001B0550911C0560911D0570911E058F2D18
:1003D0000995F82E00917104109172044F2C512C44
:1003E000712C612C0115110509F45EC0D8011C9611
:1003F000EC901C9780911505909116058436910517
:1004000010F41C961C92D801ED91FC91A280B3804F
:1004100019821A821B82FF2089F1F8013696D12CAD
:10042000C12C2191222319F19280992001F130E011
:1004300050E040E02F5F3F4F4F4F5F4FC301B2018D
:100440000E942D099B01AC01892D90E0B0E0A0E055
:10045000BC01CD016F5F7F4F8F4F9F4F0E942D09D1
:10046000A1E0B0E0AC0FBD1FAC0DBD1D8C93BFEF84
:10047000CB1ADB0A83E0C816D10499F6D8011D9681
:100480004D915C911E9712966D917C919E012F5F0C
:100490003F4FC801F5010995D8011C96EC921C97B5
:1004A00014960D911C919ECF80916F0490917004D1
:1004B0009C012F5F3F4F3093700420936F04499746
:1004C0000CF44AC08FB7F894209167043091680407
:1004D0004091690450916A048FBF80916B049091A0
:1004E0006C04A0916D04B0916E04281B390B4A0B6B
:1004F0005B0B21F421E030E040E050E0E0916F043C
:10050000F091700488EE93E0E89FB001E99F700DD0
:10051000F89F700D1124072E000C880B990B0E9478
:10052000510930931605209315051092700410920E
:100530006F042FB7F8948091670490916804A0919C
:100540006904B0916A042FBF80936B0490936C048C
:10055000A0936D04B0936E040F900F900F90DF91F5
:10056000CF911F910F91FF90EF90DF90CF90BF90B0
:10057000AF909F907F906F905F904F9008958F9273
:100580009F92AF92BF92CF92DF92EF92FF920E9422
:100590006F014B015C018AE0C82ED12CE12CF12CBB
:1005A0000E946F01681979098A099B09683E7340A6
:1005B00081059105A8F321E0C21AD108E108F108EC
:1005C00088EE880E83E0981EA11CB11CC114D104D2
:1005D000E104F10429F7FF90EF90DF90CF90BF90F6
:1005E000AF909F908F9008950F931F93CF93DF93B9
:1005F000209145012F5F322F37703093450120FF46
:100600002BC020E831FD2064347009F02062205FA7
:10061000FC01EC01239600E011E06485662329F0DB
:1006200070E0C8010E943D096F5F6187322F369FDD
:10063000030E30E0311D1124311110C016826623E3
:1006400011F0615061873196EC17FD0731F7DF91AA
:10065000CF911F910F91089520E0D4CF3150368370
:10066000EECF4F925F926F927F928F92AF92BF9236
:10067000CF92DF92EF920F931F93CF93DF933C01C2
:10068000EB010E946F01F30127853089621B730B18
:100690006A307105B0F3F894E881F9817BB1786034
:1006A0006BB1677F6BB9C9848E812C2D281B822F7B
:1006B0002E83BF844A805B801C850D85DE841F5F8E
:1006C0000F5FD3949F813885AA84EB844081D20147
:1006D00020E0C32F522F322F3081442788943111CC
:1006E000380F08F43FEF8195889410FD430F47952C
:1006F000889411FD430F4795889412FD430F479549
:10070000889413FD430F4795889414FD430F479534
:10071000889415FD430F4795889416FD430F479520
:10072000889417FD430F47958894232F1111242F88
:100730008C0D422F002C7BB900C047FF6BB9318173
:100740002227889400C000C0002C6BB93111390FEA
:1007500000C0002C7BB900C046FF6BB908F43FEF26
:100760009195889400C000C0002C6BB900FD230F48
:1007700000C0002C7BB900C045FF6BB92795889459
:1007800001FD230F00C000C0002C6BB92795889491
:1007900000C0002C7BB900C044FF6BB902FD230FE1
:1007A0002795889400C000C0002C6BB903FD230F6F
:1007B00000C0002C7BB900C043FF6BB9279588941B
:1007C00004FD230F00C000C0002C6BB9279588944E
:1007D00000C0002C7BB900C042FF6BB905FD230FA0
:1007E0002795889400C000C0002C6BB906FD230F2C
:1007F00000C0002C7BB900C041FF6BB927958894DD
:1008000007FD230F00C000C0002C6BB9279588940A
:1008100000C0002C7BB900C040FF6BB9432F011111
:10082000422F9A0D00C000C0002C6BB900C000C060
:10083000002C7BB900C047FF6BB932812227889416
:1008400000C000C0002C6BB931113C0F00C0002C5F
:100850007BB900C046FF6BB908F43FEFEB0DF11D0B
:1008600000C000C0002C6BB9D0FC230F00C0002CCE
:100870007BB900C045FF6BB927958894D1FC230F45
:1008800000C000C0002C6BB92795889400C0002CD4
:100890007BB900C044FF6BB9D2FC230F2795889425
:1008A00000C000C0002C6BB9D3FC230F00C0002C8B
:1008B0007BB900C043FF6BB927958894D4FC230F04
:1008C00000C000C0002C6BB92795889400C0002C94
:1008D0007BB900C042FF6BB9D5FC230F27958894E4
:1008E00000C000C0002C6BB9D6FC230F00C0002C48
:1008F0007BB900C041FF6BB927958894D7FC230FC3
:1009000000C000C0002C6BB92795889400C0002C53
:100910007BB900C040FF6BB9432FD110422FC19566
:1009200000C000C0002C6BB9CE0D00C000C07BB968
:1009300000C047FF6BB930812227889400C000C0F7
:10094000002C6BB93111380F00C0002C7BB900C0EE
:1009500046FF6BB908F43FEF8195889400C000C052
:10096000002C6BB910FD230F00C0002C7BB900C018
:1009700045FF6BB92795889411FD230F00C000C077
:10098000002C6BB92795889400C0002C7BB900C05F
:1009900044FF6BB912FD230F2795889400C000C057
:1009A000002C6BB913FD230F00C0002C7BB900C0D5
:1009B00043FF6BB92795889414FD230F00C000C036
:1009C000002C6BB92795889400C0002C7BB900C01F
:1009D00042FF6BB915FD230F2795889400C000C016
:1009E000002C6BB916FD230F00C0002C7BB900C092
:1009F00041FF6BB92795889417FD230F00C000C0F5
:100A0000002C6BB92795889400C0002C7BB900C0DE
:100A100040FF6BB9432F1111422F8C0D00C000C055
:100A2000002C6BB9119709F086CE20EE31E0D2018F
:100A30000E947309DC01CB01F4E0B695A795979568
:100A40008795FA95D1F730E020E0B901EAE94E9EAA
:100A5000040C611D5E9E600D711D1124650D711DDC
:100A6000860F971FA11DB11D893E43E09407A10584
:100A7000B10508F434C0885E9340A109B10942E091
:100A8000B695A795979587954A95D1F747E0849FA6
:100A9000080E211D949F200D311D1124290F311D99
:100AA0006091440170E0860F971F820F931F409161
:100AB0006704509168046091690470916A04292F59
:100AC0003327420F531F611D711D409367045093DC
:100AD00068046093690470936A0480934401789475
:100AE0000E946F01F301708B6787DF91CF911F9197
:100AF0000F91EF90DF90CF90BF90AF908F907F904D
:100B00006F905F904F900895539A08950F931F939D
:100B1000CF93DF93CDB7DEB762970FB6F894DEBF01
:100B20000FBECDBF8C01F901DC011C968C917A833C
:100B300069835C834B835E834D8390819D87918124
:100B40009E8792819F878130F1F4CE0101960E94A9
:100B5000F40283E0888B1A8A198AD801ED91FC91FE
:100B60000484F585E02DBE016F5F7F4FC8010995B4
:100B700062960FB6F894DEBF0FBECDBFDF91CF9166
:100B80001F910F9108951C861B861A861986188658
:100B90001F82DFCF0F931F93CF93DF93CDB7DEB7C5
:100BA00062970FB6F894DEBF0FBECDBF8C01F9017E
:100BB000DC011C968C917A8369835C834B835E8312
:100BC0004D8390819D8791819E8792819F878130FF
:100BD000E9F4CE0101960E94F402188A1A8A198A51
:100BE000D801ED91FC910484F585E02DBE016F5F85
:100BF0007F4FC801099562960FB6F894DEBF0FBE0D
:100C0000CDBFDF91CF911F910F9108951C861B8658
:100C10001A86198618861F82E0CFE6E6F1E03AEFE1
:100C20002081239F020E20E0211D20832181239F0C
:100C3000020E20E0211D21832281239F020E20E04D
:100C4000211D22831124339684E0E636F80741F70C
:100C5000089590E080E00895FC01858596850895CB
:100C6000CF93DF9300D000D000D0CDB7DEB7AB017B
:100C70001C821D821E82DC01ED91FC910190F081AD
:100C8000E02D19821A821B829E012F5F3F4FBE0109
:100C90006C5F7F4F099526960FB6F894DEBF0FBEA6
:100CA000CDBFDF91CF910895FC0101900020E9F7BD
:100CB0003197AF01481B590BBC0187E794E00C94B6
:100CC00062000E94AE091F920F920FB60F9211247C
:100CD0002F933F934F935F936F937F938F939F9344
:100CE000AF93BF93EF93FF9387E794E00E94E000F8
:100CF000FF91EF91BF91AF919F918F917F916F91F4
:100D00005F914F913F912F910F900FBE0F901F90C9
:100D100018951F920F920FB60F9211242F938F9355
:100D20009F93EF93FF93E0918704F0918804808173
:100D3000E0918D04F0918E0482FD1BC09081809122
:100D400090048F5F8F7320919104821741F0E0919E
:100D50009004F0E0E958FB4F958F80939004FF9149
:100D6000EF919F918F912F910F900FBE0F901F9039
:100D700018958081F4CF1F920F920FB60F92112415
:100D80002F933F938F939F93AF93BF93809167046B
:100D900090916804A0916904B0916A043091460171
:100DA00023E0230F2D3758F50196A11DB11D209387
:100DB00046018093670490936804A0936904B093FC
:100DC0006A048091470190914801A0914901B09136
:100DD0004A010196A11DB11D8093470190934801DE
:100DE000A0934901B0934A01BF91AF919F918F9118
:100DF0003F912F910F900FBE0F901F90189526E8EE
:100E0000230F0296A11DB11DD2CFE7E7F4E01382B4
:100E1000128288EE93E0A0E0B0E084839583A683FD
:100E2000B78386E291E09183808385EC90E095879B
:100E3000848784EC90E09787868780EC90E0918BA4
:100E4000808B81EC90E0938B828B82EC90E0958B91
:100E5000848B86EC90E0978B868B118E128E138E8E
:100E6000148EE4E1F5E08FEF808312821182148604
:100E700013868FEF9FEFDC0187839087A187B2876E
:100E80000895789484B5826084BD84B5816084BD02
:100E900085B5826085BD85B5816085BD80916E0018
:100EA000816080936E001092810080918100826049
:100EB0008093810080918100816080938100809186
:100EC00080008160809380008091B1008460809375
:100ED000B1008091B00081608093B00080917A0071
:100EE000846080937A0080917A00826080937A0097
:100EF00080917A00816080937A0080917A00806886
:100F000080937A001092C100E0918704F0918804E8
:100F100082E08083E0918704F09188041082E09160
:100F20008304F09184041082E0918504F09186049A
:100F300080E1808310928F04E0918B04F0918C0407
:100F400086E08083E0918904F0918A048081806149
:100F50008083E0918904F0918A0480818860808395
:100F6000E0918904F0918A04808180688083E09117
:100F70008904F0918A0480818F7D808384E391E0ED
:100F80000E9454068EE391E00E94540680915E0117
:100F9000811145C01092500110924F018FEF809344
:100FA000530180935401809355018093560180939F
:100FB00057018093580181E08093590110925B01A1
:100FC00010925A01109252011092510180917104B5
:100FD00090917204892B31F48DE491E09093720426
:100FE00080937104E0914B01F0914C01309721F016
:100FF0008DE491E0958384838DE491E090934C019E
:1010000080934B0110925D0110925C0184E191E0AC
:1010100090934E0180934D0181E080935E01539A3D
:1010200086E691E09093500180934F0180E091E03B
:1010300090935B0180935A01809117059091180558
:10104000A0911905B0911A05843C29E09207A105E9
:10105000B10520F484EC99E0A0E0B0E0809317059E
:1010600090931805A0931905B0931A058FEF8093FC
:101070001405E12C9BEAF92EC0E0D0E085E5D82EDE
:1010800081E491E00E94540606E611E03091660486
:1010900081E0830F80936604932F990F990F990F26
:1010A000292F4D2D249F020E20E0211D1124822F77
:1010B000232F2074432F407237FD5BC0211147C09E
:1010C000411106C0982F9095382F892F90E004C0C9
:1010D00035E5380F90E08BEAF80180833183928305
:1010E000809114050E9494010E940D060E94BF0287
:1010F0000D5F1F4FF4E006361F0709F0C7CF81E4EC
:1011000091E00E94540603E614E03091660481E009
:10111000830F80936604932F990F990F990F292FAE
:101120004D2D249F020E20E0211D1124822F232FFC
:101130002074432F407237FD70C021115CC04111F3
:1011400038C0982F9095382F892F90E036C04111E4
:101150000BC0292F3AEA239F020E20E0211D112403
:101160009F2D921B380FB1CF382F3095982F80E0EC
:10117000B3CF211112C041110CC0292F4AEA249F7C
:10118000020E20E0211D11243F2D321B95E5920F08
:10119000EECF982F909530E09FCF411106C025E506
:1011A000280F9F2D981B822FF6CF2AEA280F9D2DFE
:1011B000F9CF35E5380F90E08BEAF8018083318371
:1011C0009283809114050E9494010E940D060E9452
:1011D000BF0203501109F1E003361F0709F095CF54
:1011E000209709F44DCF0E94CC00882309F448CF02
:1011F0000E94000043CF41110BC0292F3AEA239FE0
:10120000020E20E0211D11249F2D921B380F9CCF30
:10121000382F3095982F80E0D0CF211112C0411186
:101220000CC0292F4AEA249F020E20E0211D112420
:101230003F2D321B95E5920FEECF982F909530E021
:10124000BCCF411106C025E5280F9F2D981B822F8A
:10125000F6CF2AEA280F9D2DF9CFDB018F939F93BC
:101260000E947A09BF91AF91A29F800D911DA39F0B
:10127000900DB29F900D1124089597FB072E16F440
:10128000009407D077FD09D00E94850907FC05D09E
:101290003EF4909581959F4F0895709561957F4F8D
:1012A0000895A1E21A2EAA1BBB1BFD010DC0AA1FA7
:1012B000BB1FEE1FFF1FA217B307E407F50720F0BF
:1012C000A21BB30BE40BF50B661F771F881F991F3A
:1012D0001A9469F760957095809590959B01AC0183
:1012E000BD01CF0108950E949F09B7FF0895821B99
:1012F000930B08950E949F09A59F900DB49F900D98
:10130000A49F800D911D11240895AA1BBB1B51E1C0
:1013100007C0AA1FBB1FA617B70710F0A61BB70B65
:10132000881F991F5A95A9F780959095BC01CD010A
:101330000895EE0FFF1F0590F491E02D0994A29FF0
:10134000B001B39FC001A39F700D811D1124911D99
:10135000B29F700D811D1124911D089581E090E0D0
:0A136000F8940C94B309F894FFCF41
:10136A000000000061066106610630062C062906A7
:10137A0000000000CA058605840530062C065F00B9
:10138A00310300000000020162008F004F01C0001B
:10139A009E00B200726573657474696E67000D0A07
:0413AA0000780000C7
:00000001FF
