:100000000C9435000C945D000C945D000C945D0024
:100010000C945D000C945D000C945D000C945D00EC
:100020000C945D000C945D000C945D000C945D00DC
:100030000C945D000C945D000C945D000C945D00CC
:100040000C943B040C945D000C945D000C945D00DA
:100050000C945D000C945D000C945D000C945D00AC
:100060000C945D000C945D00C70711241FBECFEFF8
:10007000D8E0DEBFCDBF11E0A0E0B1E0EEEBF0E1F3
:1000800002C005900D92A632B107D9F725E0A6E28D
:10009000B1E001C01D92A538B207E1F710E0C5E359
:1000A000D0E004C02197FE010E944308C433D10769
:1000B000C9F70E9485040C945D080C94000080E947
:1000C00091E008953FB7F89480912D0190912E0111
:1000D000A0912F01B091300126B5A89B05C02F3FFC
:1000E00019F00196A11DB11D3FBFBA2FA92F982F5E
:1000F0008827BC01CD01620F711D811D911D42E059
:10010000660F771F881F991F4A95D1F708952FB75B
:10011000F8946091290170912A0180912B019091AE
:100120002C012FBF0895FC01DB013C912081230F9E
:1001300008F42FEF208311963C9111972181230F12
:1001400008F42FEF218312963C912281230F08F4AB
:100150002FEF22830895FC013081329F030E30E09F
:10016000311D3083FB013081329F030E30E0311DA1
:100170003083FA013081329F030E30E0311D30832D
:10018000112408950F931F93CF93DF93209127019C
:100190002F5F322F37703093270120FF2BC020E8CC
:1001A00031FD2064347009F02062205FFC01EC0115
:1001B000239600E011E06485662329F070E0C80111
:1001C0000E94E7076F5F6187322F369F030E30E092
:1001D000311D1124311110C01682662311F06150B7
:1001E00061873196EC17FD0731F7DF91CF911F91B1
:1001F0000F91089520E0D4CF31503683EECF4F9247
:100200005F926F927F928F92AF92BF92CF92DF9266
:10021000EF920F931F93CF93DF933C01EB010E946A
:100220006200F30127853089621B730B6A30710508
:10023000B0F3F894E881F9817BB178606BB1677FA6
:100240006BB9CA848F812C2D281B822F2F83BF84EA
:100250004A805B801D850C85DE841F5F0F5FD39411
:100260009E813885A984EB844181D20120E0C32F8F
:10027000522F322F3181442788943111380F08F4DE
:100280003FEF8195889410FD430F4795889411FDA9
:10029000430F4795889412FD430F4795889413FDAB
:1002A000430F4795889414FD430F4795889415FD97
:1002B000430F4795889416FD430F4795889417FD83
:1002C000430F47958894232F1111242F8C0D422F13
:1002D000002C7BB900C047FF6BB93081222788947E
:1002E00000C000C0002C6BB93111390F00C0002CC8
:1002F0007BB900C046FF6BB908F43FEF9195889435
:1003000000C000C0002C6BB900FD230F00C0002C02
:100310007BB900C045FF6BB92795889401FD230F79
:1003200000C000C0002C6BB92795889400C0002C39
:100330007BB900C044FF6BB902FD230F2795889459
:1003400000C000C0002C6BB903FD230F00C0002CBF
:100350007BB900C043FF6BB92795889404FD230F38
:1003600000C000C0002C6BB92795889400C0002CF9
:100370007BB900C042FF6BB905FD230F2795889418
:1003800000C000C0002C6BB906FD230F00C0002C7C
:100390007BB900C041FF6BB92795889407FD230FF7
:1003A00000C000C0002C6BB92795889400C0002CB9
:1003B0007BB900C040FF6BB9432F0111422F9A0D4A
:1003C00000C000C0002C6BB900C000C0002C7BB97D
:1003D00000C047FF6BB932812227889400C000C05B
:1003E000002C6BB931113C0F00C0002C7BB900C050
:1003F00046FF6BB908F43FEFEB0DF11D00C000C0E4
:10040000002C6BB9D0FC230F00C0002C7BB900C0BE
:1004100045FF6BB927958894D1FC230F00C000C01D
:10042000002C6BB92795889400C0002C7BB900C0C4
:1004300044FF6BB9D2FC230F2795889400C000C0FD
:10044000002C6BB9D3FC230F00C0002C7BB900C07B
:1004500043FF6BB927958894D4FC230F00C000C0DC
:10046000002C6BB92795889400C0002C7BB900C084
:1004700042FF6BB9D5FC230F2795889400C000C0BC
:10048000002C6BB9D6FC230F00C0002C7BB900C038
:1004900041FF6BB927958894D7FC230F00C000C09B
:1004A000002C6BB92795889400C0002C7BB900C044
:1004B00040FF6BB9432FD110422FC19500C000C03F
:1004C000002C6BB9CE0D00C000C07BB900C047FF47
:1004D0006BB931812227889400C000C0002C6BB911
:1004E0003111380F00C0002C7BB900C046FF6BB93A
:1004F00008F43FEF8195889400C000C0002C6BB9D0
:1005000010FD230F00C0002C7BB900C045FF6BB964
:100510002795889411FD230F00C000C0002C6BB9F3
:100520002795889400C0002C7BB900C044FF6BB9AC
:1005300012FD230F2795889400C000C0002C6BB9D2
:1005400013FD230F00C0002C7BB900C043FF6BB923
:100550002795889414FD230F00C000C0002C6BB9B0
:100560002795889400C0002C7BB900C042FF6BB96E
:1005700015FD230F2795889400C000C0002C6BB98F
:1005800016FD230F00C0002C7BB900C041FF6BB9E2
:100590002795889417FD230F00C000C0002C6BB96D
:1005A0002795889400C0002C7BB900C040FF6BB930
:1005B000432F1111422F8C0D00C000C0002C6BB9CD
:1005C000119709F086CE20EE31E0D2010E941D087D
:1005D000DC01CB01F4E0B695A79597958795FA9540
:1005E000D1F730E020E0B901EAE94E9E040C611D2C
:1005F0005E9E600D711D1124650D711D860F971F84
:10060000A11DB11D893E43E09407A105B10508F481
:1006100034C0885E9340A109B10942E0B695A79520
:10062000979587954A95D1F747E0849F080E211D3D
:10063000949F200D311D1124290F311D6091260139
:1006400070E0860F971F820F931F409129015091F0
:100650002A0160912B0170912C01292F3327420F21
:10066000531F611D711D4093290150932A0160930E
:100670002B0170932C018093260178940E946200D4
:10068000F301708B6787DF91CF911F910F91EF90EE
:10069000DF90CF90BF90AF908F907F906F905F90E2
:1006A0004F900895539A08950F931F93CF93DF931C
:1006B000CDB7DEB762970FB6F894DEBF0FBECDBFE1
:1006C0008C01F901DC011C968C917A8369835C832F
:1006D0004B835E834D8390819D8791819E8792811C
:1006E0009F878130F1F4CE0101960E94C20083E021
:1006F000888B1A8A198AD801ED91FC910484F585BA
:10070000E02DBE016F5F7F4FC801099562960FB65D
:10071000F894DEBF0FBECDBFDF91CF911F910F9137
:1007200008951C861B861A86198618861F82DFCFBD
:100730000F931F93CF93DF93CDB7DEB762970FB6BA
:10074000F894DEBF0FBECDBF8C01F901DC011C9611
:100750008C917A8369835C834B835E834D83908124
:100760009D8791819E8792819F878130E9F4CE0198
:1007700001960E94C200188A1A8A198AD801ED913E
:10078000FC910484F585E02DBE016F5F7F4FC801A9
:10079000099562960FB6F894DEBF0FBECDBFDF910C
:1007A000CF911F910F9108951C861B861A8619867A
:1007B00018861F82E0CF90E080E00895FC018585D7
:1007C00096850895CF93DF9300D000D000D0CDB7A9
:1007D000DEB7AB011C821D821E82DC01ED91FC9113
:1007E0000190F081E02D19821A821B829E012F5FF9
:1007F0003F4FBE016C5F7F4F099526960FB6F89468
:10080000DEBF0FBECDBFDF91CF910895CF92DF92B3
:10081000EF92FF921F93CF93DF93EC010E9487002A
:10082000C880D980EA80FB80DC01CB018C199D094E
:10083000AE09BF09CC80DD80EE80FF8011E08C1511
:100840009D05AE05BF0508F410E08C159D05AE05AD
:10085000BF0530F00E948700688379838A839B8379
:10086000812FDF91CF911F91FF90EF90DF90CF907C
:1008700008950E9458081F920F920FB60F921124EC
:100880002F933F938F939F93AF93BF9380912901B1
:1008900090912A01A0912B01B0912C013091280157
:1008A00023E0230F2D3758F50196A11DB11D20938C
:1008B00028018093290190932A01A0932B01B093E2
:1008C0002C0180912D0190912E01A0912F01B091CA
:1008D00030010196A11DB11D80932D0190932E0131
:1008E000A0932F01B0933001BF91AF919F918F9151
:1008F0003F912F910F900FBE0F901F90189526E8F3
:10090000230F0296A11DB11DD2CFCF93DF93CDB798
:10091000DEB72B970FB6F894DEBF0FBECDBF78942D
:1009200084B5826084BD84B5816084BD85B58260F4
:1009300085BD85B5816085BD80916E0081608093A5
:100940006E0010928100809181008260809381000E
:10095000809181008160809381008091800081601E
:10096000809380008091B10084608093B100809179
:10097000B00081608093B00080917A0084608093A1
:100980007A0080917A00826080937A0080917A0068
:10099000816080937A0080917A00806880937A00E9
:1009A0001092C10080914401811145C0109236011E
:1009B000109235018FEF8093390180933A01809333
:1009C0003B0180933C0180933D0180933E0181E097
:1009D00080933F0110924101109240011092380122
:1009E000109237018091520490915304892B31F475
:1009F00083E391E09093530480935204E09131019A
:100A0000F0913201309721F083E391E09583848364
:100A100083E391E09093320180933101109243017E
:100A20001092420188E191E0909334018093330168
:100A300081E080934401539A8CE491E090933601D5
:100A40008093350180E091E09093410180934001D3
:100A500080916B0590916C05A0916D05B0916E052C
:100A6000843C29E09207A105B10520F484EC99E0CB
:100A7000A0E0B0E080936B0590936C05A0936D05AA
:100A8000B0936E058FEF809368058091020190917D
:100A90000301E8E5F4E048E555E065E078E0A4E12D
:100AA000B1E0869F9001879F300D969F300D1124F5
:100AB000C901875E994C292F280F2A9F9001112484
:100AC0003111C2C1B08331964E175F0751F7909331
:100AD0000301809302014EE1242E312C412C512C34
:100AE00080917D05811119C00E9487006093750572
:100AF00070937605809377059093780584E690E06F
:100B0000A0E0B0E08093790590937A05A0937B05EF
:100B1000B0937C0581E080937D0585E795E00E9498
:100B20000604882309F4D5C199E7C92E91E0D92E8E
:100B300010E000E025E0622E28E0722E30E1A32EC6
:100B4000B12C40E7912C9601F12CE12CE0910001B1
:100B5000F09101016091020170910301669DC00155
:100B6000679D900D769D900D1124875E994C909312
:100B7000030180930201890F90E0880F991F892F4C
:100B80009927B7016E0F7F1F860F971F4096B501FB
:100B90000E94E707DC01BB2784E0AA0FBB1F8A95F0
:100BA000E1F7A85ABB4FA00FB11F8C91882389F0A1
:100BB000542F65E5569F050E50E0511D1124D901B3
:100BC000A053BD4F1C921196852F80958C93119642
:100BD0005C938FEFE81AF80A2053310990E1E91687
:100BE000F10409F0B3CF0F5F1F4FA3E0CA1AD10879
:100BF0000031110509F0A7CF3196F0930101E09380
:100C000000017CE4E72E74E0F72E0CE411E0A8016B
:100C10004E5F5F4FB8016F5F7F4F27EDC8010E94A5
:100C2000AB000D5F1F4FE016F10689F7F12CE12CA8
:100C30001F82188619868701075B1E4FD12CC12C95
:100C4000F80123812C8394819D8385818E83298360
:100C50009A838B8328E0AE014D5F5F4FBE016E5FCC
:100C60007F4FCE0101960E94AB002FEEAE014A5F8E
:100C70005F4FBE016B5F7F4FCE0104960E94AB00B9
:100C8000BE01695F7F4FCE0104960E949300C1149C
:100C9000D10431F0BE016F5F7F4FC8010E94930005
:100CA0008C81D80113968C9313978D8114968C9315
:100CB00014978E8115968C9389818F838A8188877A
:100CC0008B818987BFEFCB1ADB0A0D5F1F4FE0E1F5
:100CD000CE16D10409F0B4CFF0E3EF0EF11CE1140D
:100CE00023E0F20609F0A4CFF090680580916B052F
:100CF00090916C05A0916D05B0916E05892B8A2BA2
:100D00008B2BD9F00E94620000915404109155047D
:100D10002091560430915704601B710B820B930B8A
:100D200000916B0510916C0520916D0530916E0559
:100D30006017710782079307C8F20E9462006093F0
:100D40005404709355048093560490935704E09193
:100D50007305F0917405309759F040916F055091EB
:100D6000700560917105709172058F2D0995F82EAF
:100D700000915204109153048F2C912CB12CA12C72
:100D80000115110509F462C0D8011C96EC901C975E
:100D90008091690590916A058436910510F41C963E
:100DA0001C92D801ED91FC91828193819B878A8767
:100DB00019821A821B82FF2099F1680196E0C90E00
:100DC000D11CF0E0E0E0D6012D916D01222321F14C
:100DD00012967C90772001F130E050E040E02F5FE8
:100DE0003F4F4F4F5F4FC501B4010E94D7079B0192
:100DF000AC01872D90E0B0E0A0E0BC01CD016F5FB9
:100E00007F4F8F4F9F4F0E94D707A1E0B0E0AC0FFC
:100E1000BD1FAE0FBF1F8C933196E330F10599F6DD
:100E2000F80145855685628173819E012F5F3F4F92
:100E3000C801EA85FB850995D8011C96EC921C97A0
:100E400014960D911C919CCF10823DCE8091500440
:100E5000909151048C010F5F1F4F10935104009328
:100E600050044997B4F10E948700C0904C04D09080
:100E70004D04E0904E04F0904F049B01AC012C19FE
:100E80003D094E095F0921F421E030E040E050E0E7
:100E900088EE93E0089FB001099F700D189F700DB8
:100EA0001124072E000C880B990B0E94FB0730932E
:100EB0006A052093690510925104109250040E9413
:100EC000870060934C0470934D0480934E0490937C
:100ED0004F0480916005811115C00E9487006093C6
:100EE00058057093590580935A0590935B0520929D
:100EF0005C0530925D0540925E0550925F0581E091
:100F00008093600588E595E00E9406048823B9F186
:100F1000809102019091030145E058E0849F900187
:100F2000859F300D949F300D1124275E394C690147
:100F3000F12CE12CCD2CDE2CEF2CFF24249FC001C2
:100F4000259F900D349F900D1124875E994C9093AE
:100F5000030180930201F601E85AFB4F2081213002
:100F600071F4B0E0A0E0892F9A2FAB2FBB27DC01F2
:100F7000A85ABB4F3C91311102C010822C9380E0E3
:100F800090E0892B09F4ACCD0E940000A9CDE8E6E1
:100F9000F5E08FEF808312821182148613868FEF23
:100FA0009FEFDC0187839087A187B2870895DB01DB
:100FB0008F939F930E942408BF91AF91A29F800DB1
:100FC000911DA39F900DB29F900D1124089597FB42
:100FD000072E16F4009407D077FD09D00E942F0841
:100FE00007FC05D03EF4909581959F4F089570952C
:100FF00061957F4F0895A1E21A2EAA1BBB1BFD012C
:101000000DC0AA1FBB1FEE1FFF1FA217B307E407E7
:10101000F50720F0A21BB30BE40BF50B661F771F3F
:10102000881F991F1A9469F760957095809590951F
:101030009B01AC01BD01CF0108950E944908B7FF93
:101040000895821B930B08950E944908A59F900D57
:10105000B49F900DA49F800D911D11240895AA1B8B
:10106000BB1B51E107C0AA1FBB1FA617B70710F093
:10107000A61BB70B881F991F5A95A9F780959095C5
:10108000BC01CD010895EE0FFF1F0590F491E02DF6
:101090000994A29FB001B39FC001A39F700D811D51
:1010A0001124911DB29F700D811D1124911D089571
:0E10B00081E090E0F8940C945D08F894FFCF76
:1010BE000100390500000000390439043904E20347
:1010CE00DE03DB0300000000980354035203E20327
:0610DE00DE035F00FF00CD
:00000001FF
