:100000000C9455000C947D000C947D000C947D00A4
:100010000C947D000C947D000C947D000C947D006C
:100020000C947D000C947D000C947D000C947D005C
:100030000C947D000C947D000C947D000C947D004C
:100040000C94A1040C947D000C947D000C947D0014
:100050000C947D000C947D000C947D000C947D002C
:100060000C947D000C947D00000000000000330023
:1000700000006600000099000000CC000000FF00B6
:100080000033FF000066FF000099FF0000CCFF0076
:1000900000FFFF0033FFFF0066FFFF0099FFFF0036
:1000A000CCFFFF00FFFFFF00650811241FBECFEF4C
:1000B000D8E0DEBFCDBF11E0A0E0B1E0EAEFF1E1B2
:1000C00002C005900D92AA32B107D9F724E0AAE246
:1000D000B1E001C01D92A936B207E1F710E0C5E515
:1000E000D0E004C02197FE010E94E108C435D10789
:1000F000C9F70E94EB040C94FB080C940000F82F45
:10010000E62F8FB7F89420916504309166044091F2
:100110006704509168048FBFA8E1B1E00E94C20853
:100120009B01AC01A0E0BF2F0E94C2089E0F292FA7
:1001300096FD2095E22FEF732F7096FD2F5FE695C9
:10014000E695E695E670F0E0EE5DFE4F8181829FD8
:10015000802D212D112482958F702295207F822B56
:100160002081820F97FD819580582FE0382F329F94
:10017000030E30E0311D1124832F089580E991E0B2
:1001800008953FB7F89480912D0190912E01A09190
:100190002F01B091300126B5A89B05C02F3F19F063
:1001A0000196A11DB11D3FBFBA2FA92F982F8827F7
:1001B000BC01CD01620F711D811D911D42E0660FD2
:1001C000771F881F991F4A95D1F70895FC01DB011D
:1001D0003C912081230F08F42FEF208311963C914E
:1001E00011972181230F08F42FEF218312963C9160
:1001F0002281230F08F42FEF22830895FC01308120
:10020000329F030E30E0311D3083FB013081329F7D
:10021000030E30E0311D3083FA013081329F030E2E
:1002200030E0311D3083112408950F931F93CF9335
:10023000DF9320912B012F5F322F377030932B01EA
:1002400020FF2BC020E831FD2064347009F02062CB
:10025000205FFC01EC01239600E011E06485662339
:1002600029F070E0C8010E9485086F5F6187322F16
:10027000369F030E30E0311D1124311110C016825B
:10028000662311F0615061873196EC17FD0731F755
:10029000DF91CF911F910F91089520E0D4CF31507D
:1002A0003683EECF4F925F926F927F928F92AF9292
:1002B000BF92CF92DF92EF920F931F93CF93DF9372
:1002C0003C01EB010E94C100F30127853089621BCC
:1002D000730B6A307105B0F3F894E881F9817BB152
:1002E00078606BB1677F6BB9CA848F812C2D281B16
:1002F000822F2F83BF844A805B801D850C85DE841E
:100300001F5F0F5FD3949E813885A984EB84418160
:10031000D20120E0C32F522F322F318144278894FD
:100320003111380F08F43FEF8195889410FD430F89
:100330004795889411FD430F4795889412FD430F0C
:100340004795889413FD430F4795889414FD430FF8
:100350004795889415FD430F4795889416FD430FE4
:100360004795889417FD430F47958894232F1111C3
:10037000242F8C0D422F002C7BB900C047FF6BB996
:1003800030812227889400C000C0002C6BB9311145
:10039000390F00C0002C7BB900C046FF6BB908F4D0
:1003A0003FEF9195889400C000C0002C6BB900FD10
:1003B000230F00C0002C7BB900C045FF6BB9279507
:1003C000889401FD230F00C000C0002C6BB9279555
:1003D000889400C0002C7BB900C044FF6BB902FDBB
:1003E000230F2795889400C000C0002C6BB903FD33
:1003F000230F00C0002C7BB900C043FF6BB92795C9
:10040000889404FD230F00C000C0002C6BB9279511
:10041000889400C0002C7BB900C042FF6BB905FD79
:10042000230F2795889400C000C0002C6BB906FDEF
:10043000230F00C0002C7BB900C041FF6BB927958A
:10044000889407FD230F00C000C0002C6BB92795CE
:10045000889400C0002C7BB900C040FF6BB9432FCB
:100460000111422F9A0D00C000C0002C6BB900C0D2
:1004700000C0002C7BB900C047FF6BB93281222736
:10048000889400C000C0002C6BB931113C0F00C033
:10049000002C7BB900C046FF6BB908F43FEFEB0DB1
:1004A000F11D00C000C0002C6BB9D0FC230F00C0B0
:1004B000002C7BB900C045FF6BB927958894D1FC0F
:1004C000230F00C000C0002C6BB92795889400C092
:1004D000002C7BB900C044FF6BB9D2FC230F2795D9
:1004E000889400C000C0002C6BB9D3FC230F00C05F
:1004F000002C7BB900C043FF6BB927958894D4FCCE
:10050000230F00C000C0002C6BB92795889400C051
:10051000002C7BB900C042FF6BB9D5FC230F279597
:10052000889400C000C0002C6BB9D6FC230F00C01B
:10053000002C7BB900C041FF6BB927958894D7FC8C
:10054000230F00C000C0002C6BB92795889400C011
:10055000002C7BB900C040FF6BB9432FD110422F54
:10056000C19500C000C0002C6BB9CE0D00C000C00A
:100570007BB900C047FF6BB931812227889400C046
:1005800000C0002C6BB93111380F00C0002C7BB9B2
:1005900000C046FF6BB908F43FEF8195889400C016
:1005A00000C0002C6BB910FD230F00C0002C7BB9DC
:1005B00000C045FF6BB92795889411FD230F00C03B
:1005C00000C0002C6BB92795889400C0002C7BB923
:1005D00000C044FF6BB912FD230F2795889400C01B
:1005E00000C0002C6BB913FD230F00C0002C7BB999
:1005F00000C043FF6BB92795889414FD230F00C0FA
:1006000000C0002C6BB92795889400C0002C7BB9E2
:1006100000C042FF6BB915FD230F2795889400C0D9
:1006200000C0002C6BB916FD230F00C0002C7BB955
:1006300000C041FF6BB92795889417FD230F00C0B8
:1006400000C0002C6BB92795889400C0002C7BB9A2
:1006500000C040FF6BB9432F1111422F8C0D00C019
:1006600000C0002C6BB9119709F086CE20EE31E066
:10067000D2010E94BB08DC01CB01F4E0B695A7953E
:1006800097958795FA95D1F730E020E0B901EAE92E
:100690004E9E040C611D5E9E600D711D1124650D42
:1006A000711D860F971FA11DB11D893E43E0940760
:1006B000A105B10508F434C0885E9340A109B109D1
:1006C00042E0B695A795979587954A95D1F747E06B
:1006D000849F080E211D949F200D311D1124290F88
:1006E000311D60912A0170E0860F971F820F931FC2
:1006F00040916504509166046091670470916804AC
:10070000292F3327420F531F611D711D409365042C
:1007100050936604609367047093680480932A0181
:1007200078940E94C100F301708B6787DF91CF91AD
:100730001F910F91EF90DF90CF90BF90AF908F906F
:100740007F906F905F904F900895539A08950F9304
:100750001F93CF93DF93CDB7DEB762970FB6F894B0
:10076000DEBF0FBECDBF8C01F901DC011C968C9160
:100770007A8369835C834B835E834D8390819D87FD
:1007800091819E8792819F878130F1F4CE010196FD
:100790000E94150183E0888B1A8A198AD801ED918D
:1007A000FC910484F585E02DBE016F5F7F4FC80189
:1007B000099562960FB6F894DEBF0FBECDBFDF91EC
:1007C000CF911F910F9108951C861B861A8619865A
:1007D00018861F82DFCF0F931F93CF93DF93CDB780
:1007E000DEB762970FB6F894DEBF0FBECDBF8C01A7
:1007F000F901DC011C968C917A8369835C834B83BD
:100800005E834D8390819D8791819E8792819F8792
:100810008130E9F4CE0101960E941501188A1A8AE6
:10082000198AD801ED91FC910484F585E02DBE0173
:100830006F5F7F4FC801099562960FB6F894DEBFCF
:100840000FBECDBFDF91CF911F910F9108951C86F0
:100850001B861A86198618861F82E0CF261B330B4B
:10086000481B550B229FC001239F900D900D112412
:10087000449F9001459F300D300D1124820F931F2E
:10088000682F8230910520F14FEF813E2EE19207D3
:1008900038F4AC0175E0569547957A95E1F7485FD5
:1008A00051E0652F640F7727771F9B0135952795BA
:1008B000622F229FF001239FF00DF00D11248E175F
:1008C0009F0768F44FEF420F451758F76FEF650F1A
:1008D00070E08CED90E00E948508862F08952F3FF0
:1008E000B9F351E0520FF0CF90E080E00895FC01A1
:1008F000858596850895CF93DF9300D000D000D0F2
:10090000CDB7DEB7AB011C821D821E82DC01ED91EA
:10091000FC910190F081E02D19821A821B829E01C8
:100920002F5F3F4FBE016C5F7F4F099526960FB634
:10093000F894DEBF0FBECDBFDF91CF9108950E9426
:10094000F6081F920F920FB60F9211242F933F9328
:100950008F939F93AF93BF938091650490916604AA
:10096000A0916704B091680430912C0123E0230F1B
:100970002D3758F50196A11DB11D20932C018093B0
:10098000650490936604A0936704B0936804809113
:100990002D0190912E01A0912F01B091300101966F
:1009A000A11DB11D80932D0190932E01A0932F01C5
:1009B000B0933001BF91AF919F918F913F912F9153
:1009C0000F900FBE0F901F90189526E8230F0296E8
:1009D000A11DB11DD2CFCF93DF93CDB7DEB76897FE
:1009E0000FB6F894DEBF0FBECDBF789484B5826099
:1009F00084BD84B5816084BD85B5826085BD85B5C3
:100A0000816085BD80916E00816080936E00109240
:100A100081008091810082608093810080918100BB
:100A2000816080938100809180008160809380004C
:100A30008091B10084608093B1008091B0008160AA
:100A40008093B00080917A00846080937A008091D6
:100A50007A00826080937A0080917A00816080932E
:100A60007A0080917A00806880937A001092C100A9
:100A700080914401811145C01092360110923501D8
:100A80008FEF8093390180933A0180933B018093EB
:100A90003C0180933D0180933E0181E080933F01C2
:100AA00010924101109240011092380110923701CA
:100AB0008091520190915301892B31F483E391E0AD
:100AC0009093530180935201E0913101F0913201F2
:100AD000309721F083E391E09583848383E391E071
:100AE00090933201809331011092430110924201A0
:100AF00084E191E0909334018093330181E080930D
:100B00004401539A85E691E0909336018093350134
:100B100080E091E0909341018093400180915B01DE
:100B200090915C01A0915D01B0915E01843C29E04F
:100B30009207A105B10520F484EC99E0A0E0B0E0B3
:100B400080935B0190935C01A0935D01B0935E0183
:100B50008FEF8093580160E08FE090E00E947F006B
:100B6000282E60E082E190E00E947F008A8B60E2A4
:100B70008CE190E00E947F008B8B60E287E190E047
:100B80000E947F008C8B60E48EE190E00E947F00E9
:100B9000982E60E488E190E00E947F00882E60E853
:100BA00081E190E00E947F008D8B60E889E190E018
:100BB0000E947F008E8B6AEA83E190E00E947F00B2
:100BC0008F8B6AEA85E190E00E947F00888FE5E6DE
:100BD000AE2EE1E0BE2E650110E0760100E02A892C
:100BE000422D602F812F0E942E04382E2C894B8994
:100BF000602F812F0E942E04332D282F320F08F4EE
:100C00003FEF332E282D492D602F812F0E942E0477
:100C1000332D282F320F08F43FEF332E2E894D89C4
:100C2000602F812F0E942E04332D282F320F08F4BD
:100C30003FEF332E288D4F89602F812F0E942E0485
:100C4000232D382F230F08F42FEF8CED820F682F00
:100C500062956F708F70382E84E0689F9001112428
:100C6000F901E859FF4F4590559065907490C30184
:100C7000AA27BB278A879B87AC87BD875A85BB2756
:100C8000A72D962D852D8E879F87A88BB98B9E8546
:100C9000442D332009F433C0E8E6F0E06F3019F05A
:100CA000F901E459FF4F4591559165917491262FB3
:100CB000952F332D3295307F632F60955A85569F3F
:100CC000050E50E0511D239F020E20E0211D520F02
:100CD0007E85769F070E70E0711D292F239F020EDF
:100CE00020E0211D972F920F242D269F020E20E039
:100CF000211D439F040E40E0411D420F1124D701E6
:100D00005C9311969C93119712964C930F5FB0E3EE
:100D1000EB0EF11C003109F062CFE3E0CE0ED11CE6
:100D20001F5F103109F059CFF12CE12C1F8218867A
:100D3000198687010E591E4FD12CC12CD80113964C
:100D40002C9113972C8314969C9114979D83159640
:100D50008C918E8329839A838B8320E1AE014D5F32
:100D60005F4FBE016E5F7F4FCE0101960E94FE0075
:100D70002FEDAE014A5F5F4FBE016B5F7F4FCE012B
:100D800004960E94FE00BE01695F7F4FCE0104966B
:100D90000E94E600C114D10431F0BE016F5F7F4FA5
:100DA000C8010E94E6008C81F80183838D818483D1
:100DB0008E81858389818F838A8188878B818987CA
:100DC000FFEFCF1ADF0A0D5F1F4F20E1C216D104DB
:100DD00009F0B4CF30E3E30EF11CE11483E0F80630
:100DE00009F0A4CFF12CE12C1F8218861986850109
:100DF000D12CD8012C912C8311969C9111979D8315
:100E000012968C918E8329839A838B8320E1AE0185
:100E10004D5F5F4FBE016E5F7F4FCE0101960E9416
:100E2000FE002FEDAE014A5F5F4FBE016B5F7F4F4B
:100E3000CE0104960E94FE00BE01695F7F4FCE0185
:100E400004960E94E600DD20A1F08FEF8D0DB0E149
:100E50008B9FC00111248E0D9F1D9C01220F331FFB
:100E6000820F931FBE016F5F7F4F8B599E4F0E9471
:100E7000E6008C81F80180838D8181838E8182835D
:100E800089818F838A8188878B818987D394005D4C
:100E90001F4FF0E1DF12ADCF2FEFE21AF20A33E07D
:100EA000A30EB11C80E1E816F10409F09DCFF0908B
:100EB000580180915B0190915C01A0915D01B0911E
:100EC0005E01892B8A2B8B2BD9F00E94C1000091E7
:100ED0005401109155012091560130915701601B2A
:100EE000710B820B930B00915B0110915C012091BF
:100EF0005D0130915E016017710782079307C8F2A8
:100F00000E94C10060935401709355018093560173
:100F100090935701E0916301F0916401309759F08B
:100F200040915F0150916001609161017091620197
:100F30008F2D0995F82E00915201109153014F2CDD
:100F4000512C712C612C0115110509F45EC0D801DA
:100F50001C96EC901C978091590190915A0184360F
:100F6000910510F41C961C92D801ED91FC91A28081
:100F7000B38019821A821B82FF2089F1F80136960C
:100F8000D12CC12C2191222319F19280992001F1B9
:100F900030E050E040E02F5F3F4F4F4F5F4FC301C5
:100FA000B2010E9475089B01AC01892D90E0B0E070
:100FB000A0E0BC01CD016F5F7F4F8F4F9F4F0E941C
:100FC0007508A1E0B0E0AC0FBD1FAC0DBD1D8C934A
:100FD000BFEFCB1ADB0A23E0C216D10499F6D80181
:100FE0001D964D915C911E9712966D917C919E017C
:100FF0002F5F3F4FC801F5010995D8011C96EC926F
:101000001C9714960D911C919ECF80915001909148
:1010100051019C012F5F3F4F3093510120935001AC
:1010200049970CF44AC08FB7F89420916504309129
:10103000660440916704509168048FBF80914C0111
:1010400090914D01A0914E01B0914F01281B390B99
:101050004A0B5B0B21F421E030E040E050E080914E
:10106000500190915101E8EEF3E08E9FB0018F9F07
:10107000700D9E9F700D1124072E000C880B990B8C
:101080000E94990830935A012093590110925101FE
:10109000109250012FB7F8948091650490916604E6
:1010A000A0916704B09168042FBF80934C01909386
:1010B0004D01A0934E01B0934F0120E030E0232B6F
:1010C00009F449CD0E94000046CDE8E5F1E08FEF3C
:1010D000808312821182148613868FEF9FEFDC01CA
:1010E00087839087A187B2870895DB018F939F93B1
:1010F0000E94C208BF91AF91A29F800D911DA39F36
:10110000900DB29F900D1124089597FB072E16F4B1
:10111000009407D077FD09D00E94CD0807FC05D0C8
:101120003EF4909581959F4F0895709561957F4FFE
:101130000895A1E21A2EAA1BBB1BFD010DC0AA1F18
:10114000BB1FEE1FFF1FA217B307E407F50720F030
:10115000A21BB30BE40BF50B661F771F881F991FAB
:101160001A9469F760957095809590959B01AC01F4
:10117000BD01CF0108950E94E708B7FF0895821BC3
:10118000930B08950E94E708A59F900DB49F900DC2
:10119000A49F800D911D11240895AA1BBB1B51E132
:1011A00007C0AA1FBB1FA617B70710F0A61BB70BD7
:1011B000881F991F5A95A9F780959095BC01CD017C
:1011C0000895EE0FFF1F0590F491E02D0994A29F62
:1011D000B001B39FC001A39F700D811D1124911D0B
:1011E000B29F700D811D1124911D089581E090E042
:0A11F000F8940C94FB08F894FFCF6C
:1011FA00000000009F049F049F047B04770474048A
:10120A0000000000EB03A703A5037B047704BE00DC
:0A121A005201003131295A1B750AF8
:00000001FF
